:0400000003EF46F0D4
:08000800046ED8CF05F0E0CF33
:1000100006F00001E9CF0CF0EACF07F0E1CF08F0DD
:10002000E2CF09F0D9CF0AF0DACF0BF0F3CF12F01C
:10003000F4CF13F0FACF14F0F5CF15F0F6CF16F099
:10004000F7CF17F000C00EF001C00FF002C010F0A3
:1000500003C011F09DA230EF00F09EB2D5EF02F088
:100060009DAA36EF00F09EBACDEF02F00EC000F070
:100070000FC001F010C002F011C003F00CC0E9FF86
:1000800007C0EAFF078E08C0E1FF09C0E2FF0AC00F
:10009000D9FF0BC0DAFF12C0F3FF13C0F4FF14C086
:1000A000FAFF15C0F5FF16C0F6FF17C0F7FF0450A2
:1000B00006C0E0FF05C0D8FF1000F76ACA0FF66E51
:1000C000000EF7220900F550120000C1814001C066
:1000D000804101C0804100C1814001C0804100C118
:1000E000814000C1814001C0804101C0804100C108
:1000F000814000C1814001C0804100C1814001C0F8
:10010000804101C0804100C1814001C0804100C1E7
:10011000814000C1814001C0804100C1814001C0D7
:10012000804101C0804100C1814000C1814001C0C7
:10013000804101C0804100C1814001C0804100C1B7
:10014000814000C1814001C0804101C0804100C1A7
:10015000814000C1814001C0804100C1814001C097
:10016000804101C0804100C1814000C1814001C087
:10017000804101C0804100C1814001C0804100C177
:10018000814000C1814001C0804100C1814001C067
:10019000804101C0804100C1814001C0804100C157
:1001A000814000C1814001C0804101C0804100C147
:1001B000814000C1814001C0804100C1814001C037
:1001C000804101C0804100C18140F76ADA0FF66EBC
:1001D000010EF7220900F550120000C0C101C3034F
:1001E00002C2C60607C705C5C404CC0C0DCD0FCF8F
:1001F000CE0E0ACACB0BC90908C8D81819D91BDBFF
:10020000DA1A1EDEDF1FDD1D1CDC14D4D515D7174E
:1002100016D6D21213D311D1D010F03031F133F3FE
:10022000F23236F6F737F53534F43CFCFD3DFF3F4E
:100230003EFEFA3A3BFB39F9F83828E8E929EB2B7E
:100240002AEAEE2E2FEF2DEDEC2CE42425E527E70E
:10025000E62622E2E323E12120E0A06061A163A37E
:10026000A26266A6A767A56564A46CACAD6DAF6F0E
:100270006EAEAA6A6BAB69A9A86878B8B979BB7B7E
:100280007ABABE7E7FBF7DBDBC7CB47475B577B7CE
:10029000B67672B2B373B17170B0509091519353FE
:1002A000529296565797559594549C5C5D9D5F9FCE
:1002B0009E5E5A9A9B5B99595898884849894B8BFE
:1002C0008A4A4E8E8F4F8D4D4C8C4484854587478E
:1002D0004686824243834181804041542B434D47AF
:1002E000463D310041542B434D47533D220004000D
:1002F00071517A5D13E17C6B7C0E7C25E96E010EF9
:10030000EA6ED8B0EA2A30C0EFFF04007C2B100E52
:100310007A6F140E0901876F3DD100017A511008E0
:100320005CE17C0E7C25E96E010EEA6ED8B0EA2A0B
:1003300030C0EFFF04007C2B010E7C5D7C0FE96E6A
:10034000010EEA6ED8B0EA2AEF50160807E372C031
:100350007AF0140E0901876F3ED00001010E7C5D1A
:100360007C0FE96E010EEA6ED8B0EA2AEF50200841
:1003700007E175C07AF0140E0901876F2CD00001D7
:10038000010E7C5D7C0FE96E010EEA6ED8B0EA2AA0
:10039000EF50210807E178C07AF0140E0901876F49
:1003A0001AD00001010E7C5D7C0FE96E010EEA6E31
:1003B000D8B0EA2AEF50220807E177C07AF0140E8D
:1003C0000901876F08D000017C6B71C07AF00901C8
:1003D000876B8A969396DED0000177517A5D12E1A1
:1003E0007C0E7C25E96E010EEA6ED8B0EA2A30C098
:1003F000EFFF04007C2B78C07AF0140E0901876FA0
:10040000C9D0000178517A5D2BE17C0E7C25E96E24
:10041000010EEA6ED8B0EA2A30C0EFFF04007C2B50
:1004200001017D51220809E17E51640DF3507F25C1
:100430000901886F896B0ED00101010E00017C5DFE
:100440007C0FE96E010EEA6ED8B0EA2A0901896BC9
:10045000EFCF88F9140E876F79C07AF09BD0000136
:1004600079517A5D1AE17C0E7C25E96E010EEA6E07
:10047000D8B0EA2A30C0EFFF04007C2B0901885174
:10048000D8B489078807885304E1895302E175C00D
:100490007AF0140E876F7ED0000172517A5D12E1FE
:1004A0007C0E7C25E96E010EEA6ED8B0EA2A30C0D7
:1004B000EFFF04007C2B73C07AF0140E0901876FE4
:1004C00069D0000173517A5D12E17C0E7C25E96EE2
:1004D000010EEA6ED8B0EA2A30C0EFFF04007C2B90
:1004E00074C07AF0140E0901876F54D00001745162
:1004F0007A5D12E17C0E7C25E96E010EEA6ED8B0C1
:10050000EA2A30C0EFFF04007C2B150E7A6F140E20
:100510000901876F3FD000017A51150812E17C0E66
:100520007C25E96E010EEA6ED8B0EA2A30C0EFFFF2
:1005300004007C2B75C07AF0140E0901876F2AD055
:10054000000175517A5D12E17C0E7C25E96E010E89
:10055000EA6ED8B0EA2A30C0EFFF04007C2B76C0E8
:100560007AF0140E0901876F15D0000176517A5D7B
:1005700011E17C0E7C25E96E010EEA6ED8B0EA2A04
:1005800030C0EFFF040071C07AF00901876B328A36
:100590008A9693960001D2EF02F09EAAFED7AECFC4
:1005A00030F0A5D69E9A36EF00F01B2A090187533A
:1005B00007E08707875304E171C07AF08A96939623
:1005C0001E5215E01E061E5212E11F5204E01F06C5
:1005D0001F5201E11C840C013F2B3F51040803E230
:1005E0003F6B010E3E6F3288640E1E6E09011B5078
:1005F000320814E11B6A1CB004D01C808A8A939ACA
:1006000003D01C908A9A939A1CAC07D0315201E017
:100610003106315201E11C8A01D0316A1D5213E0CA
:100620001D061D520AE18A6932B205D01CA202D011
:100630001C9201D01C826EC01DF0335204E03306C0
:10064000335201E132929E92000136EF00F04154A4
:100650002B434D47463D31000C0EEA6EBD0EE96E50
:10066000EF5011E0050E016EBF0E006E0400002E6B
:10067000FDD7012EF9D72E0E006E002EFED70000FA
:100680000400EF2EEFD71200929A899A0C01BE5106
:100690004009C16FC950C1CCC9FFC730FEE3C95082
:1006A000BFCCC9FFC730FEE3C950C0CCC9FFC730BB
:1006B000FEE3929A898A00011200929A898A929A9C
:1006C0000C01BE6B0A0EBF6FAA0EC06F0001DCDF0B
:1006D000020E0C01BE6F0A0EBF6FAA0EC06F0001A2
:1006E000D3DF040E0C01BE6F0A0EBF6FAA0EC06FDF
:1006F0000001CADF060E0C01BE6F0A0EBF6FAA0E04
:10070000C06F0001C1DF080E0C01BE6F0A0EBF6F83
:10071000AA0EC06F0001B8DF0A0E0C01BE6FBF6FDA
:10072000AA0EC06F0001B0DF0C0E0C01BE6F0A0EE6
:10073000BF6FAA0EC06F0001A7DF0E0E0C01BE6FC7
:100740000A0EBF6FAA0EC06F00019EDF83EF46F056
:10075000B4CCBEFC0C01BF6BB5CCC0FC000194DF77
:100760001200B4CCBEFC100E0C01BF6FB5CCC0FCA7
:1007700000018ADF1200F2CFBEFCF29EAA6A010ECF
:10078000A96EA69CA69EA680A8500C01BEBFF28EA4
:100790003B6E3BC03CF044913BB04481D8903B3031
:1007A0004493E8B044833B30006E00323F0E0016A5
:1007B000449500B044853B30006E003200321F0E7D
:1007C0000016449700B044873B38006E0F0E0016A9
:1007D000449900B044893B38006E0032070E001681
:1007E000449B00B0448B3B38006E00320032030E55
:1007F0000016449D00B0448D006A3BBE0080449FBB
:1008000000B0448FF2CFBEFCF29EAA6A020EA96E1F
:10081000A69CA69EA680A850BEBFF28E3B6E3BC093
:100820003DF045913BB04581D8903B304593E8B0D1
:1008300045833B30006E00323F0E0016459500B0F8
:1008400045853B30006E003200321F0E0016459782
:1008500000B045873B38006E0F0E0016459900B07A
:1008600045893B38006E0032070E0016459B00B0EC
:10087000458B3B38006E00320032030E0016459D5A
:1008800000B0458D006A3BBE0080459F00B0458F9B
:10089000A89344B1A883A89544B3A885A89744B564
:1008A000A887A89944B7A889A89B44B9A88BA89DF4
:1008B00044BBA88DA89F44BDA88FA99144BFA9811E
:1008C000A99345B1A983A99545B3A985A99745B52C
:1008D000A987A99945B7A989A99B45B9A98BA99DBC
:1008E00045BBA98DA99F45BDA98FAA9145BFAA81E6
:1008F000F2CFBEFCF29EAA6A040EA96EA69CA69E2A
:10090000A680A850BEBFF28E3B6E3BC03FF0469122
:100910003BB04681D8903B304693E8B046833B30AD
:10092000006E00323F0E0016469500B046853B3003
:10093000006E003200321F0E0016469700B0468748
:100940003B38006E0F0E0016469900B046893B38C2
:10095000006E0032070E0016469B00B0468B3B38F7
:10096000006E00320032030E0016469D00B0468D28
:10097000006A3BBE0080469F00B0468FF2CFBEFCAF
:10098000F29EAA6A050EA96EA69CA69EA680A850F5
:10099000BEBFF28E3B6E3BC040F047913BB04781FB
:1009A000D8903B304793E8B047833B30006E00322D
:1009B0003F0E0016479500B047853B30006E003271
:1009C00000321F0E0016479700B047873B38006E75
:1009D0000F0E0016479900B047893B38006E003271
:1009E000070E0016479B00B0478B3B38006E003265
:1009F0000032030E0016479D00B0478D006A3BBED3
:100A00000080479F00B0478FF2CFBEFCF29EAA6ADB
:100A1000070EA96EA69CA69EA680A850BEBFF28E09
:100A20003B6E3BC042F048913BB04881D8903B3090
:100A30004893E8B048833B30006E00323F0E00160A
:100A4000489500B048853B30006E003200321F0EE2
:100A50000016489700B048873B38006E0F0E00160E
:100A6000489900B048893B38006E0032070E0016E6
:100A7000489B00B0488B3B38006E00320032030EBA
:100A80000016489D00B0488D006A3BBE0080489F1C
:100A900000B0488FF2CFBEFCF29EAA6A080EA96E83
:100AA000A69CA69EA680A850BEBFF28E3B6E3BC001
:100AB00043F049913BB04981D8903B304993E8B02D
:100AC00049833B30006E00323F0E0016499500B05E
:100AD00049853B30006E003200321F0E00164997E8
:100AE00000B049873B38006E0F0E0016499900B0E0
:100AF00049893B38006E0032070E0016499B00B052
:100B0000498B3B38006E00320032030E0016499DBF
:100B100000B0498D006A3BBE0080499F00B0498FFC
:100B2000F2CFBEFCF29EAA6A0A0EA96EA69CA69EF1
:100B3000A680A850BEBFF28E3B6E3BC045F04A91E6
:100B40003BB04A81D8903B304A93E8B04A833B306F
:100B5000006E00323F0E00164A9500B04A853B30C9
:100B6000006E003200321F0E00164A9700B04A870E
:100B70003B38006E0F0E00164A9900B04A893B3888
:100B8000006E0032070E00164A9B00B04A8B3B38BD
:100B9000006E00320032030E00164A9D00B04A8DEE
:100BA000006A3BBE00804A9F00B04A8FF2CFBEFC75
:100BB000F29EAA6A0B0EA96EA69CA69EA680A850BD
:100BC000BEBFF28E3B6E3BC046F04B913BB04B81BB
:100BD000D8903B304B93E8B04B833B30006E0032F3
:100BE0003F0E00164B9500B04B853B30006E003237
:100BF00000321F0E00164B9700B04B873B38006E3B
:100C00000F0E00164B9900B04B893B38006E003236
:100C1000070E00164B9B00B04B8B3B38006E00322A
:100C20000032030E00164B9D00B04B8D006A3BBE98
:100C300000804B9F00B04B8FF2CFBEFCF29EAA6AA1
:100C40000D0EA96EA69CA69EA680A850BEBFF28ED1
:100C50003B6E3BC048F04C913BB04C81D8903B3050
:100C60004C93E8B04C833B30006E00323F0E0016D0
:100C70004C9500B04C853B30006E003200321F0EA8
:100C800000164C9700B04C873B38006E0F0E0016D4
:100C90004C9900B04C893B38006E0032070E0016AC
:100CA0004C9B00B04C8B3B38006E00320032030E80
:100CB00000164C9D00B04C8D006A3BBE00804C9FDE
:100CC00000B04C8FF2CFBEFCF29EAA6A0E0EA96E47
:100CD000A69CA69EA680A850BEBFF28E3B6E3BC0CF
:100CE00049F04D913BB04D81D8903B304D93E8B0E9
:100CF0004D833B30006E00323F0E00164D9500B024
:100D00004D853B30006E003200321F0E00164D97AD
:100D100000B04D873B38006E0F0E00164D9900B0A5
:100D20004D893B38006E0032070E00164D9B00B017
:100D30004D8B3B38006E00320032030E00164D9D85
:100D400000B04D8D006A3BBE00804D9F00B04D8FBE
:100D5000F2CFBEFCF29EAA6A100EA96EA69CA69EB9
:100D6000A680A850BEBFF28E3B6E58913BB0588112
:100D7000D8903B305893E8B058833B30006E003237
:100D80003F0E0016589500B058853B30006E00327B
:100D900000321F0E0016589700B058873B38006E7F
:100DA0000F0E0016589900B058893B38006E00327B
:100DB000070E0016589B00B0588B3B38006E00326F
:100DC0000032030E0016589D00B0588D006A3BBEDD
:100DD0000080589F00B0588FF2CFBEFCF29EAA6AE6
:100DE000110EA96EA69CA69EA680A850BEBFF28E2C
:100DF0003B6E59913BB05981D8903B305993E8B044
:100E00005983F2CFBEFCF29EAA6A120EA96EA69C6E
:100E1000A69EA680A850BEBFF28E3B6E59953BB0F1
:100E20005985D8903B305997E8B059873B30006ED0
:100E300000323F0E0016599900B059893B30006EC0
:100E4000003200321F0E0016599B00B0598B3B3800
:100E5000006E0F0E0016599D00B0598D3B38006E84
:100E60000032070E0016599F00B0598FF2CFBEFC1A
:100E7000F29EAA6A140EA96EA69CA69EA680A850F1
:100E8000BEBFF28E3B6E5A913BB05A81D8903B3038
:100E90005A93E8B05A833B30006E00323F0E001682
:100EA0005A9500B05A853B30006E003200321F0E5A
:100EB00000165A9700B05A873B38006E0F0E001686
:100EC0005A9900B05A893B38006E0032070E00165E
:100ED0005A9B00B05A8B3B38006E00320032030E32
:100EE00000165A9D00B05A8D006A3BBE00805A9F82
:100EF00000B05A8FF2CFBEFCF29EAA6A150EA96E00
:100F0000A69CA69EA680A850BEBFF28E3B6E5B91AB
:100F10003BB05B81D8903B305B93E8B05B83F2CF12
:100F2000BEFCF29EAA6A160EA96EA69CA69EA6807C
:100F3000A850BEBFF28E3B6E5B953BB05B85D890F0
:100F40003B305B97E8B05B873B30006E00323F0E72
:100F500000165B9900B05B893B30006E00320032B6
:100F60001F0E00165B9B00B05B8B3B38006E0F0EB4
:100F700000165B9D00B05B8D3B38006E0032070EA3
:100F800000165B9F00B05B8FF2CFBEFCF29EAA6A98
:100F9000180EA96EA69CA69EA680A850BEBFF28E73
:100FA00000016C6FF2CFBEFCF29EAA6A190EA96E08
:100FB000A69CA69EA680A8500C01BEBFF28E000182
:100FC0006D6FF2CFBEFCF29EAA6A1A0EA96EA69CA5
:100FD000A69EA680A8500C01BEBFF28E00016E6FC7
:100FE000F2CFBEFCF29EAA6A1B0EA96EA69CA69E1C
:100FF000A680A8500C01BEBFF28E00016F6FF2CF29
:10100000BEFCF29EAA6A1C0EA96EA69CA69EA68095
:10101000A8500C01BEBFF28E876B866FF2CFBEFC6C
:10102000F29EAA6A1D0EA96EA69CA69EA680A85036
:10103000BEBFF28E00017B6FF2CFBEFCF29EAA6AA9
:101040001E0EA96EA69CA69EA680A8500C01BEBF2F
:10105000F28E896B886FF2CFBEFCF29EAA6A1F0ED9
:10106000A96EA69CA69EA680A850BEBFF28E8B6BD2
:101070008A6FF2CFBEFCF29EAA6A200EA96EA69CD1
:10108000A69EA680A850BEBFF28E8D6B8C6FF2CF4D
:10109000BEFCF29EAA6A210EA96EA69CA69EA68000
:1010A000A850BEBFF28E8F6B8E6FF2CFBEFCF29E49
:1010B000AA6A220EA96EA69CA69EA680A850BEBFB4
:1010C000F28E916B906FF2CFBEFCF29EAA6A230E55
:1010D000A96EA69CA69EA680A850BEBFF28E936B5A
:1010E000926FF2CFBEFCF29EAA6A240EA96EA69C55
:1010F000A69EA680A850BEBFF28E956B946FF2CFCD
:10110000BEFCF29EAA6A250EA96EA69CA69EA6808B
:10111000A850BEBFF28E976B966FF2CFBEFCF29EC8
:10112000AA6A260EA96EA69CA69EA680A850BEBF3F
:10113000F28E996B986FF2CFBEFCF29EAA6A270ED0
:10114000A96EA69CA69EA680A850BEBFF28E9B6BE1
:101150009A6FF2CFBEFCF29EAA6A280EA96EA69CD8
:10116000A69EA680A850BEBFF28E9D6B9C6FF2CF4C
:10117000BEFCF29EAA6A290EA96EA69CA69EA68017
:10118000A850BEBFF28E9F6B9E6FF2CFBEFCF29E48
:10119000AA6A2A0EA96EA69CA69EA680A850BEBFCB
:1011A000F28EA16BA06FF2CFBEFCF29EAA6A2B0E4C
:1011B000A96EA69CA69EA680A850BEBFF28EA36B69
:1011C000A26FF2CFBEFCF29EAA6A2C0EA96EA69C5C
:1011D000A69EA680A850BEBFF28EA56BA46FF2CFCC
:1011E000BEFCF29EAA6A2D0EA96EA69CA69EA680A3
:1011F000A850BEBFF28EA76BA66FF2CFBEFCF29EC8
:10120000AA6A2E0EA96EA69CA69EA680A850BEBF56
:10121000F28EA96BA86FF2CFBEFCF29EAA6A2F0EC7
:10122000A96EA69CA69EA680A850BEBFF28EAB6BF0
:10123000AA6FF2CFBEFCF29EAA6A300EA96EA69CDF
:10124000A69EA680A850BEBFF28EAD6BAC6FF2CF4B
:10125000BEFCF29EAA6A310EA96EA69CA69EA6802E
:10126000A850BEBFF28EAF6BAE6FB46B0400320EEF
:10127000B425BE6FF2CFBFFCF29EAA6ABECCA9FF16
:10128000A69CA69EA680A850BFBFF28EB56FB55192
:101290000D0803E0B4510F0824E2036AB4518D0F26
:1012A000E96E090E0320EA6EEF6A320EB425BE6FB6
:1012B000F250006EF29EAA6ABECCA9FFB5CCA8FF80
:1012C000A69CA69EA6840F01550EA76EAA0EA76E19
:1012D000A682A6B2FED7A6940050F21210D00BD070
:1012E0000C01036AB4518D0FE96E090E0320EA6EFA
:1012F000B5CCEFFF0F010C01B42BB8D70F010C01D7
:10130000B76B030EB66FB96BB86BBB6BBA6B0400EF
:101310005D0EB625BE6F000EB721BF6FF2CFC0FCC9
:10132000F29EBFCCAAFFBECCA9FFA69CA69EA6801B
:10133000A850C0BFF28EBD6BBC6FBC510D0802E15E
:10134000BD5305E0B95303E1B8511E0809E29C0EF4
:10135000B825E96E090EB921EA6EEF6A13D008D0FC
:101360009C0EB825E96E090EB921EA6EBCCCEFFFE0
:10137000B7CC03F0B651B62BD8B4B72BB82BD8B432
:10138000B92BC5D7B62BD8B4B72BB96BB86B040043
:101390005D0EB625BE6F000EB721BF6FF2CFC0FC49
:1013A000F29EBFCCAAFFBECCA9FFA69CA69EA6809B
:1013B000A850C0BFF28EBD6BBC6FBC510D0802E1DE
:1013C000BD5305E0B95303E1B8511E0809E2BC0E54
:1013D000B825E96E090EB921EA6EEF6A13D008D07C
:1013E000BC0EB825E96E090EB921EA6EBCCCEFFF40
:1013F000B7CC03F0B651B62BD8B4B72BB82BD8B4B2
:10140000B92BC5D7B62BD8B4B72BB96BB86B0400C2
:101410005D0EB625BE6F000EB721BF6FF2CFC0FCC8
:10142000F29EBFCCAAFFBECCA9FFA69CA69EA6801A
:10143000A850C0BFF28EBD6BBC6FBC510D0802E15D
:10144000BD5305E0B95303E1B8511E0809E2DC0EB3
:10145000B825E96E090EB921EA6EEF6A13D008D0FB
:10146000DC0EB825E96E090EB921EA6EBCCCEFFF9F
:10147000B7CC03F0B651B62BD8B4B72BB82BD8B431
:10148000B92BC5D7B62BD8B4B72BB96BB86B040042
:101490005D0EB625BE6F000EB721BF6FF2CFC0FC48
:1014A000F29EBFCCAAFFBECCA9FFA69CA69EA6809A
:1014B000A850C0BFF28EBD6BBC6FBC510D0802E1DD
:1014C000BD5305E0B95303E1B8511E0809E2FC0E13
:1014D000B825E96E090EB921EA6EEF6A13D008D07B
:1014E000FC0EB825E96E090EB921EA6EBCCCEFFFFF
:1014F000B7CC03F0B651B62BD8B4B72BB82BD8B4B1
:10150000B92BC5D7B62BD8B4B72BB96BB86B0400C1
:101510005D0EB625BE6F000EB721BF6FF2CFC0FCC7
:10152000F29EBFCCAAFFBECCA9FFA69CA69EA68019
:10153000A850C0BFF28EBD6BBC6FBC510D0802E15C
:10154000BD5305E0B95303E1B8511E0809E21C0E72
:10155000B825E96E0A0EB921EA6EEF6A13D008D0F9
:101560001C0EB825E96E0A0EB921EA6EBCCCEFFF5D
:10157000B7CC03F0B651B62BD8B4B72BB82BD8B430
:10158000B92BC5D7B62BD8B4B72BB96BB86B040041
:101590005D0EB625BE6F000EB721BF6FF2CFC0FC47
:1015A000F29EBFCCAAFFBECCA9FFA69CA69EA68099
:1015B000A850C0BFF28EBD6BBC6FBC510D0802E1DC
:1015C000BD5305E0B95303E1B8511E0809E23C0ED2
:1015D000B825E96E0A0EB921EA6EEF6A13D008D079
:1015E0003C0EB825E96E0A0EB921EA6EBCCCEFFFBD
:1015F000B7CC03F0B651B62BD8B4B72BB82BD8B4B0
:10160000B92BC5D7B62BD8B4B72BB96BB86B0400C0
:101610005D0EB625BE6F000EB721BF6FF2CFC0FCC6
:10162000F29EBFCCAAFFBECCA9FFA69CA69EA68018
:10163000A850C0BFF28EBD6BBC6FBC510D0802E15B
:10164000BD5305E0B95303E1B8511E0809E25C0E31
:10165000B825E96E0A0EB921EA6EEF6A13D008D0F8
:101660005C0EB825E96E0A0EB921EA6EBCCCEFFF1C
:10167000B7CC03F0B651B62BD8B4B72BB82BD8B42F
:10168000B92BC5D7B62BD8B4B72BB96BB86B040040
:101690005D0EB625BE6F000EB721BF6FF2CFC0FC46
:1016A000F29EBFCCAAFFBECCA9FFA69CA69EA68098
:1016B000A850C0BFF28EBD6BBC6FBC510D0802E1DB
:1016C000BD5305E0B95303E1B8511E0809E27C0E91
:1016D000B825E96E0A0EB921EA6EEF6A13D008D078
:1016E0007C0EB825E96E0A0EB921EA6EBCCCEFFF7C
:1016F000B7CC03F0B651B62BD8B4B72BB82BD8B4AF
:10170000B92BC5D7B62BD8B4B72BB96BB86B0400BF
:101710005D0EB625BE6F000EB721BF6FF2CFC0FCC5
:10172000F29EBFCCAAFFBECCA9FFA69CA69EA68017
:10173000A850C0BFF28EBD6BBC6FBC510D0802E15A
:10174000BD5305E0B95303E1B8511E0809E29C0EF0
:10175000B825E96E0A0EB921EA6EEF6A13D008D0F7
:101760009C0EB825E96E0A0EB921EA6EBCCCEFFFDB
:10177000B7CC03F0B651B62BD8B4B72BB82BD8B42E
:10178000B92BC5D7B62BD8B4B72BB96BB86B04003F
:101790005D0EB625BE6F000EB721BF6FF2CFC0FC45
:1017A000F29EBFCCAAFFBECCA9FFA69CA69EA68097
:1017B000A850C0BFF28EBD6BBC6FBC510D0802E1DA
:1017C000BD5305E0B95303E1B8511E0809E2BC0E50
:1017D000B825E96E0A0EB921EA6EEF6A13D008D077
:1017E000BC0EB825E96E0A0EB921EA6EBCCCEFFF3B
:1017F000B7CC03F0B651B62BD8B4B72BB82BD8B4AE
:10180000B92BC5D7B62BD8B4B72BB96BB86B0400BE
:101810005D0EB625BE6F000EB721BF6FF2CFC0FCC4
:10182000F29EBFCCAAFFBECCA9FFA69CA69EA68016
:10183000A850C0BFF28EBD6BBC6FBC510D0802E159
:10184000BD5305E0B95303E1B8511E0809E2DC0EAF
:10185000B825E96E0A0EB921EA6EEF6A13D008D0F6
:10186000DC0EB825E96E0A0EB921EA6EBCCCEFFF9A
:10187000B7CC03F0B651B62BD8B4B72BB82BD8B42D
:10188000B92BC5D7B62BD8B4B72BB96BB86B04003E
:101890005D0EB625BE6F000EB721BF6FF2CFC0FC44
:1018A000F29EBFCCAAFFBECCA9FFA69CA69EA68096
:1018B000A850C0BFF28EBD6BBC6FBC510D0802E1D9
:1018C000BD5305E0B95303E1B8511E0809E2FC0E0F
:1018D000B825E96E0A0EB921EA6EEF6A13D008D076
:1018E000FC0EB825E96E0A0EB921EA6EBCCCEFFFFA
:1018F000B7CC03F0B651B62BD8B4B72BB82BD8B4AD
:10190000B92BC5D7B62BD8B4B72BB96BB86B0400BD
:101910005D0EB625BE6F000EB721BF6FF2CFC0FCC3
:10192000F29EBFCCAAFFBECCA9FFA69CA69EA68015
:10193000A850C0BFF28EBD6BBC6FBC510D0802E158
:10194000BD5305E0B95303E1B8511E0809E21C0E6E
:10195000B825E96E0B0EB921EA6EEF6A13D008D0F4
:101960001C0EB825E96E0B0EB921EA6EBCCCEFFF58
:10197000B7CC03F0B651B62BD8B4B72BB82BD8B42C
:10198000B92BC5D7B62BD8B4B72BB96BB86B04003D
:101990005D0EB625BE6F000EB721BF6FF2CFC0FC43
:1019A000F29EBFCCAAFFBECCA9FFA69CA69EA68095
:1019B000A850C0BFF28EBD6BBC6FBC510D0802E1D8
:1019C000BD5305E0B95303E1B8511E0809E23C0ECE
:1019D000B825E96E0B0EB921EA6EEF6A13D008D074
:1019E0003C0EB825E96E0B0EB921EA6EBCCCEFFFB8
:1019F000B7CC03F0B651B62BD8B4B72BB82BD8B4AC
:101A0000B92BC5D7B62BD8B4B72BB96BB86B0400BC
:101A10005D0EB625BE6F000EB721BF6FF2CFC0FCC2
:101A2000F29EBFCCAAFFBECCA9FFA69CA69EA68014
:101A3000A850C0BFF28EBD6BBC6FBC510D0802E157
:101A4000BD5305E0B95303E1B8511E0809E25C0E2D
:101A5000B825E96E0B0EB921EA6EEF6A13D008D0F3
:101A60005C0EB825E96E0B0EB921EA6EBCCCEFFF17
:101A7000B7CC03F0B651B62BD8B4B72BB82BD8B42B
:101A8000B92BC5D7B62BD8B4B72BB96BB86B04003C
:101A90005D0EB625BE6F000EB721BF6FF2CFC0FC42
:101AA000F29EBFCCAAFFBECCA9FFA69CA69EA68094
:101AB000A850C0BFF28EBD6BBC6FBC510D0802E1D7
:101AC000BD5305E0B95303E1B8511E0809E27C0E8D
:101AD000B825E96E0B0EB921EA6EEF6A13D008D073
:101AE0007C0EB825E96E0B0EB921EA6EBCCCEFFF77
:101AF000B7CC03F0B651B62BD8B4B72BB82BD8B4AB
:101B0000B92BC5D700014DEF47F0929A899A0C0185
:101B1000C4514109C76FC950C7CCC9FFC730FEE3E4
:101B2000C950C5CCC9FFC730FEE3C950C96AC73028
:101B3000FEE3C9CFC6FC929A898AC6CC01F00001A7
:101B40001200C2CCC4FC090E0C01C56F0001DDDF20
:101B500001C0C3FC0C01C3CC01F000011200C2CCD7
:101B6000C4FC190E0C01C56F0001CFDF01C0C3FC1E
:101B70000C01C3CC01F0000112000C01C551070B90
:101B8000006EC531016E013201321F0E0116015087
:101B9000C625E96E000EC721EA6EEFCF01F0002ADC
:101BA00001D00132002EFDD7010E011600011200F6
:101BB0000C01C651C803F3CF01F0F4CF00F0C90304
:101BC000F3500026C751C803F3500020026E0001F5
:101BD00012000C01C551070B006EC531016E0132B8
:101BE00001321F0E01160150C725E96E000EC821F3
:101BF000EA6E016A012A002A01D00136002EFDD7C3
:101C0000C65303E00150EF1203D0011E0150EF163E
:101C1000000112000C01C26B010EC26FC2BF03D0E3
:101C2000C251100823E3036AC251006EE8BE0306E6
:101C3000C36F03C0C4FC036AC251006EE8BE030652
:101C4000C56F0C0EC76F610EC66F000196DFC3CC67
:101C5000C5FC0C01C66B01B0C62B0C0EC86F5E0E26
:101C6000C76F0001B6DF0C01C22BD8D70001B6EF59
:101C700011F0020E0C01C26F000163DF01C085F993
:101C80001CA803D00901851F0001D89009018531E6
:101C90000C016193E8B0618309018531006E003267
:101CA0003F0E00160C01619500B061850901853178
:101CB000006E003200321F0E00160C01619700B05A
:101CC000618709018539006E0F0E00160C016199BC
:101CD00000B0618909018539006E0032070E0016D7
:101CE0000C01619B00B0618B09018539006E0032E7
:101CF0000032030E00160C01619D00B0618D006A78
:101D0000090185BF00800C01619F00B0618F020E48
:101D1000C26F000124DF01C085F91CA803D00901AE
:101D2000851F00010C016291090185A103D00C01FE
:101D3000628109010C01C26B000103DF01C085F95A
:101D40001CA803D00901851F0001D8900901853125
:101D50000C016293E8B0628309018531006E0032A4
:101D60003F0E00160C01629500B0628509018531B5
:101D7000006E003200321F0E00160C01629700B098
:101D8000628709018539006E0F0E00160C016299F9
:101D900000B0628909018539006E0032070E001615
:101DA0000C01629B00B0628B09018539006E003224
:101DB0000032030E00160C01629D00B0628D006AB5
:101DC000090185BF00800C01629F00B0628FC26B69
:101DD0000001C5DE01C085F91CA803D00901851FDB
:101DE00000010C016391090185A103D00C016381FD
:101DF0000901010E0C01C16FC1511008D8A0B4D265
:101E0000C1CCC5FC0C0EC76FA80EC66F0001B5DEB5
:101E10000150010B0108D8A44BD1C1CCC5FC0C0E5C
:101E20000C01C76F610EC66F0001A7DE0150010BE8
:101E3000D8A49FD0C1CCC5FC0C0E0C01C76F5E0EA0
:101E4000C66F00019ADE0150010BD8A484D0D8904F
:101E50000C01C135036A640FE96E0C0E0320EA6EB3
:101E6000010EEE2601E3EF2AD890C135036A640F14
:101E7000E96E0C0E0320EA6EECCFC3FCED52EFCFFF
:101E8000C2FCD890C135036A860FE96E0C0E0320A0
:101E9000EA6EECCFC7FCED52EFCFC6FCC96B4B0E20
:101EA000C86F000185DE02C0C5FC01C0C4FC0F0E76
:101EB0000C010124016E000E0220036E0350C35D6D
:101EC00048E303E10150C25D44E3D890C135036AA1
:101ED000640FE96E0C0E0320EA6EEC6AED52EF6AB5
:101EE000010EC15DF00F35E2100F000170EF12F02E
:101EF0000C0140912ED00C0140932BD00C01409549
:101F000028D00C01409725D00C01409922D00C011B
:101F1000409B1FD00C01409D1CD00C01409F19D04C
:101F20000C01419116D00C01419313D00C01419545
:101F300010D00C0141970DD00C0141990AD00C0131
:101F4000419B07D00C01419D04D00C01419F01D061
:101F50000C010DD00001D8900C01C135036A640F4B
:101F6000E96E0C0E0320EA6EEC6AED52EF6A9FD028
:101F70000001C1CCC5FC0C0E0C01C76F5E0EC66F14
:101F80000001FBDD0150010B0108D8A484D0D890DA
:101F90000C01C135036A640FE96E0C0E0320EA6E72
:101FA000010EEE2601E3EF2AD890C135036A640FD3
:101FB000E96E0C0E0320EA6EECCFC3FCED52EFCFBE
:101FC000C2FCD890C135036A860FE96E0C0E03205F
:101FD000EA6EECCFC7FCED52EFCFC6FCC96B4B0EDF
:101FE000C86F0001E5DD02C0C5FC01C0C4FC0F0ED6
:101FF0000C010124016E000E0220036E0350C35D2C
:1020000048E303E10150C25D44E3D890C135036A5F
:10201000640FE96E0C0E0320EA6EEC6AED52010EBD
:10202000EF6EC15DF00F35E2100F00018DEF12F081
:102030000C0140812ED00C0140832BD00C01408537
:1020400028D00C01408725D00C01408922D00C01FA
:10205000408B1FD00C01408D1CD00C01408F19D03B
:102060000C01418116D00C01418313D00C01418534
:1020700010D00C0141870DD00C0141890AD00C0110
:10208000418B07D00C01418D04D00C01418F01D050
:102090000C010DD00001D8900C01C135036A640F0A
:1020A000E96E0C0E0320EA6EEC6AED52EF6A58D12D
:1020B000C1CCC5FC0C0E0C01C76FA80EC66F000189
:1020C0005CDD0150010BD8A44CD1C1CCC5FC0C0E79
:1020D0000C01C76F610EC66F00014FDD0150010B8F
:1020E0000108D8A4A0D0C1CCC5FC0C0E0C01C76F50
:1020F0005E0EC66F000141DD0150010B0108D8A43E
:1021000084D0D8900C01C135036A640FE96E0C0EBF
:102110000320EA6E010EEE2601E3EF2AD890C135C6
:10212000036A640FE96E0C0E0320EA6EECCFC3FC69
:10213000ED52EFCFC2FCD890C135036A860FE96E2D
:102140000C0E0320EA6EECCFC7FCED52EFCFC6FCBD
:10215000C96B4B0EC86F00012BDD02C0C5FC01C06E
:10216000C4FC0F0E0C010124016E000E0220036E50
:102170000350C35D48E303E10150C25D44E3D890DE
:10218000C135036A640FE96E0C0E0320EA6EEC6A37
:10219000ED52EF6A010EC15DF00F35E2100F000144
:1021A000AAEF12F00C0140812ED00C0140832BD0FD
:1021B0000C01408528D00C01408725D00C014089B6
:1021C00022D00C01408B1FD00C01408D1CD00C0183
:1021D000408F19D00C01418116D00C01418313D0DE
:1021E0000C01418510D00C0141870DD00C014189B3
:1021F0000AD00C01418B07D00C01418D04D00C0199
:10220000418F01D00C010DD00001D8900C01C135D7
:10221000036A640FE96E0C0E0320EA6EEC6AED525D
:10222000EF6A9ED00001C1CCC5FC0C0E0C01C76F3B
:102230005E0EC66F0001A1DC0150010BD8A484D052
:10224000D8900C01C135036A640FE96E0C0E0320AF
:10225000EA6E010EEE2601E3EF2AD890C135036A3B
:10226000640FE96E0C0E0320EA6EECCFC3FCED5256
:10227000EFCFC2FCD890C135036A860FE96E0C0E11
:102280000320EA6EECCFC7FCED52EFCFC6FCC96B62
:102290004B0EC86F00018CDC02C0C5FC01C0C4FC41
:1022A0000F0E0C010124016E000E0220036E03507C
:1022B000C35D48E303E10150C25D44E3D890C135FA
:1022C000036A640FE96E0C0E0320EA6EEC6AED52AD
:1022D000EF6A010EC15DF00F35E2100F0001C7EF8C
:1022E00012F00C0140912ED00C0140932BD00C0128
:1022F000409528D00C01409725D00C01409922D060
:102300000C01409B1FD00C01409D1CD00C01409F34
:1023100019D00C01419116D00C01419313D00C013E
:10232000419510D00C0141970DD00C0141990AD074
:102330000C01419B07D00C01419D04D00C01419F31
:1023400001D00C010DD00001D8900C01C135036AF9
:10235000640FE96E0C0E0320EA6EEC6AED52EF6A30
:1023600000010C01C12B48D5000154D44E6A000E67
:102370000C0141AF010E4E12D8904E34C26F000EC8
:1023800041AF010EC2114E6ED8904E34C26F000E96
:1023900041AF010EC2114E6ED8904E34C26F000E86
:1023A00041AD010EC2114E6ED8904E34C26F000E78
:1023B00041AB010EC2114E6ED8904E34C26F000E6A
:1023C00041A9010EC2114E6ED8904E34C26F000E5C
:1023D00041A7010EC2114E6ED8904E34C26F000E4E
:1023E00041A5010EC2114E6E4B6A000E40AF010EA8
:1023F0004B12D8904B34C26F000E40AD010EC2118B
:102400004B6ED8904B34C26F000E40AB010EC21120
:102410004B6ED8904B34C26F000E40A9010EC21112
:102420004B6ED8904B34C26F000E40A7010EC21104
:102430004B6ED8904B34C26F000E40A5010EC211F6
:102440004B6ED8904B34C26F000E40A3010EC211E8
:102450004B6ED8904B34C26F000E40A1010EC211DA
:102460004B6E4C6A000E41AF010E4C12D8904C34AA
:10247000C26F000E41AD010EC2114C6ED8904C34AB
:10248000C26F000E41AB010EC2114C6ED8904C349D
:10249000C26F000E41A9010EC2114C6ED8904C348F
:1024A000C26F000E41A7010EC2114C6ED8904C3481
:1024B000C26F000E41A5010EC2114C6ED8904C3473
:1024C000C26F000E41A3010EC2114C6ED8904C3465
:1024D000C26F000E41A1010EC2114C6E000112002C
:1024E000E824F76AF736FB0FF66E240EF7220A008F
:1024F000F550FA6E0800F550F96EF01EF61EFC1E3F
:10250000021F081F0E1F141F1A1F201F261F2C1F1B
:10251000321F381F3E1F441F4A1FE824F76AF73650
:10252000350FF66E250EF7220A00F550FA6E0800F8
:10253000F550F96E302036203C20422048204E20B5
:1025400054205A20602066206C20722078207E2043
:1025500084208A20E824F76AF7366F0FF66E250E7E
:10256000F7220A00F550FA6E0800F550F96EA42122
:10257000AA21B021B621BC21C221C821CE21D4215B
:10258000DA21E021E621EC21F221F821FE21E824E4
:10259000F76AF736A90FF66E250EF7220A00F550F6
:1025A000FA6E0800F550F96EE222E822EE22F422DB
:1025B000FA22002306230C23122318231E2324238C
:1025C0002A23302336233C23BCCCBEFC0A0E0C014C
:1025D000BF6FBDCCC0FC000144EC03F01200BCCCCA
:1025E000BEFC1A0E0C01BF6FBDCCC0FC000144EC58
:1025F00003F01200506A516A526A536A546A556A6B
:10260000566A576A3152D8A4C8D10C0142A103D0EE
:102610005092549214D058A105D05AB103D0508290
:1026200054920DD058B105D05AA103D05092548283
:1026300006D058A104D05AA102D05082548242A39D
:1026400003D05094549414D058A305D05AB303D057
:10265000508454940DD058B305D05AA303D050944D
:10266000548406D058A304D05AA302D05084548472
:1026700042A503D05096549614D058A505D05AB50B
:1026800003D0508654960DD058B505D05AA503D026
:102690005096548606D058A504D05AA502D050862C
:1026A000548642A703D05098549814D058A705D008
:1026B0005AB703D0508854980DD058B705D05AA7B0
:1026C00003D05098548806D058A704D05AA702D0F7
:1026D0005088548842A903D0509A549A14D058A9CB
:1026E00005D05AB903D0508A549A0DD058B905D0A4
:1026F0005AA903D0509A548A06D058A904D05AA98E
:1027000002D0508A548A42AB03D0509C549C14D0BF
:1027100058AB05D05ABB03D0508C549C0DD058BB3D
:1027200005D05AAB03D0509C548C06D058AB04D083
:102730005AAB02D0508C548C42AD03D0509E549E64
:1027400014D058AD05D05ABD03D0508E549E0DD034
:1027500058BD05D05AAD03D0509E548E06D058AD0A
:1027600004D05AAD02D0508E548E42AF03D0519057
:10277000559014D058AF05D05ABF03D05180559012
:102780000DD058BF05D05AAF03D05190558006D018
:1027900058AF04D05AAF02D05180558043A103D026
:1027A0005292569214D059A105D05BB103D05282F7
:1027B00056920DD059B105D05BA103D052925682EA
:1027C00006D059A104D05BA102D05282568243A305
:1027D00003D05294569414D059A305D05BB303D0C0
:1027E000528456940DD059B305D05BA303D05294B4
:1027F000568406D059A304D05BA302D052845684D9
:1028000043A503D05296569614D059A505D05BB572
:1028100003D0528656960DD059B505D05BA503D08E
:102820005296568606D059A504D05BA502D0528692
:10283000568643A703D05298569814D059A705D06E
:102840005BB703D0528856980DD059B705D05BA717
:1028500003D05298568806D059A704D05BA702D05F
:102860005288568843A903D0529A569A14D059A92F
:1028700005D05BB903D0528A569A0DD059B905D00C
:102880005BA903D0529A568A06D059A904D05BA9F5
:1028900002D0528A568A43AB03D0529C569C14D025
:1028A00059AB05D05BBB03D0528C569C0DD059BBA5
:1028B00005D05BAB03D0529C568C06D059AB04D0EC
:1028C0005BAB02D0528C568C43AD03D0529E569EC9
:1028D00014D059AD05D05BBD03D0528E569E0DD09D
:1028E00059BD05D05BAD03D0529E568E06D059AD72
:1028F00004D05BAD02D0528E568E43AF03D05390BE
:10290000579014D059AF05D05BBF03D05380579078
:102910000DD059BF05D05BAF03D05390578006D080
:1029200059AF04D05BAF02D053805780040EBC6F08
:1029300050C0BDFC000148DE040E0C01BC6F51C04C
:10294000BDFC00014CDE060E0C01BC6F54C0BDFC8A
:1029500000013ADE060E0C01BC6F55C0BDFC000143
:102960003EDE0A0E0C01BC6F52C0BDFC00012CDE25
:102970000A0E0C01BC6F53C0BDFC000130DE080E16
:102980000C01BC6F56C0BDFC00011EDE080E0C0120
:10299000BC6F57C0BDFC000122DE120093908A90EC
:1029A000080E016E00D00000018E10D0019E0C01B7
:1029B000B6330001D8B08A80D8A08A90018C06D0A6
:1029C000019C012EF4D700D000008A80840EE96EAD
:1029D000E92EFED700D0000001BEE8D701BCF0D739
:1029E00012000900F5520CE0F6CFB4FCF7CFB5FCAD
:1029F000F5CFB6FCD3DFB4CCF6FFB5CCF7FFF1D7FB
:102A0000120005017D697C690C01C26BC051C25D79
:102A100021E20400C251BE25E96E000EBF21EA6E1C
:102A2000EF5005017D190C01C16F036AC15100010E
:102A30005DEC00F0016E05017C5101187D6F036AA9
:102A40000C01C1510001E5EC00F0E8CF7CF50C0170
:102A5000C22BDCD7000112009EA8FED7AD6E12007B
:102A6000206A216A286A296A0C0150B104D042B157
:102A700002D0568101D0569150B304D042B302D057
:102A8000568301D0569350B504D042B502D0568536
:102A900001D0569550B704D042B702D0568701D026
:102AA000569750B904D042B902D0568901D05699F0
:102AB00050BB04D042BB02D0568B01D0569B50BDB8
:102AC00004D042BD02D0568D01D0569D50BF04D0D7
:102AD00042BF02D0568F01D0569F51B104D043B1AE
:102AE00002D0578101D0579151B304D043B302D0E3
:102AF000578301D0579351B504D043B502D05785C1
:102B000001D0579551B704D043B702D0578701D0B1
:102B1000579751B904D043B902D0578901D057997A
:102B200051BB04D043BB02D0578B01D0579B51BD42
:102B300004D043BD02D0578D01D0579D51BF04D062
:102B400043BF02D0578F01D0579F000E56BF010ED2
:102B50002812D8902834BE6F000E56BD010EBE114B
:102B6000286ED8902834BE6F000E56BB010EBE11E1
:102B7000286ED8902834BE6F000E56B9010EBE11D3
:102B8000286ED8902834BE6F000E56B7010EBE11C5
:102B9000286ED8902834BE6F000E56B5010EBE11B7
:102BA000286ED8902834BE6F000E56B3010EBE11A9
:102BB000286ED8902834BE6F000E56B1010EBE119B
:102BC000286E000E57BF010E2912D8902934BE6F0F
:102BD000000E57BD010EBE11296ED8902934BE6F6C
:102BE000000E57BB010EBE11296ED8902934BE6F5E
:102BF000000E57B9010EBE11296ED8902934BE6F50
:102C0000000E57B7010EBE11296ED8902934BE6F41
:102C1000000E57B5010EBE11296ED8902934BE6F33
:102C2000000E57B3010EBE11296ED8902934BE6F25
:102C3000000E57B1010EBE11296E000E50BF010EDD
:102C40002012D8902034BE6F000E50BD010EBE1170
:102C5000206ED8902034BE6F000E50BB010EBE1106
:102C6000206ED8902034BE6F000E50B9010EBE11F8
:102C7000206ED8902034BE6F000E50B7010EBE11EA
:102C8000206ED8902034BE6F000E50B5010EBE11DC
:102C9000206ED8902034BE6F000E50B3010EBE11CE
:102CA000206ED8902034BE6F000E50B1010EBE11C0
:102CB000206E000E51BF010E2112D8902134BE6F3C
:102CC000000E51BD010EBE11216ED8902134BE6F91
:102CD000000E51BB010EBE11216ED8902134BE6F83
:102CE000000E51B9010EBE11216ED8902134BE6F75
:102CF000000E51B7010EBE11216ED8902134BE6F67
:102D0000000E51B5010EBE11216ED8902134BE6F58
:102D1000000E51B3010EBE11216ED8902134BE6F4A
:102D2000000E51B1010EBE11216E0001D0EF1CF05A
:102D3000948082B002D01CAE02D01CA406D0320E09
:102D40000C01BD6F00012CEC03F0948082B002D026
:102D50001CAE02D01CA49DD01C941F6A0C0150B163
:102D600002D052A105D04E815091529142915C9176
:102D700050B302D052A305D04E8350935293429346
:102D80005C9350B502D052A505D04E855095529512
:102D900042955C9550B702D052A705D04E87509708
:102DA000529742975C9750B902D052A905D04E89EC
:102DB0005099529942995C9950BB02D052AB05D0C0
:102DC0004E8B509B529B429B5C9B50BD02D052ADA0
:102DD00005D04E8D509D529D429D5C9D50BF02D0AE
:102DE00052AF05D04E8F509F529F429F5C9F51B172
:102DF00002D053A105D04F815191539143915D91E0
:102E000051B302D053A305D04F83519353934393AF
:102E10005D9351B502D053A505D04F85519553957B
:102E200043955D9551B702D053A705D04F87519771
:102E3000539743975D9751B902D053A905D04F8955
:102E40005199539943995D9951BB02D053AB05D029
:102E50004F8B519B539B439B5D9B51BD02D053AD08
:102E600005D04F8D519D539D439D5D9D51BF02D017
:102E700053AF05D04F8F519F539F439F5D9F32A605
:102E800001D032961C8E899892988996929608D095
:102E90000001948082A003D01CAE01D01C9E0C01C6
:102EA00000011200948282B202D032A002D01CA68D
:102EB00006D0320E0C01BD6F00012CEC03F09482A1
:102EC00082B202D032A002D01CA6C5D01C96000E41
:102ED0000C0140B1010EBE6F000E44B1010EBE19CF
:102EE00003E150B101D04281000E40B3010EBE6F2C
:102EF000000E44B3010EBE1903E150B301D042836A
:102F0000000E40B5010EBE6F000E44B5010EBE1995
:102F100003E150B501D04285000E40B7010EBE6FEF
:102F2000000E44B7010EBE1903E150B701D042872D
:102F3000000E40B9010EBE6F000E44B9010EBE195D
:102F400003E150B901D04289000E40BB010EBE6FB3
:102F5000000E44BB010EBE1903E150BB01D0428BF1
:102F6000000E40BD010EBE6F000E44BD010EBE1925
:102F700003E150BD01D0428D000E40BF010EBE6F77
:102F8000000E44BF010EBE1903E150BF01D0428FB5
:102F9000000E41B1010EBE6F000E45B1010EBE190B
:102FA00003E151B101D04381000E41B3010EBE6F68
:102FB000000E45B3010EBE1903E151B301D04383A6
:102FC000000E41B5010EBE6F000E45B5010EBE19D3
:102FD00003E151B501D04385000E41B7010EBE6F2C
:102FE000000E45B7010EBE1903E151B701D043876A
:102FF000000E41B9010EBE6F000E45B9010EBE199B
:1030000003E151B901D04389000E41BB010EBE6FEF
:10301000000E45BB010EBE1903E151BB01D0438B2D
:10302000000E41BD010EBE6F000E45BD010EBE1962
:1030300003E151BD01D0438D000E41BF010EBE6FB3
:10304000000E45BF010EBE1903E151BF01D0438FF1
:10305000328008D00001948282A203D032A001D035
:1030600032900C01000112000400010E7C5D0C0185
:10307000BD6F010EBF6F7C0EBE6FBDCCC0FC0001EA
:10308000C0DC010E7C5D7C0FE96E010EEA6ED8B0EB
:10309000EA2AEF5005017D5DD8A487EF2DF07C0E64
:1030A00000017C25E96E010EEA6ED8B0EA2AEF50E5
:1030B00005017C5DD8A487EF2DF001017C51AA08A1
:1030C000D8A44CD27D512008D8A448D27BC07DF032
:1030D000200E00017E6F1C0E7F6F3C6A000E0C01FB
:1030E000A9B1010E3C12D8903C34BE6F000EA8BFAF
:1030F000010EBE113C6ED8903C34BE6F000EA8BDD0
:10310000010EBE113C6ED8903C34BE6F000EA8BBC1
:10311000010EBE113C6ED8903C34BE6F000EA8B9B3
:10312000010EBE113C6ED8903C34BE6F000EA8B7A5
:10313000010EBE113C6ED8903C34BE6F000EA8B597
:10314000010EBE113C6ED8903C34BE6F000EA8B389
:10315000010EBE113C6E3D6A000EAAB1010E3D1279
:10316000D8903D34BE6F000EA9BF010EBE113D6E5A
:10317000D8903D34BE6F000EA9BD010EBE113D6E4C
:10318000D8903D34BE6F000EA9BB010EBE113D6E3E
:10319000D8903D34BE6F000EA9B9010EBE113D6E30
:1031A000D8903D34BE6F000EA9B7010EBE113D6E22
:1031B000D8903D34BE6F000EA9B5010EBE113D6E14
:1031C000D8903D34BE6F000EA9B3010EBE113D6E06
:1031D000416A000EABB1010E4112D8904134BE6F6E
:1031E000000EAABF010EBE11416ED8904134BE6FD1
:1031F000000EAABD010EBE11416ED8904134BE6FC3
:10320000000EAABB010EBE11416ED8904134BE6FB4
:10321000000EAAB9010EBE11416ED8904134BE6FA6
:10322000000EAAB7010EBE11416ED8904134BE6F98
:10323000000EAAB5010EBE11416ED8904134BE6F8A
:10324000000EAAB3010EBE11416E3CC080F03DC01D
:1032500081F03EC082F03FC083F040C084F041C0A6
:1032600085F042C086F043C087F044C088F045C076
:1032700089F046C08AF047C08BF048C08CF049C046
:103280008DF04AC08EF0F2CFBDFCF29EAA6A100EFD
:10329000A96EA69CA69EA680A850BDBFF28E000176
:1032A0008F6FF2CFBDFCF29EAA6A110EA96EA69C8A
:1032B000A69EA680A8500C01BDBFF28E0001906FA3
:1032C000F2CFBDFCF29EAA6A120EA96EA69CA69E23
:1032D000A680A8500C01BDBFF28E0001916FF2CF05
:1032E000BDFCF29EAA6A130EA96EA69CA69EA6809D
:1032F000A8500C01BDBFF28E0001926FF2CFBDFC51
:10330000F29EAA6A140EA96EA69CA69EA680A8503C
:103310000C01BDBFF28E0001936FF2CFBDFCF29E97
:10332000AA6A150EA96EA69CA69EA680A8500C019E
:10333000BDBFF28E0001946FF2CFBDFCF29EAA6A6F
:10334000160EA96EA69CA69EA680A8500C01BDBF15
:10335000F28E0001956FF2CFBDFCF29EAA6A170EA5
:10336000A96EA69CA69EA680A8500C01BDBFF28E99
:103370000001966F6CC097F06DC098F06EC099F028
:103380006FC09AF0860E9B6F7BC09CF088CC9DF03E
:103390008ACC9EF08CCC9FF08ECCA0F090CCA1F08B
:1033A00092CCA2F094CCA3F096CCA4F098CCA5F04B
:1033B0009ACCA6F09CCCA7F09ECCA8F0A0CCA9F00B
:1033C000A2CCAAF0A4CCABF0A6CCACF0A8CCADF0CB
:1033D000AACCAEF0ACCCAFF0AECCB0F00C01BF6B71
:1033E0007D0EBE6F340EC06F000101EC15F07DC57F
:1033F000B1F07CC5B2F08A8693960A0E0C01BD6FBF
:1034000000012CEC03F07D512CEC15F07E512CECDE
:1034100015F07F512CEC15F080512CEC15F08151FA
:103420002CEC15F082512CEC15F083512CEC15F09E
:1034300084512CEC15F085512CEC15F086512CECB8
:1034400015F087512CEC15F088512CEC15F08951B2
:103450002CEC15F08A512CEC15F08B512CEC15F05E
:103460008C512CEC15F08D512CEC15F08E512CEC70
:1034700015F08F512CEC15F090512CEC15F091516A
:103480002CEC15F092512CEC15F093512CEC15F01E
:1034900094512CEC15F095512CEC15F096512CEC28
:1034A00015F097512CEC15F098512CEC15F0995122
:1034B0002CEC15F09A512CEC15F09B512CEC15F0DE
:1034C0009C512CEC15F09D512CEC15F09E512CECE0
:1034D00015F09F512CEC15F0A0512CEC15F0A151DA
:1034E0002CEC15F0A2512CEC15F0A3512CEC15F09E
:1034F000A4512CEC15F0A5512CEC15F0A6512CEC98
:1035000015F0A7512CEC15F0A8512CEC15F0A95191
:103510002CEC15F0AA512CEC15F0AB512CEC15F05D
:10352000AC512CEC15F0AD512CEC15F0AE512CEC4F
:1035300015F0AF512CEC15F0B0512CEC15F0B15149
:103540002CEC15F0B2512CEC15F0030E0C01BD6FF4
:1035500000012CEC03F08A969396010100017B5147
:1035600001017C5DD8A482EF2DF07D2D12D20501E2
:10357000816B7EC180F580C581F50C01BD6BBD51AD
:1035800001017F110501806F0501836B80C182F508
:1035900082C583F50C01BD6BBD510101811105018F
:1035A000826F05018153D8A4BBD180510F08D8A0E8
:1035B000B7D1825180250C01BD6F05018351812156
:1035C0000C01BE6FBE53D8B402D00501A9D1BD51C4
:1035D0001008D8B002D00501A3D10501835306E13C
:1035E0008251080803E3010E846F12D0835306E171
:1035F0008251100803E3020E846F0AD0835306E160
:103600008251180803E3030E846F02D0010E846F09
:10361000842DA2D081530DE1805108080AE34BC0EC
:1036200085F58051016E04E0D8908533012EFCD7DA
:103630001AD0815303E18051080815E2815313E148
:1036400080510F0810E3080E805D006E000E815956
:10365000036E00C001F04CC085F5015204E0D89023
:103660008533012EFCD78251080803E1835301E121
:1036700035D08251070804E1835302E1859F2ED0A3
:103680008251060805E1835303E13F0E851726D0DA
:103690008251050805E1835303E11F0E85171ED0F3
:1036A0008251040805E1835303E10F0E851716D0FC
:1036B0008251030805E1835303E1070E85170ED0FD
:1036C0008251020805E1835303E1030E851706D0FA
:1036D000822D04D0835302E1010E85177BC07DF05B
:1036E000010E00017E6F84C57FF085C580F00C015E
:1036F000BF6B7D0EBE6F040EC06F000101EC15F0B4
:103700007DC581F07CC582F08A8693960400040E04
:103710000C01BD6F00012CEC03F004007D512CEC7A
:1037200015F07E512CEC15F07F512CEC15F08051EA
:103730002CEC15F081512CEC15F082512CEC15F08D
:103740000400030E0C01BD6F00012CEC03F004001B
:103750008A969396E3D0050184510208D8A4DFD05D
:103760004BC085F58051016E04E0D8908533012E61
:10377000FCD74CC086F5070E825D0C01BD6F000EB4
:10378000050183590C01BE6FBD51080803E1BE530A
:1037900001E183D0070E0501825D0C01BD6F000EB3
:1037A000050183590C01BE6FBD51070805E1BE53E9
:1037B00003E10501869F70D0070E0501825D0C01B3
:1037C000BD6F000E050183590C01BE6FBD51060887
:1037D00006E1BE5304E13F0E050186175DD0070EDA
:1037E0000501825D0C01BD6F000E050183590C01BE
:1037F000BE6FBD51050806E1BE5304E11F0E050171
:1038000086174AD0070E0501825D0C01BD6F000EC0
:10381000050183590C01BE6FBD51040806E1BE537A
:1038200004E10F0E0501861737D0070E0501825DF2
:103830000C01BD6F000E050183590C01BE6FBD5117
:10384000030806E1BE5304E1070E0501861724D0E4
:10385000070E0501825D0C01BD6F000E0501835945
:103860000C01BE6FBD51020806E1BE5304E1030E18
:103870000501861711D0070E0501825D0C01BD6F91
:10388000000E050183590C01BE6FBD2D06D0BE533D
:1038900004E1010E050186170C017BC07DF0010ECD
:1038A00000017E6F84C57FF085C580F086C581F0FC
:1038B0000C01BF6B7D0EBE6F050EC06F000101ECE9
:1038C00015F07DC582F07CC583F08A86939604004E
:1038D000040E0C01BD6F00012CEC03F004007D51BF
:1038E0002CEC15F07E512CEC15F07F512CEC15F0E2
:1038F00080512CEC15F081512CEC15F082512CEC00
:1039000015F083512CEC15F00400030E0C01BD6F73
:1039100000012CEC03F004008A969396050138D040
:103920007BC07DF0810E00017E6F020E7F6F0C0167
:10393000BF6B7D0EBE6F030EC06F000101EC15F072
:103940007DC580F07CC581F08A8693960400040EC4
:103950000C01BD6F00012CEC03F004007D512CEC38
:1039600015F07E512CEC15F07F512CEC15F08051A8
:103970002CEC15F081512CEC15F00400030E0C0119
:10398000BD6F00012CEC03F004008A9693960501AC
:1039900001017D510708D8A4B1D0000130EF15F026
:1039A0009D9220C085F521C086F522C087F523C0F1
:1039B00088F524C089F525C08AF526C08BF527C077
:1039C0008CF528C08DF529C08EF52AC08FF52BC047
:1039D00090F52CC091F52DC092F52EC093F52FC017
:1039E00094F57BC07DF0070E7E6F100E0501846F8D
:1039F00084C57FF085C580F086C581F087C582F0DB
:103A000088C583F089C584F08AC585F08BC586F0AA
:103A10008CC587F08DC588F08EC589F08FC58AF07A
:103A200090C58BF091C58CF092C58DF093C58EF04A
:103A300094C58FF00C01BF6B7D0EBE6F130EC06F6F
:103A4000000101EC15F07DC590F07CC591F08A86EF
:103A500093960400040E0C01BD6F00012CEC03F0E2
:103A600004007D512CEC15F07E512CEC15F07F51AB
:103A70002CEC15F080512CEC15F081512CEC15F04C
:103A800082512CEC15F083512CEC15F084512CEC68
:103A900015F085512CEC15F086512CEC15F0875162
:103AA0002CEC15F088512CEC15F089512CEC15F00C
:103AB0008A512CEC15F08B512CEC15F08C512CEC20
:103AC00015F08D512CEC15F08E512CEC15F08F511A
:103AD0002CEC15F090512CEC15F091512CEC15F0CC
:103AE0000400030E0C01BD6F00012CEC03F0040078
:103AF0008A9693969D8237EF2DF001017D5105083E
:103B0000D8A476D20501816B7EC180F580C581F590
:103B10000C01BD6BBD5101017F110501806F0501D5
:103B2000836B80C182F582C583F50C01BD6BBD51ED
:103B3000010181110501826F050180534FE181531D
:103B40004DE182534AE1833D48D01C847BC07DF027
:103B5000050E00017E6F7EC17FF07FC180F080C1C5
:103B600081F081C182F00C01BF6B7D0EBE6F060E2D
:103B7000C06F000101EC15F07DC583F07CC584F0B9
:103B80008A8693960400040E0C01BD6F00012CEC94
:103B900003F004007D512CEC15F07E512CEC15F057
:103BA0007F512CEC15F080512CEC15F081512CEC50
:103BB00015F082512CEC15F083512CEC15F084514A
:103BC0002CEC15F00400030E0C01BD6F00012CEC71
:103BD00003F004008A969396050107D2802D4FD0FA
:103BE00081534DE182534AE1833D48D01C867BC01E
:103BF0007DF0050E00017E6F7EC17FF07FC180F0F9
:103C000080C181F081C182F00C01BF6B7D0EBE6F5F
:103C1000060EC06F000101EC15F07DC583F07CC578
:103C200084F08A8693960400040E0C01BD6F000197
:103C30002CEC03F004007D512CEC15F07E512CECA3
:103C400015F07F512CEC15F080512CEC15F08151C2
:103C50002CEC15F082512CEC15F083512CEC15F066
:103C600084512CEC15F00400030E0C01BD6F000113
:103C70002CEC03F004008A9693960501B6D180518E
:103C80000208D8A4A5D08153D8A4A2D082534BE176
:103C9000833D49D01C887BC07DF0050E00017E6FFE
:103CA0007EC17FF07FC180F080C181F081C182F050
:103CB0000C01BF6B7D0EBE6F060EC06F000101ECE4
:103CC00015F07DC583F07CC584F08A869396040048
:103CD000040E0C01BD6F00012CEC03F004007D51BB
:103CE0002CEC15F07E512CEC15F07F512CEC15F0DE
:103CF00080512CEC15F081512CEC15F082512CECFC
:103D000015F083512CEC15F084512CEC15F00400C7
:103D1000030E0C01BD6F00012CEC03F004008A9629
:103D2000939654D00501825352E1835350E11C987D
:103D3000000139EC0EF01C8498EC16F01C8652EC55
:103D400017F07BC07DF0050E7E6F7EC17FF07FC1D6
:103D500080F080C181F081C182F00C01BF6B7D0ECB
:103D6000BE6F060EC06F000101EC15F07DC583F03B
:103D70007CC584F08A8693960400040E0C01BD6F06
:103D800000012CEC03F004007D512CEC15F07E5169
:103D90002CEC15F07F512CEC15F080512CEC15F02B
:103DA00081512CEC15F082512CEC15F083512CEC48
:103DB00015F084512CEC15F00400030E0C01BD6FBE
:103DC00000012CEC03F004008A96939605010DD1B6
:103DD00080510308D8A4A5D08153D8A4A2D082537F
:103DE0004BE1833D49D01C8A7BC07DF0050E00016C
:103DF0007E6F7EC17FF07FC180F080C181F081C184
:103E000082F00C01BF6B7D0EBE6F060EC06F00010D
:103E100001EC15F07DC583F07CC584F08A8693960D
:103E20000400040E0C01BD6F00012CEC03F0040033
:103E30007D512CEC15F07E512CEC15F07F512CECC3
:103E400015F080512CEC15F081512CEC15F08251BD
:103E50002CEC15F083512CEC15F084512CEC15F062
:103E600004000A0E0C01BD6F00012CEC03F00400ED
:103E70008A96939654D00501825352E1835350E1C0
:103E80001C9A000139EC0EF01C8498EC16F01C868C
:103E900052EC17F07BC07DF0050E7E6F7EC17FF087
:103EA0007FC180F080C181F081C182F00C01BF6BC5
:103EB0007D0EBE6F060EC06F000101EC15F07DC5D2
:103EC00083F07CC584F08A8693960400040E0C016E
:103ED000BD6F00012CEC03F004007D512CEC15F0BB
:103EE0007E512CEC15F07F512CEC15F080512CEC10
:103EF00015F081512CEC15F082512CEC15F083510A
:103F00002CEC15F084512CEC15F00400030E0C0180
:103F1000BD6F00012CEC03F004008A969396050116
:103F200064D08051640861E181535FE182C57BF018
:103F3000F250006EF29EAA6A1D0EA96E7BC0A8FF09
:103F4000A69CA69EA6840F01550EA76EAA0EA76E6C
:103F5000A682A6B2FED7A6940050F2127BC07DF0D6
:103F6000050E00017E6F7EC17FF07FC180F080C1B1
:103F700081F081C182F00C01BF6B7D0EBE6F060E19
:103F8000C06F000101EC15F07DC583F07CC584F0A5
:103F90008A8693960400040E0C01BD6F00012CEC80
:103FA00003F004007D512CEC15F07E512CEC15F043
:103FB0007F512CEC15F080512CEC15F081512CEC3C
:103FC00015F082512CEC15F083512CEC15F0845136
:103FD0002CEC15F00400030E0C01BD6F00012CEC5D
:103FE00003F004008A969396050138EF2DF0010145
:103FF0007D512108D8A4AFEF24F0F250006EF29E5C
:10400000AA6AA96A0F0EA86EA69CA69EA6840F0196
:10401000550EA76EAA0EA76EA682A6B2FED7A694CC
:104020000050F212F2CF00F0F29EAA6A010EA96EC1
:104030007FC1A8FFA69CA69EA684550EA76EAA0EB9
:10404000A76EA682A6B2FED7A6940050F212F2CFB7
:1040500000F0F29EAA6A020EA96E80C1A8FFA69C7B
:10406000A69EA684550EA76EAA0EA76EA682A6B21D
:10407000FED7A6940050F212F2CF00F0F29EAA6A88
:10408000030EA96E81C1A8FFA69CA69EA684550E0C
:10409000A76EAA0EA76EA682A6B2FED7A69400505F
:1040A000F212F2CF00F0F29EAA6A040EA96E82C14B
:1040B000A8FFA69CA69EA684550EA76EAA0EA76E64
:1040C000A682A6B2FED7A6940050F212F2CF00F05C
:1040D000F29EAA6A050EA96E83C1A8FFA69CA69EA1
:1040E000A684550EA76EAA0EA76EA682A6B2FED70C
:1040F000A6940050F212F2CF00F0F29EAA6A060EC9
:10410000A96E84C1A8FFA69CA69EA684550EA76E84
:10411000AA0EA76EA682A6B2FED7A6940050F212EF
:10412000F2CF00F0F29EAA6A070EA96E85C1A8FF21
:10413000A69CA69EA684550EA76EAA0EA76EA68262
:10414000A6B2FED7A6940050F212F2CF00F0F29E73
:10415000AA6A080EA96E86C1A8FFA69CA69EA68480
:10416000550EA76EAA0EA76EA682A6B2FED7A6947B
:104170000050F212F2CF00F0F29EAA6A090EA96E68
:1041800087C1A8FFA69CA69EA684550EA76EAA0E60
:10419000A76EA682A6B2FED7A6940050F212F2CF66
:1041A00000F0F29EAA6A0A0EA96E88C1A8FFA69C1A
:1041B000A69EA684550EA76EAA0EA76EA682A6B2CC
:1041C000FED7A6940050F212F2CF00F0F29EAA6A37
:1041D0000B0EA96E89C1A8FFA69CA69EA684550EAB
:1041E000A76EAA0EA76EA682A6B2FED7A69400500E
:1041F000F212F2CF00F0F29EAA6A0C0EA96E8AC1EA
:10420000A8FFA69CA69EA684550EA76EAA0EA76E12
:10421000A682A6B2FED7A6940050F212F2CF00F00A
:10422000F29EAA6A0D0EA96E8BC1A8FFA69CA69E3F
:10423000A684550EA76EAA0EA76EA682A6B2FED7BA
:10424000A6940050F212F2CF00F0F29EAA6A0E0E6F
:10425000A96E8CC1A8FFA69CA69EA684550EA76E2B
:10426000AA0EA76EA682A6B2FED7A6940050F2129E
:10427000F2CF00F0F29EAA6A0F0EA96E8DC1A8FFC0
:10428000A69CA69EA684550EA76EAA0EA76EA68211
:10429000A6B2FED7A6940050F212F2CF00F0F29E22
:1042A000AA6A100EA96E8EC1A8FFA69CA69EA6841F
:1042B000550EA76EAA0EA76EA682A6B2FED7A6942A
:1042C0000050F212F2CF00F0F29EAA6A110EA96E0F
:1042D0008FC1A8FFA69CA69EA684550EA76EAA0E07
:1042E000A76EA682A6B2FED7A6940050F212F2CF15
:1042F00000F0F29EAA6A120EA96E90C1A8FFA69CB9
:10430000A69EA684550EA76EAA0EA76EA682A6B27A
:10431000FED7A6940050F212F2CF00F0F29EAA6AE5
:10432000130EA96E91C1A8FFA69CA69EA684550E49
:10433000A76EAA0EA76EA682A6B2FED7A6940050BC
:10434000F212F2CF00F0F29EAA6A140EA96E92C188
:10435000A8FFA69CA69EA684550EA76EAA0EA76EC1
:10436000A682A6B2FED7A6940050F212F2CF00F0B9
:10437000F29EAA6A150EA96E93C1A8FFA69CA69EDE
:10438000A684550EA76EAA0EA76EA682A6B2FED769
:10439000A6940050F212F2CF00F0F29EAA6A160E16
:1043A000A96E94C1A8FFA69CA69EA684550EA76ED2
:1043B000AA0EA76EA682A6B2FED7A6940050F2124D
:1043C000F2CF00F0F29EAA6A170EA96E95C1A8FF5F
:1043D000A69CA69EA684550EA76EAA0EA76EA682C0
:1043E000A6B2FED7A6940050F212F2CF00F0F29ED1
:1043F000AA6A180EA96E96C1A8FFA69CA69EA684BE
:10440000550EA76EAA0EA76EA682A6B2FED7A694D8
:104410000050F212F2CF00F0F29EAA6A190EA96EB5
:1044200097C1A8FFA69CA69EA684550EA76EAA0EAD
:10443000A76EA682A6B2FED7A6940050F212F2CFC3
:1044400000F0F29EAA6A1A0EA96E98C1A8FFA69C57
:10445000A69EA684550EA76EAA0EA76EA682A6B229
:10446000FED7A6940050F212F2CF00F0F29EAA6A94
:104470001B0EA96E99C1A8FFA69CA69EA684550EE8
:10448000A76EAA0EA76EA682A6B2FED7A69400506B
:10449000F212F2CF00F0F29EAA6A1C0EA96E9AC127
:1044A000A8FFA69CA69EA684550EA76EAA0EA76E70
:1044B000A682A6B2FED7A6940050F212F2CF00F068
:1044C000F29EAA6A1D0EA96E9BC1A8FFA69CA69E7D
:1044D000A684550EA76EAA0EA76EA682A6B2FED718
:1044E000A6940050F212F2CF00F0F29EAA6A1E0EBD
:1044F000A96E9CC1A8FFA69CA69EA684550EA76E79
:10450000AA0EA76EA682A6B2FED7A6940050F212FB
:10451000F2CF00F0F29EAA6A1F0EA96E9DC1A8FFFD
:10452000A69CA69EA684550EA76EAA0EA76EA6826E
:10453000A6B2FED7A6940050F212F2CF00F0F29E7F
:10454000AA6A200EA96E9EC1A8FFA69CA69EA6845C
:10455000550EA76EAA0EA76EA682A6B2FED7A69487
:104560000050F212F2CF00F0F29EAA6A210EA96E5C
:104570009FC1A8FFA69CA69EA684550EA76EAA0E54
:10458000A76EA682A6B2FED7A6940050F212F2CF72
:1045900000F0F29EAA6A220EA96EA0C1A8FFA69CF6
:1045A000A69EA684550EA76EAA0EA76EA682A6B2D8
:1045B000FED7A6940050F212F2CF00F0F29EAA6A43
:1045C000230EA96EA1C1A8FFA69CA69EA684550E87
:1045D000A76EAA0EA76EA682A6B2FED7A69400501A
:1045E000F212F2CF00F0F29EAA6A240EA96EA2C1C6
:1045F000A8FFA69CA69EA684550EA76EAA0EA76E1F
:10460000A682A6B2FED7A6940050F212F2CF00F016
:10461000F29EAA6A250EA96EA3C1A8FFA69CA69E1B
:10462000A684550EA76EAA0EA76EA682A6B2FED7C6
:10463000A6940050F212F2CF00F0F29EAA6A260E63
:10464000A96EA4C1A8FFA69CA69EA684550EA76E1F
:10465000AA0EA76EA682A6B2FED7A6940050F212AA
:10466000F2CF00F0F29EAA6A270EA96EA5C1A8FF9C
:10467000A69CA69EA684550EA76EAA0EA76EA6821D
:10468000A6B2FED7A6940050F212F2CF00F0F29E2E
:10469000AA6A280EA96EA6C1A8FFA69CA69EA684FB
:1046A000550EA76EAA0EA76EA682A6B2FED7A69436
:1046B0000050F212F2CF00F0F29EAA6A290EA96E03
:1046C000A7C1A8FFA69CA69EA684550EA76EAA0EFB
:1046D000A76EA682A6B2FED7A6940050F212F2CF21
:1046E00000F0F29EAA6A2A0EA96EA8C1A8FFA69C95
:1046F000A69EA684550EA76EAA0EA76EA682A6B287
:10470000FED7A6940050F212F2CF00F0F29EAA6AF1
:104710002B0EA96EA9C1A8FFA69CA69EA684550E25
:10472000A76EAA0EA76EA682A6B2FED7A6940050C8
:10473000F212F2CF00F0F29EAA6A2C0EA96EAAC164
:10474000A8FFA69CA69EA684550EA76EAA0EA76ECD
:10475000A682A6B2FED7A6940050F212F2CF00F0C5
:10476000F29EAA6A2D0EA96EABC1A8FFA69CA69EBA
:10477000A684550EA76EAA0EA76EA682A6B2FED775
:10478000A6940050F212F2CF00F0F29EAA6A2E0E0A
:10479000A96EACC1A8FFA69CA69EA684550EA76EC6
:1047A000AA0EA76EA682A6B2FED7A6940050F21259
:1047B000F2CF00F0F29EAA6A2F0EA96EADC1A8FF3B
:1047C000A69CA69EA684550EA76EAA0EA76EA682CC
:1047D000A6B2FED7A6940050F212F2CF00F0F29EDD
:1047E000AA6A300EA96EAEC1A8FFA69CA69EA6849A
:1047F000550EA76EAA0EA76EA682A6B2FED7A694E5
:104800000050F212F2CF00F0F29EAA6A310EA96EA9
:10481000AFC1A8FFA69CA69EA684550EA76EAA0EA1
:10482000A76EA682A6B2FED7A6940050F2120C0183
:10483000B56BB46B0400B00EB425E96E010EB52162
:10484000EA6EEFCFB6FCB6510D0805E0B55303E1B3
:10485000B4510F0827E28D0EB425E96E090EB5217B
:10486000EA6EEF6A320EB425BD6F000EB521BE6F41
:10487000F250006EF29EBECCAAFFBDCCA9FFB6CC12
:10488000A8FFA69CA69EA6840F01550EA76EAA0E91
:10489000A76EA682A6B2FED7A6940050F2122DD023
:1048A00026D00C018D0EB425E96E090EB521EA6EF5
:1048B000B6CCEFFF320EB425BD6F000EB521BE6F32
:1048C000F250006EF29EBECCAAFFBDCCA9FFB6CCC2
:1048D000A8FFA69CA69EA6840F01550EA76EAA0E41
:1048E000A76EA682A6B2FED7A6940050F2120C01C3
:1048F000B42BD8B4B52B9ED70F017BC07DF0210E11
:1049000000017E6F0C01BF6B7D0EBE6F020EC06F8B
:10491000000101EC15F07DC57FF07CC580F08A8632
:1049200093960A0E0C01BD6F00012CEC03F07D5133
:104930002CEC15F07E512CEC15F07F512CEC15F081
:1049400080512CEC15F0030E0C01BD6F00012CEC16
:1049500003F08A969396FF0037EF2DF001017D5109
:104960002208D8A437EF2DF00C01B86B040EB76FF6
:10497000BA6BB96BBC6BBB6B04007C0EB725E96EE0
:10498000010EB821EA6EEF500D0805E0BA5303E1BD
:10499000B9511E0820E25D0EB725BD6F000EB8218B
:1049A000BE6FF250006EF29EBECCAAFFBDCCA9FF36
:1049B0000D0EA86EA69CA69EA6840F01550EA76E8E
:1049C000AA0EA76EA682A6B2FED7A6940050F21237
:1049D00047D03AD00C019C0EB925016E090EBA21C0
:1049E000036E7C0EB725E96E010EB821EA6EEFCF9B
:1049F000BFFC03C0EAFF01C0E9FFBFCCEFFF5D0EC3
:104A0000B725BD6F000EB821BE6F7C0EB725E96ECD
:104A1000010EB821EA6EEFCFBFFCF250006EF29E9D
:104A2000BECCAAFFBDCCA9FFBFCCA8FFA69CA69E6A
:104A3000A6840F01550EA76EAA0EA76EA682A6B277
:104A4000FED7A6940050F2120C01B8CC03F0B75177
:104A5000B72BD8B4B82BB92BD8B4BA2B8DD70F013C
:104A60009C0E0C01B925E96E090EBA21EA6EEF6AB7
:104A7000BA6BB96BB72BD8B4B82B04007C0EB72532
:104A8000E96E010EB821EA6EEF500D0805E0BA5349
:104A900003E1B9511E0820E25D0EB725BD6F000E7F
:104AA000B821BE6FF250006EF29EBECCAAFFBDCC04
:104AB000A9FF0D0EA86EA69CA69EA6840F01550EFA
:104AC000A76EAA0EA76EA682A6B2FED7A694005025
:104AD000F21247D03AD00C01BC0EB925016E090E76
:104AE000BA21036E7C0EB725E96E010EB821EA6E7D
:104AF000EFCFBFFC03C0EAFF01C0E9FFBFCCEFFF6F
:104B00005D0EB725BD6F000EB821BE6F7C0EB725B8
:104B1000E96E010EB821EA6EEFCFBFFCF250006ED5
:104B2000F29EBECCAAFFBDCCA9FFBFCCA8FFA69C1D
:104B3000A69EA6840F01550EA76EAA0EA76EA6828A
:104B4000A6B2FED7A6940050F2120C01B8CC03F026
:104B5000B751B72BD8B4B82BB92BD8B4BA2B8DD743
:104B60000F01BC0E0C01B925E96E090EBA21EA6EDF
:104B7000EF6ABA6BB96BB72BD8B4B82B04007C0EB4
:104B8000B725E96E010EB821EA6EEF500D0805E079
:104B9000BA5303E1B9511E0820E25D0EB725BD6F7F
:104BA000000EB821BE6FF250006EF29EBECCAAFF7E
:104BB000BDCCA9FF0D0EA86EA69CA69EA6840F01D3
:104BC000550EA76EAA0EA76EA682A6B2FED7A69411
:104BD0000050F21247D03AD00C01DC0EB925016E1C
:104BE000090EBA21036E7C0EB725E96E010EB821BD
:104BF000EA6EEFCFBFFC03C0EAFF01C0E9FFBFCC04
:104C0000EFFF5D0EB725BD6F000EB821BE6F7C0EA5
:104C1000B725E96E010EB821EA6EEFCFBFFCF25066
:104C2000006EF29EBECCAAFFBDCCA9FFBFCCA8FFF0
:104C3000A69CA69EA6840F01550EA76EAA0EA76E6F
:104C4000A682A6B2FED7A6940050F2120C01B8CCF0
:104C500003F0B751B72BD8B4B82BB92BD8B4BA2BB3
:104C60008DD70F01DC0E0C01B925E96E090EBA21B2
:104C7000EA6EEF6ABA6BB96BB72BD8B4B82B0400E5
:104C80007C0EB725E96E010EB821EA6EEF500D08D3
:104C900005E0BA5303E1B9511E0820E25D0EB725C5
:104CA000BD6F000EB821BE6FF250006EF29EBECCFA
:104CB000AAFFBDCCA9FF0D0EA86EA69CA69EA68439
:104CC0000F01550EA76EAA0EA76EA682A6B2FED73A
:104CD000A6940050F21247D03AD00C01FC0EB92530
:104CE000016E090EBA21036E7C0EB725E96E010E26
:104CF000B821EA6EEFCFBFFC03C0EAFF01C0E9FFB5
:104D0000BFCCEFFF5D0EB725BD6F000EB821BE6FA3
:104D10007C0EB725E96E010EB821EA6EEFCFBFFC1D
:104D2000F250006EF29EBECCAAFFBDCCA9FFBFCC54
:104D3000A8FFA69CA69EA6840F01550EA76EAA0EDC
:104D4000A76EA682A6B2FED7A6940050F2120C015E
:104D5000B8CC03F0B751B72BD8B4B82BB92BD8B413
:104D6000BA2B8DD70F01FC0E0C01B925E96E090E87
:104D7000BA21EA6EEF6ABA6BB96BB72BD8B4B82B0D
:104D800004007C0EB725E96E010EB821EA6EEF50E3
:104D90000D0805E0BA5303E1B9511E0820E25D0E8B
:104DA000B725BD6F000EB821BE6FF250006EF29EA7
:104DB000BECCAAFFBDCCA9FF0D0EA86EA69CA69ED8
:104DC000A6840F01550EA76EAA0EA76EA682A6B2E4
:104DD000FED7A6940050F21247D03AD00C011C0E18
:104DE000B925016E0A0EBA21036E7C0EB725E96E55
:104DF000010EB821EA6EEFCFBFFC03C0EAFF01C08D
:104E0000E9FFBFCCEFFF5D0EB725BD6F000EB821E7
:104E1000BE6F7C0EB725E96E010EB821EA6EEFCFAA
:104E2000BFFCF250006EF29EBECCAAFFBDCCA9FF23
:104E3000BFCCA8FFA69CA69EA6840F01550EA76E08
:104E4000AA0EA76EA682A6B2FED7A6940050F212B2
:104E50000C01B8CC03F0B751B72BD8B4B82BB92B91
:104E6000D8B4BA2B8DD70F011C0E0C01B925E96EF1
:104E70000A0EBA21EA6EEF6ABA6BB96BB72BD8B4D7
:104E8000B82B04007C0EB725E96E010EB821EA6E3E
:104E9000EF500D0805E0BA5303E1B9511E0820E2B6
:104EA0005D0EB725BD6F000EB821BE6FF250006ECB
:104EB000F29EBECCAAFFBDCCA9FF0D0EA86EA69C8B
:104EC000A69EA6840F01550EA76EAA0EA76EA682F7
:104ED000A6B2FED7A6940050F21249D03CD00C01E5
:104EE0005D0EB725BD6F000EB821BE6F7C0EB725D5
:104EF000E96E010EB821EA6EEFCFBFFCF250006EF2
:104F0000F29EBECCAAFFBDCCA9FFBFCCA8FFA69C39
:104F1000A69EA6840F01550EA76EAA0EA76EA682A6
:104F2000A6B2FED7A6940050F2123C0E0C01B92591
:104F3000016E0A0EBA21036E7C0EB725E96E010ED2
:104F4000B821EA6EEFCFBFFC03C0EAFF01C0E9FF62
:104F5000BFCCEFFF0F010C01B8CC03F0B751B72B5A
:104F6000D8B4B82BB92BD8B4BA2B8BD70F013C0EC1
:104F70000C01B925E96E0A0EBA21EA6EEF6ABA6B26
:104F8000B96BB72BD8B4B82B04007C0EB725E96EEB
:104F9000010EB821EA6EEF500D0805E0BA5303E1A7
:104FA000B9511E0820E25D0EB725BD6F000EB82175
:104FB000BE6FF250006EF29EBECCAAFFBDCCA9FF20
:104FC0000D0EA86EA69CA69EA6840F01550EA76E78
:104FD000AA0EA76EA682A6B2FED7A6940050F21221
:104FE00047D03AD00C015C0EB925016E0A0EBA21E9
:104FF000036E7C0EB725E96E010EB821EA6EEFCF85
:10500000BFFC03C0EAFF01C0E9FFBFCCEFFF5D0EAC
:10501000B725BD6F000EB821BE6F7C0EB725E96EB7
:10502000010EB821EA6EEFCFBFFCF250006EF29E87
:10503000BECCAAFFBDCCA9FFBFCCA8FFA69CA69E54
:10504000A6840F01550EA76EAA0EA76EA682A6B261
:10505000FED7A6940050F2120C01B8CC03F0B75161
:10506000B72BD8B4B82BB92BD8B4BA2B8DD70F0126
:105070005C0E0C01B925E96E0A0EBA21EA6EEF6AE0
:10508000BA6BB96BB72BD8B4B82B04007C0EB7251C
:10509000E96E010EB821EA6EEF500D0805E0BA5333
:1050A00003E1B9511E0820E25D0EB725BD6F000E69
:1050B000B821BE6FF250006EF29EBECCAAFFBDCCEE
:1050C000A9FF0D0EA86EA69CA69EA6840F01550EE4
:1050D000A76EAA0EA76EA682A6B2FED7A69400500F
:1050E000F21247D03AD00C017C0EB925016E0A0E9F
:1050F000BA21036E7C0EB725E96E010EB821EA6E67
:10510000EFCFBFFC03C0EAFF01C0E9FFBFCCEFFF58
:105110005D0EB725BD6F000EB821BE6F7C0EB725A2
:10512000E96E010EB821EA6EEFCFBFFCF250006EBF
:10513000F29EBECCAAFFBDCCA9FFBFCCA8FFA69C07
:10514000A69EA6840F01550EA76EAA0EA76EA68274
:10515000A6B2FED7A6940050F2120C01B8CC03F010
:10516000B751B72BD8B4B82BB92BD8B4BA2B8DD72D
:105170000F017C0E0C01B925E96E0A0EBA21EA6E08
:10518000EF6ABA6BB96BB72BD8B4B82B04007C0E9E
:10519000B725E96E010EB821EA6EEF500D0805E063
:1051A000BA5303E1B9511E0828E25D0EB725BD6F61
:1051B000000EB821BE6F7C0EB725E96E010EB82136
:1051C000EA6EEFCFBFFCF250006EF29EBECCAAFF9B
:1051D000BDCCA9FFBFCCA8FFA69CA69EA6840F01AC
:1051E000550EA76EAA0EA76EA682A6B2FED7A694EB
:1051F0000050F21247D03AD00C019C0EB925016E36
:105200000A0EBA21036E7C0EB725E96E010EB82195
:10521000EA6EEFCFBFFC03C0EAFF01C0E9FFBFCCDD
:10522000EFFF5D0EB725BD6F000EB821BE6F7C0E7F
:10523000B725E96E010EB821EA6EEFCFBFFCF25040
:10524000006EF29EBECCAAFFBDCCA9FFBFCCA8FFCA
:10525000A69CA69EA6840F01550EA76EAA0EA76E49
:10526000A682A6B2FED7A6940050F2120C01B8CCCA
:1052700003F0B751B72BD8B4B82BB92BD8B4BA2B8D
:1052800085D70F019C0E0C01B925E96E0A0EBA21D3
:10529000EA6EEF6ABA6BB96BB72BD8B4B82B0400BF
:1052A0007C0EB725E96E010EB821EA6EEF500D08AD
:1052B00005E0BA5303E1B9511E0828E25D0EB72597
:1052C000BD6F000EB821BE6F7C0EB725E96E010ED2
:1052D000B821EA6EEFCFBFFCF250006EF29EBECC5A
:1052E000AAFFBDCCA9FFBFCCA8FFA69CA69EA68402
:1052F0000F01550EA76EAA0EA76EA682A6B2FED704
:10530000A6940050F21247D03AD00C01BC0EB92539
:10531000016E0A0EBA21036E7C0EB725E96E010EEE
:10532000B821EA6EEFCFBFFC03C0EAFF01C0E9FF7E
:10533000BFCCEFFF5D0EB725BD6F000EB821BE6F6D
:105340007C0EB725E96E010EB821EA6EEFCFBFFCE7
:10535000F250006EF29EBECCAAFFBDCCA9FFBFCC1E
:10536000A8FFA69CA69EA6840F01550EA76EAA0EA6
:10537000A76EA682A6B2FED7A6940050F2120C0128
:10538000B8CC03F0B751B72BD8B4B82BB92BD8B4DD
:10539000BA2B85D70F01BC0E0C01B925E96E0A0E98
:1053A000BA21EA6EEF6ABA6BB96BB72BD8B4B82BD7
:1053B00004007C0EB725E96E010EB821EA6EEF50AD
:1053C0000D0805E0BA5303E1B9511E0828E25D0E4D
:1053D000B725BD6F000EB821BE6F7C0EB725E96EF4
:1053E000010EB821EA6EEFCFBFFCF250006EF29EC4
:1053F000BECCAAFFBDCCA9FFBFCCA8FFA69CA69E91
:10540000A6840F01550EA76EAA0EA76EA682A6B29D
:10541000FED7A6940050F21247D03AD00C01DC0E11
:10542000B925016E0A0EBA21036E7C0EB725E96E0E
:10543000010EB821EA6EEFCFBFFC03C0EAFF01C046
:10544000E9FFBFCCEFFF5D0EB725BD6F000EB821A1
:10545000BE6F7C0EB725E96E010EB821EA6EEFCF64
:10546000BFFCF250006EF29EBECCAAFFBDCCA9FFDD
:10547000BFCCA8FFA69CA69EA6840F01550EA76EC2
:10548000AA0EA76EA682A6B2FED7A6940050F2126C
:105490000C01B8CC03F0B751B72BD8B4B82BB92B4B
:1054A000D8B4BA2B85D70F01DC0E0C01B925E96EF3
:1054B0000A0EBA21EA6EEF6ABA6BB96BB72BD8B491
:1054C000B82B04007C0EB725E96E010EB821EA6EF8
:1054D000EF500D0805E0BA5303E1B9511E0828E268
:1054E0005D0EB725BD6F000EB821BE6F7C0EB725CF
:1054F000E96E010EB821EA6EEFCFBFFCF250006EEC
:10550000F29EBECCAAFFBDCCA9FFBFCCA8FFA69C33
:10551000A69EA6840F01550EA76EAA0EA76EA682A0
:10552000A6B2FED7A6940050F21247D03AD00C0192
:10553000FC0EB925016E0A0EBA21036E7C0EB7254A
:10554000E96E010EB821EA6EEFCFBFFC03C0EAFF9F
:1055500001C0E9FFBFCCEFFF5D0EB725BD6F000EA8
:10556000B821BE6F7C0EB725E96E010EB821EA6E38
:10557000EFCFBFFCF250006EF29EBECCAAFFBDCCB6
:10558000A9FFBFCCA8FFA69CA69EA6840F01550E1E
:10559000A76EAA0EA76EA682A6B2FED7A69400504A
:1055A000F2120C01B8CC03F0B751B72BD8B4B82B1A
:1055B000B92BD8B4BA2B85D70F01FC0E0C01B92535
:1055C000E96E0A0EBA21EA6EEF6ABA6BB96BB72BB5
:1055D000D8B4B82B04007C0EB725E96E010EB821B3
:1055E000EA6EEF500D0805E0BA5303E1B9511E0809
:1055F00028E25D0EB725BD6F000EB821BE6F7C0E90
:10560000B725E96E010EB821EA6EEFCFBFFCF2506C
:10561000006EF29EBECCAAFFBDCCA9FFBFCCA8FFF6
:10562000A69CA69EA6840F01550EA76EAA0EA76E75
:10563000A682A6B2FED7A6940050F21247D03AD066
:105640000C011C0EB925016E0B0EBA21036E7C0EE7
:10565000B725E96E010EB821EA6EEFCFBFFC03C09B
:10566000EAFF01C0E9FFBFCCEFFF5D0EB725BD6FBC
:10567000000EB821BE6F7C0EB725E96E010EB82171
:10568000EA6EEFCFBFFCF250006EF29EBECCAAFFD6
:10569000BDCCA9FFBFCCA8FFA69CA69EA6840F01E7
:1056A000550EA76EAA0EA76EA682A6B2FED7A69426
:1056B0000050F2120C01B8CC03F0B751B72BD8B49C
:1056C000B82BB92BD8B4BA2B85D70F011C0E0C01FF
:1056D000B925E96E0B0EBA21EA6EEF6ABA6BB96BA7
:1056E000B72BD8B4B82B04007C0EB725E96E010E99
:1056F000B821EA6EEF500D0805E0BA5303E1B95145
:105700001E0828E25D0EB725BD6F000EB821BE6FE2
:105710007C0EB725E96E010EB821EA6EEFCFBFFC13
:10572000F250006EF29EBECCAAFFBDCCA9FFBFCC4A
:10573000A8FFA69CA69EA6840F01550EA76EAA0ED2
:10574000A76EA682A6B2FED7A6940050F21247D04A
:105750003AD00C013C0EB925016E0B0EBA21036E36
:105760007C0EB725E96E010EB821EA6EEFCFBFFCC3
:1057700003C0EAFF01C0E9FFBFCCEFFF5D0EB72514
:10578000BD6F000EB821BE6F7C0EB725E96E010E0D
:10579000B821EA6EEFCFBFFCF250006EF29EBECC95
:1057A000AAFFBDCCA9FFBFCCA8FFA69CA69EA6843D
:1057B0000F01550EA76EAA0EA76EA682A6B2FED73F
:1057C000A6940050F2120C01B8CC03F0B751B72BDD
:1057D000D8B4B82BB92BD8B4BA2B85D70F013C0E4F
:1057E0000C01B925E96E0B0EBA21EA6EEF6ABA6BAD
:1057F000B96BB72BD8B4B82B04007C0EB725E96E73
:10580000010EB821EA6EEF500D0805E0BA5303E12E
:10581000B9511E0828E25D0EB725BD6F000EB821F4
:10582000BE6F7C0EB725E96E010EB821EA6EEFCF90
:10583000BFFCF250006EF29EBECCAAFFBDCCA9FF09
:10584000BFCCA8FFA69CA69EA6840F01550EA76EEE
:10585000AA0EA76EA682A6B2FED7A6940050F21298
:1058600047D03AD00C015C0EB925016E0B0EBA215F
:10587000036E7C0EB725E96E010EB821EA6EEFCFFC
:10588000BFFC03C0EAFF01C0E9FFBFCCEFFF5D0E24
:10589000B725BD6F000EB821BE6F7C0EB725E96E2F
:1058A000010EB821EA6EEFCFBFFCF250006EF29EFF
:1058B000BECCAAFFBDCCA9FFBFCCA8FFA69CA69ECC
:1058C000A6840F01550EA76EAA0EA76EA682A6B2D9
:1058D000FED7A6940050F2120C01B8CC03F0B751D9
:1058E000B72BD8B4B82BB92BD8B4BA2B85D70F01A6
:1058F0005C0E0C01B925E96E0B0EBA21EA6EEF6A57
:10590000BA6BB96BB72BD8B4B82B04007C0EB72593
:10591000E96E010EB821EA6EEF500D0805E0BA53AA
:1059200003E1B9511E0828E25D0EB725BD6F000ED8
:10593000B821BE6F7C0EB725E96E010EB821EA6E64
:10594000EFCFBFFCF250006EF29EBECCAAFFBDCCE2
:10595000A9FFBFCCA8FFA69CA69EA6840F01550E4A
:10596000A76EAA0EA76EA682A6B2FED7A694005076
:10597000F21247D03AD00C017C0EB925016E0B0E05
:10598000BA21036E7C0EB725E96E010EB821EA6ECE
:10599000EFCFBFFC03C0EAFF01C0E9FFBFCCEFFFC0
:1059A0005D0EB725BD6F000EB821BE6F7C0EB7250A
:1059B000E96E010EB821EA6EEFCFBFFCF250006E27
:1059C000F29EBECCAAFFBDCCA9FFBFCCA8FFA69C6F
:1059D000A69EA6840F01550EA76EAA0EA76EA682DC
:1059E000A6B2FED7A6940050F2120C01B8CC03F078
:1059F000B751B72BD8B4B82BB92BD8B4BA2B85D79D
:105A00000F017C0E0C01B925E96E0B0EBA21EA6E6E
:105A1000EF6A7BC07DF0220E00017E6F0C01BF6B30
:105A20007D0EBE6F020EC06F000101EC15F07DC54A
:105A30007FF07CC580F08A8693960A0E0C01BD6FBC
:105A400000012CEC03F07D512CEC15F07E512CEC78
:105A500015F07F512CEC15F080512CEC15F0030E55
:105A60000C01BD6F00012CEC03F08A9693960501A2
:105A700001017D51030846E14CC085F54BC086F518
:105A80007BC07DF0030E00017E6F020E7F6F85C527
:105A900080F086C581F00C01BF6B7D0EBE6F050ED8
:105AA000C06F000101EC15F07DC582F07CC583F06C
:105AB0008A8693960400040E0C01BD6F00012CEC45
:105AC00003F004007D512CEC15F07E512CEC15F008
:105AD0007F512CEC15F080512CEC15F081512CEC01
