:0400000084EF31F068
:08000800046ED8CF05F0E0CF33
:1000100006F00001E9CF0CF0EACF07F0E1CF08F0DD
:10002000E2CF09F0D9CF0AF0DACF0BF0F3CF12F01C
:10003000F4CF13F0FACF14F0F5CF15F0F6CF16F099
:10004000F7CF17F000C00EF001C00FF002C010F0A3
:1000500003C011F09DA230EF00F09EB290EF02F0CD
:100060009DAA36EF00F09EBA88EF02F00EC000F0B5
:100070000FC001F010C002F011C003F00CC0E9FF86
:1000800007C0EAFF078E08C0E1FF09C0E2FF0AC00F
:10009000D9FF0BC0DAFF12C0F3FF13C0F4FF14C086
:1000A000FAFF15C0F5FF16C0F6FF17C0F7FF0450A2
:1000B00006C0E0FF05C0D8FF1000F76ACA0FF66E51
:1000C000000EF7220900F550120000C1814001C066
:1000D000804101C0804100C1814001C0804100C118
:1000E000814000C1814001C0804101C0804100C108
:1000F000814000C1814001C0804100C1814001C0F8
:10010000804101C0804100C1814001C0804100C1E7
:10011000814000C1814001C0804100C1814001C0D7
:10012000804101C0804100C1814000C1814001C0C7
:10013000804101C0804100C1814001C0804100C1B7
:10014000814000C1814001C0804101C0804100C1A7
:10015000814000C1814001C0804100C1814001C097
:10016000804101C0804100C1814000C1814001C087
:10017000804101C0804100C1814001C0804100C177
:10018000814000C1814001C0804100C1814001C067
:10019000804101C0804100C1814001C0804100C157
:1001A000814000C1814001C0804101C0804100C147
:1001B000814000C1814001C0804100C1814001C037
:1001C000804101C0804100C18140F76ADA0FF66EBC
:1001D000010EF7220900F550120000C0C101C3034F
:1001E00002C2C60607C705C5C404CC0C0DCD0FCF8F
:1001F000CE0E0ACACB0BC90908C8D81819D91BDBFF
:10020000DA1A1EDEDF1FDD1D1CDC14D4D515D7174E
:1002100016D6D21213D311D1D010F03031F133F3FE
:10022000F23236F6F737F53534F43CFCFD3DFF3F4E
:100230003EFEFA3A3BFB39F9F83828E8E929EB2B7E
:100240002AEAEE2E2FEF2DEDEC2CE42425E527E70E
:10025000E62622E2E323E12120E0A06061A163A37E
:10026000A26266A6A767A56564A46CACAD6DAF6F0E
:100270006EAEAA6A6BAB69A9A86878B8B979BB7B7E
:100280007ABABE7E7FBF7DBDBC7CB47475B577B7CE
:10029000B67672B2B373B17170B0509091519353FE
:1002A000529296565797559594549C5C5D9D5F9FCE
:1002B0009E5E5A9A9B5B99595898884849894B8BFE
:1002C0008A4A4E8E8F4F8D4D4C8C4484854587478E
:1002D0004686824243834181804004006F51775DAE
:1002E00013E1796B036A7951B60FE96E000E0320B2
:1002F000EA6E2EC0EFFF0400792B100E776F140EFC
:100300000101166F02D10001775110084AE1036A1A
:100310007951B60FE96E000E0320EA6E2EC0EFFF92
:100320000400792B010E795D036AB60FE96E000EA9
:100330000320EA6EEF50160807E370C077F0140E42
:100340000101166F2CD00001010E795D036AB60F12
:10035000E96E000E0320EA6EEF50200807E173C03B
:1003600077F0140E0101166F1AD00001010E795DAD
:10037000036AB60FE96E000E0320EA6EEF50210803
:1003800007E175C077F0140E0101166F08D0000167
:10039000796B6FC077F00101166B8A969396B5D092
:1003A00000017551775D1CE1036A7951B60FE96E62
:1003B000000E0320EA6E2EC0EFFF0400792B010E21
:1003C000795D036AB60FE96E000E0320EA6EEFCF87
:1003D00017F1140E0101166F76C077F096D0000168
:1003E0007651775D15E1036A7951B60FE96E000E1B
:1003F0000320EA6E2EC0EFFF0400792B01011707DE
:10040000175302E173C077F0140E166F7ED000010F
:100410007051775D12E1036A7951B60FE96E000EF3
:100420000320EA6E2EC0EFFF0400792B71C077F035
:10043000140E0101166F69D000017151775D12E150
:10044000036A7951B60FE96E000E0320EA6E2EC0E2
:10045000EFFF0400792B72C077F0140E0101166FC4
:1004600054D000017251775D12E1036A7951B60FE1
:10047000E96E000E0320EA6E2EC0EFFF0400792B18
:10048000150E776F140E0101166F3FD000017751E2
:10049000150812E1036A7951B60FE96E000E0320C8
:1004A000EA6E2EC0EFFF0400792B73C077F0140EB4
:1004B0000101166F2AD000017351775D12E1036AC2
:1004C0007951B60FE96E000E0320EA6E2EC0EFFFE1
:1004D0000400792B74C077F0140E0101166F15D04B
:1004E00000017451775D11E1036A7951B60FE96E2D
:1004F000000E0320EA6E2EC0EFFF04006FC077F0FD
:100500000101166B30888A96939600018DEF02F0F8
:100510009EAAFED7AECF2EF0E0D69E9A36EF00F020
:10052000192A0101165307E01607165304E16FC09C
:1005300077F08A9693961C520CE01C061C5209E137
:100540001D5204E01D061D5201E11A843086640E1E
:100550001C6E1950320814E1196A1AB004D01A80BE
:100560008A8A939A03D01A908A9A939A1AAC07D0DF
:100570002F5201E02F062F5201E11A8A01D02F6A73
:100580001B5213E01B061B520AE1186930B205D05A
:100590001AA202D01A9201D01A826CC01BF03152FA
:1005A00004E03106315201E130929E92000136EFB3
:1005B00000F0010EEA6EC60EE96EEF5011E0050E76
:1005C000016EBF0E006E0400002EFDD7012EF9D77C
:1005D0002E0E006E002EFED700000400EF2EEFD787
:1005E0001200929A899A0101C8514009CB6FC950F3
:1005F000CBC1C9FFC730FEE3C950C9C1C9FFC7306D
:10060000FEE3C950CAC1C9FFC730FEE3929A898A86
:1006100000011200929A898A929A0101C86B0A0E0F
:10062000C96FAA0ECA6F0001DCDF020E0101C86F9C
:100630000A0EC96FAA0ECA6F0001D3DF040E0101B2
:10064000C86F0A0EC96FAA0ECA6F0001CADF060E74
:100650000101C86F0A0EC96FAA0ECA6F0001C1DF7F
:10066000080E0101C86F0A0EC96FAA0ECA6F0001F9
:10067000B8DF0A0E0101C86FC96FAA0ECA6F000168
:10068000B0DF0C0E0101C86F0A0EC96FAA0ECA6F47
:100690000001A7DF0E0E0101C86F0A0EC96FAA0E76
:1006A000CA6F00019EDFECEF31F0BEC1C8F101015D
:1006B000C96BBFC1CAF1000194DF1200BEC1C8F10D
:1006C000100E0101C96FBFC1CAF100018ADF12001B
:1006D000F2CFBEF1F29EAA6A010EA96EA69CA69E5A
:1006E000A680A8500101BEBFF28E396E39C03AF023
:1006F0001F9139B01F81D89039301F93E8B01F8304
:100700003930006E00323F0E00161F9500B01F8575
:100710003930006E003200321F0E00161F9700B0F5
:100720001F873938006E0F0E00161F9900B01F8901
:100730003938006E0032070E00161F9B00B01F8B69
:100740003938006E00320032030E00161F9D00B0D3
:100750001F8D006A39BE00801F9F00B01F8FF2CF2F
:10076000BEF1F29EAA6A020EA96EA69CA69EA68063
:10077000A850BEBFF28E396E39C03BF0209139B01F
:100780002081D89039302093E8B020833930006E32
:1007900000323F0E0016209500B020853930006EE3
:1007A000003200321F0E0016209700B02087393823
:1007B000006E0F0E0016209900B020893938006EA7
:1007C0000032070E0016209B00B0208B3938006ED7
:1007D00000320032030E0016209D00B0208D006A0A
:1007E00039BE0080209F00B0208FB7931FB1B78320
:1007F000B7951FB3B785B7971FB5B787B7991FB719
:10080000B789B79B1FB9B78BB79D1FBBB78DB79F74
:100810001FBDB78FB8911FBFB881B89320B1B883FF
:10082000B89520B3B885B89720B5B887B89920B7E0
:10083000B889B89B20B9B88BB89D20BBB88DB89F3C
:1008400020BDB88FB99120BFB981F2CFBEF1F29E21
:10085000AA6A040EA96EA69CA69EA680A850BEBF3A
:10086000F28E396E39C03DF0219139B02181D89096
:1008700039302193E8B021833930006E00323F0EC9
:100880000016219500B021853930006E003200320B
:100890001F0E0016219700B021873938006E0F0E09
:1008A0000016219900B021893938006E0032070EF8
:1008B0000016219B00B0218B3938006E00320032C7
:1008C000030E0016219D00B0218D006A39BE008004
:1008D000219F00B0218FF2CFBEF1F29EAA6A050ED1
:1008E000A96EA69CA69EA680A850BEBFF28E396EA9
:1008F00039C03EF0229139B02281D890393022930C
:10090000E8B022833930006E00323F0E0016229587
:1009100000B022853930006E003200321F0E001602
:10092000229700B022873938006E0F0E00162299E8
:1009300000B022893938006E0032070E0016229B63
:1009400000B0228B3938006E00320032030E0016E0
:10095000229D00B0228D006A39BE0080229F00B027
:10096000228FF2CFBEF1F29EAA6A070EA96EA69C54
:10097000A69EA680A850BEBFF28E396E39C040F048
:10098000239139B02381D89039302393E8B0238361
:100990003930006E00323F0E0016239500B02385DB
:1009A0003930006E003200321F0E0016239700B05F
:1009B00023873938006E0F0E0016239900B0238963
:1009C0003938006E0032070E0016239B00B0238BCF
:1009D0003938006E00320032030E0016239D00B03D
:1009E000238D006A39BE0080239F00B0238FF2CF91
:1009F000BEF1F29EAA6A080EA96EA69CA69EA680CB
:100A0000A850BEBFF28E396E39C041F0249139B082
:100A10002481D89039302493E8B024833930006E93
:100A200000323F0E0016249500B024853930006E48
:100A3000003200321F0E0016249700B02487393888
:100A4000006E0F0E0016249900B024893938006E0C
:100A50000032070E0016249B00B0248B3938006E3C
:100A600000320032030E0016249D00B0248D006A6F
:100A700039BE0080249F00B0248FF2CFBEF1F29ED9
:100A8000AA6A0A0EA96EA69CA69EA680A850BEBF02
:100A9000F28E396E39C043F0259139B02581D89056
:100AA00039302593E8B025833930006E00323F0E8F
:100AB0000016259500B025853930006E00320032D1
:100AC0001F0E0016259700B025873938006E0F0ECF
:100AD0000016259900B025893938006E0032070EBE
:100AE0000016259B00B0258B3938006E003200328D
:100AF000030E0016259D00B0258D006A39BE0080CA
:100B0000259F00B0258FF2CFBEF1F29EAA6A0B0E90
:100B1000A96EA69CA69EA680A850BEBFF28E396E76
:100B200039C044F0269139B02681D89039302693C7
:100B3000E8B026833930006E00323F0E001626954D
:100B400000B026853930006E003200321F0E0016CC
:100B5000269700B026873938006E0F0E00162699AA
:100B600000B026893938006E0032070E0016269B29
:100B700000B0268B3938006E00320032030E0016AA
:100B8000269D00B0268D006A39BE0080269F00B0E9
:100B9000268FF2CFBEF1F29EAA6A0D0EA96EA69C18
:100BA000A69EA680A850BEBFF28E396E39C046F010
:100BB000279139B02781D89039302793E8B027831F
:100BC0003930006E00323F0E0016279500B02785A1
:100BD0003930006E003200321F0E0016279700B029
:100BE00027873938006E0F0E0016279900B0278925
:100BF0003938006E0032070E0016279B00B0278B95
:100C00003938006E00320032030E0016279D00B006
:100C1000278D006A39BE0080279F00B0278FF2CF52
:100C2000BEF1F29EAA6A0E0EA96EA69CA69EA68092
:100C3000A850BEBFF28E396E39C047F0289139B046
:100C40002881D89039302893E8B028833930006E55
:100C500000323F0E0016289500B028853930006E0E
:100C6000003200321F0E0016289700B0288739384E
:100C7000006E0F0E0016289900B028893938006ED2
:100C80000032070E0016289B00B0288B3938006E02
:100C900000320032030E0016289D00B0288D006A35
:100CA00039BE0080289F00B0288FF2CFBEF1F29E9F
:100CB000AA6A100EA96EA69CA69EA680A850BEBFCA
:100CC000F28E396E339139B03381D8903930339305
:100CD000E8B033833930006E00323F0E0016339592
:100CE00000B033853930006E003200321F0E00161E
:100CF000339700B033873938006E0F0E00163399E2
:100D000000B033893938006E0032070E0016339B6D
:100D100000B0338B3938006E00320032030E0016FB
:100D2000339D00B0338D006A39BE0080339F00B020
:100D3000338FF2CFBEF1F29EAA6A110EA96EA69C65
:100D4000A69EA680A850BEBFF28E396E349139B0EF
:100D50003481D89039303493E8B03483F2CFBEF187
:100D6000F29EAA6A120EA96EA69CA69EA680A85004
:100D7000BEBFF28E396E349539B03485D890393093
:100D80003497E8B034873930006E00323F0E0016D9
:100D9000349900B034893930006E003200321F0EB1
:100DA0000016349B00B0348B3938006E0F0E0016DD
:100DB000349D00B0348D3938006E0032070E0016B5
:100DC000349F00B0348FF2CFBEF1F29EAA6A140EA7
:100DD000A96EA69CA69EA680A850BEBFF28E396EB4
:100DE000359139B03581D89039303593E8B03583B5
:100DF0003930006E00323F0E0016359500B0358553
:100E00003930006E003200321F0E0016359700B0E8
:100E100035873938006E0F0E0016359900B03589C8
:100E20003938006E0032070E0016359B00B0358B46
:100E30003938006E00320032030E0016359D00B0C6
:100E4000358D006A39BE0080359F00B0358FF2CFF6
:100E5000BEF1F29EAA6A150EA96EA69CA69EA68059
:100E6000A850BEBFF28E396E369139B03681D89017
:100E700039303693E8B03683F2CFBEF1F29EAA6ADB
:100E8000160EA96EA69CA69EA680A850BEBFF28E86
:100E9000396E369539B03685D89039303697E8B006
:100EA00036873930006E00323F0E0016369900B09A
:100EB00036893930006E003200321F0E0016369B24
:100EC00000B0368B3938006E0F0E0016369D00B01C
:100ED000368D3938006E0032070E0016369F00B08E
:100EE000368FF2CFBEF1F29EAA6A180EA96EA69CAA
:100EF000A69EA680A850BEBFF28E00016A6FF2CFF8
:100F0000BEF1F29EAA6A190EA96EA69CA69EA680A4
:100F1000A8500101BEBFF28E00016B6FF2CFBEF18F
:100F2000F29EAA6A1A0EA96EA69CA69EA680A8503A
:100F30000101BEBFF28E00016C6FF2CFBEF1F29ED6
:100F4000AA6A1B0EA96EA69CA69EA680A8500101A7
:100F5000BEBFF28E00016D6FF2CFBEF1F29EAA6AA3
:100F60001C0EA96EA69CA69EA680A8500101BEBF1D
:100F7000F28E7C6B7B6FF2CFBEF1F29EAA6A1D0EE1
:100F8000A96EA69CA69EA680A850BEBFF28E0001A8
:100F9000786FF2CFBEF1F29EAA6A1E0EA96EA69CD1
:100FA000A69EA680A8500101BEBFF28E7E6B7D6F0B
:100FB000F2CFBEF1F29EAA6A1F0EA96EA69CA69E53
:100FC000A680A850BEBFF28E806B7F6FF2CFBEF1BD
:100FD000F29EAA6A200EA96EA69CA69EA680A85084
:100FE000BEBFF28E826B816FF2CFBEF1F29EAA6A13
:100FF000210EA96EA69CA69EA680A850BEBFF28E0A
:10100000846B836FF2CFBEF1F29EAA6A220EA96EA4
:10101000A69CA69EA680A850BEBFF28E866B856F4A
:10102000F2CFBEF1F29EAA6A230EA96EA69CA69EDE
:10103000A680A850BEBFF28E886B876FF2CFBEF13C
:10104000F29EAA6A240EA96EA69CA69EA680A8500F
:10105000BEBFF28E8A6B896FF2CFBEF1F29EAA6A92
:10106000250EA96EA69CA69EA680A850BEBFF28E95
:101070008C6B8B6FF2CFBEF1F29EAA6A260EA96E20
:10108000A69CA69EA680A850BEBFF28E8E6B8D6FCA
:10109000F2CFBEF1F29EAA6A270EA96EA69CA69E6A
:1010A000A680A850BEBFF28E906B8F6FF2CFBEF1BC
:1010B000F29EAA6A280EA96EA69CA69EA680A8509B
:1010C000BEBFF28E926B916FF2CFBEF1F29EAA6A12
:1010D000290EA96EA69CA69EA680A850BEBFF28E21
:1010E000946B936FF2CFBEF1F29EAA6A2A0EA96E9C
:1010F000A69CA69EA680A850BEBFF28E966B956F4A
:10110000F2CFBEF1F29EAA6A2B0EA96EA69CA69EF5
:10111000A680A850BEBFF28E986B976FF2CFBEF13B
:10112000F29EAA6A2C0EA96EA69CA69EA680A85026
:10113000BEBFF28E9A6B996FF2CFBEF1F29EAA6A91
:101140002D0EA96EA69CA69EA680A850BEBFF28EAC
:101150009C6B9B6FF2CFBEF1F29EAA6A2E0EA96E17
:10116000A69CA69EA680A850BEBFF28E9E6B9D6FC9
:10117000F2CFBEF1F29EAA6A2F0EA96EA69CA69E81
:10118000A680A850BEBFF28EA06B9F6FF2CFBEF1BB
:10119000F29EAA6A300EA96EA69CA69EA680A850B2
:1011A000BEBFF28EA26BA16FF2CFBEF1F29EAA6A11
:1011B000310EA96EA69CA69EA680A850BEBFF28E38
:1011C000A46BA36F0001B6EF32F0929A899A0101E5
:1011D000C5514109C86FC950C8C1C9FFC730FEE336
:1011E000C950C6C1C9FFC730FEE3C950C96AC7307C
:1011F000FEE3C9CFC7F1929A898AC7C101F0000105
:101200001200C3C1C5F1090E0101C66F0001DDDF87
:1012100001C0C4F10101C4C101F000011200C3C149
:10122000C5F1190E0101C66F0001CFDF01C0C4F185
:101230000101C4C101F0000112000101C651070BF8
:10124000006EC631016E013201321F0E01160150CF
:10125000C725E96E000EC821EA6EEFCF01F0002A23
:1012600001D00132002EFDD7010E0116000112003F
:101270000101C751C903F3CF01F0F4CF00F0CA0355
:10128000F3500026C851C903F3500020026E00013C
:1012900012000101C651070B006EC631016E01320A
:1012A00001321F0E01160150C825E96E000EC9213A
:1012B000EA6E016A012A002A01D00136002EFDD70C
:1012C000C75303E00150EF1203D0011E0150EF1687
:1012D000000112000101C36B010EC36FC3BF03D035
:1012E000C351100823E3036AC351006EE8BE03062E
:1012F000C46F03C0C5F1036AC351006EE8BE0306A4
:10130000C66F010EC86F3B0EC76F000196DFC4C1E8
:10131000C6F10101C76B01B0C72B010EC96F370EB3
:10132000C86F0001B6DF0101C32BD8D70001F2EF6F
:101330000CF0020E0101C36F000163DF01C014F164
:101340001AA803D00101141F0001D8900101143123
:101350003B93E8B03B831431006E00323F0E001621
:101360003B9500B03B851431006E003200321F0EF9
:1013700000163B9700B03B871439006E0F0E001625
:101380003B9900B03B891439006E0032070E0016FD
:101390003B9B00B03B8B1439006E00320032030ED1
:1013A00000163B9D00B03B8D006A14BF00803B9F40
:1013B00000B03B8F020EC36F000131DF01C014F19A
:1013C0001AA803D00101141F000101013C9114B1BE
:1013D0003C81C36B000115DF01C014F11AA803D0D2
:1013E0000101141F0001D890010114313C93E8B0B1
:1013F0003C831431006E00323F0E00163C9500B065
:101400003C851431006E003200321F0E00163C97EE
:1014100000B03C871439006E0F0E00163C9900B0E6
:101420003C891439006E0032070E00163C9B00B058
:101430003C8B1439006E00320032030E00163C9DC6
:1014400000B03C8D006A14BF00803C9F00B03C8F10
:10145000C36B0001E4DE01C014F11AA803D001013E
:10146000141F000101013D9114B13D81010EC26FB5
:10147000C2511008D8A0B4D2C2C1C6F1010EC86FC3
:10148000B70EC76F0001D9DE0150010B0108D8A4C7
:101490004BD1C2C1C6F1010E0101C86F3B0EC76F2F
:1014A0000001CBDE0150010BD8A49FD0C2C1C6F110
:1014B000010E0101C86F370EC76F0001BEDE01507B
:1014C000010BD8A484D0D8900101C235036A3F0F24
:1014D000E96E010E0320EA6E010EEE2601E3EF2A0B
:1014E000D890C235036A3F0FE96E010E0320EA6E01
:1014F000ECCFC4F1ED52EFCFC3F1D890C235036AFF
:101500007B0FE96E010E0320EA6EECCFC8F1ED52BD
:10151000EFCFC7F1CA6B4B0EC96F0001A9DE02C045
:10152000C6F101C0C5F10F0E01010124016E000ECC
:101530000220036E0350C45D48E303E10150C35D24
:1015400044E3D890C235036A3F0FE96E010E0320D1
:10155000EA6EEC6AED52EF6A010EC25DF00F35E201
:10156000100F0001ACEF0DF001011B912ED0010115
:101570001B932BD001011B9528D001011B9725D06F
:1015800001011B9922D001011B9B1FD001011B9D52
:101590001CD001011B9F19D001011C9116D0010123
:1015A0001C9313D001011C9510D001011C970DD084
:1015B00001011C990AD001011C9B07D001011C9D4F
:1015C00004D001011C9F01D001010DD00001D89071
:1015D0000101C235036A3F0FE96E010E0320EA6E76
:1015E000EC6AED52EF6A9FD00001C2C1C6F1010E54
:1015F0000101C86F370EC76F00011FDE0150010BDC
:101600000108D8A484D0D8900101C235036A3F0FE5
:10161000E96E010E0320EA6E010EEE2601E3EF2AC9
:10162000D890C235036A3F0FE96E010E0320EA6EBF
:10163000ECCFC4F1ED52EFCFC3F1D890C235036ABD
:101640007B0FE96E010E0320EA6EECCFC8F1ED527C
:10165000EFCFC7F1CA6B4B0EC96F000109DE02C0A4
:10166000C6F101C0C5F10F0E01010124016E000E8B
:101670000220036E0350C45D48E303E10150C35DE3
:1016800044E3D890C235036A3F0FE96E010E032090
:10169000EA6EEC6AED52010EEF6EC25DF00F35E2BC
:1016A000100F0001C9EF0DF001011B812ED00101C7
:1016B0001B832BD001011B8528D001011B8725D05E
:1016C00001011B8922D001011B8B1FD001011B8D41
:1016D0001CD001011B8F19D001011C8116D0010102
:1016E0001C8313D001011C8510D001011C870DD073
:1016F00001011C890AD001011C8B07D001011C8D3E
:1017000004D001011C8F01D001010DD00001D8903F
:101710000101C235036A3F0FE96E010E0320EA6E34
:10172000EC6AED52EF6A58D1C2C1C6F1010E010157
:10173000C86FB70EC76F000180DD0150010BD8A440
:101740004CD1C2C1C6F1010E0101C86F3B0EC76F7B
:10175000000173DD0150010B0108D8A4A0D0C2C163
:10176000C6F1010E0101C86F370EC76F000165DDBC
:101770000150010B0108D8A484D0D8900101C235D2
:10178000036A3F0FE96E010E0320EA6E010EEE269A
:1017900001E3EF2AD890C235036A3F0FE96E010ECC
:1017A0000320EA6EECCFC4F1ED52EFCFC3F1D89035
:1017B000C235036A7B0FE96E010E0320EA6EECCF9F
:1017C000C8F1ED52EFCFC7F1CA6B4B0EC96F0001E4
:1017D0004FDD02C0C6F101C0C5F10F0E01010124A9
:1017E000016E000E0220036E0350C45D48E303E166
:1017F0000150C35D44E3D890C235036A3F0FE96EE0
:10180000010E0320EA6EEC6AED52EF6A010EC25D32
:10181000F00F35E2100F0001E6EF0DF001011B8122
:101820002ED001011B832BD001011B8528D0010183
:101830001B8725D001011B8922D001011B8B1FD0E2
:1018400001011B8D1CD001011B8F19D001011C81CE
:1018500016D001011C8313D001011C8510D0010199
:101860001C870DD001011C890AD001011C8B07D0F7
:1018700001011C8D04D001011C8F01D001010DD08C
:101880000001D8900101C235036A3F0FE96E010ED5
:101890000320EA6EEC6AED52EF6A9ED00001C2C1ED
:1018A000C6F1010E0101C86F370EC76F0001C5DC1C
:1018B0000150010BD8A484D0D8900101C235036A2D
:1018C0003F0FE96E010E0320EA6E010EEE2601E3E2
:1018D000EF2AD890C235036A3F0FE96E010E03204C
:1018E000EA6EECCFC4F1ED52EFCFC3F1D890C23520
:1018F000036A7B0FE96E010E0320EA6EECCFC8F19C
:10190000ED52EFCFC7F1CA6B4B0EC96F0001B0DCCF
:1019100002C0C6F101C0C5F10F0E01010124016E24
:10192000000E0220036E0350C45D48E303E1015042
:10193000C35D44E3D890C235036A3F0FE96E010EE0
:101940000320EA6EEC6AED52EF6A010EC25DF00F01
:1019500035E2100F000103EF0EF001011B912ED0B4
:1019600001011B932BD001011B9528D001011B976E
:1019700025D001011B9922D001011B9B1FD0010121
:101980001B9D1CD001011B9F19D001011C9116D079
:1019900001011C9313D001011C9510D001011C976B
:1019A0000DD001011C990AD001011C9B07D0010137
:1019B0001C9D04D001011C9F01D001010DD000012C
:1019C000D8900101C235036A3F0FE96E010E032072
:1019D000EA6EEC6AED52EF6A00010101C22B48D5B4
:1019E000000178D44C6A000E01011CAF010E4C12AC
:1019F000D8904C34C36F000E1CAF010EC3114C6E57
:101A0000D8904C34C36F000E1CAF010EC3114C6E46
:101A1000D8904C34C36F000E1CAD010EC3114C6E38
:101A2000D8904C34C36F000E1CAB010EC3114C6E2A
:101A3000D8904C34C36F000E1CA9010EC3114C6E1C
:101A4000D8904C34C36F000E1CA7010EC3114C6E0E
:101A5000D8904C34C36F000E1CA5010EC3114C6E00
:101A6000496A000E1BAF010E4912D8904934C36F6A
:101A7000000E1BAD010EC311496ED8904934C36FDF
:101A8000000E1BAB010EC311496ED8904934C36FD1
:101A9000000E1BA9010EC311496ED8904934C36FC3
:101AA000000E1BA7010EC311496ED8904934C36FB5
:101AB000000E1BA5010EC311496ED8904934C36FA7
:101AC000000E1BA3010EC311496ED8904934C36F99
:101AD000000E1BA1010EC311496E4A6A000E1CAF15
:101AE000010E4A12D8904A34C36F000E1CAD010E8D
:101AF000C3114A6ED8904A34C36F000E1CAB010E5E
:101B0000C3114A6ED8904A34C36F000E1CA9010E4F
:101B1000C3114A6ED8904A34C36F000E1CA7010E41
:101B2000C3114A6ED8904A34C36F000E1CA5010E33
:101B3000C3114A6ED8904A34C36F000E1CA3010E25
:101B4000C3114A6ED8904A34C36F000E1CA1010E17
:101B5000C3114A6E00011200E824F76AF736730FCA
:101B6000F66E1B0EF7220A00F550FA6E0800F550CB
:101B7000F96E68156E1574157A15801586158C1515
:101B8000921598159E15A415AA15B015B615BC1575
:101B9000C215E824F76AF736AD0FF66E1B0EF72272
:101BA0000A00F550FA6E0800F550F96EA816AE1648
:101BB000B416BA16C016C616CC16D216D816DE162D
:101BC000E416EA16F016F616FC160217E824F76A71
:101BD000F736E70FF66E1B0EF7220A00F550FA6E85
:101BE0000800F550F96E1C18221828182E18341801
:101BF0003A18401846184C18521858185E186418AD
:101C00006A1870187618E824F76AF736210FF66E0E
:101C10001C0EF7220A00F550FA6E0800F550F96E16
:101C20005A19601966196C19721978197E19841974
:101C30008A19901996199C19A219A819AE19B419E4
:101C4000C6C1C8F10A0E0101C96FC7C1CAF10001BE
:101C5000F1EC02F01200C6C1C8F11A0E0101C96F01
:101C6000C7C1CAF10001F1EC02F012004E6A4F6ADE
:101C7000506A516A526A536A546A556A2F52D8A4FC
:101C8000C8D101011DA103D04E92529214D033A1AC
:101C900005D035B103D04E8252920DD033B105D06C
:101CA00035A103D04E92528206D033A104D035A183
:101CB00002D04E8252821DA303D04E94529414D06F
:101CC00033A305D035B303D04E8452940DD033B333
:101CD00005D035A303D04E94528406D033A304D04C
:101CE00035A302D04E8452841DA503D04E96529641
:101CF00014D033A505D035B503D04E8652960DD0FD
:101D000033B505D035A503D04E96528606D033A5FF
:101D100004D035A502D04E8652861DA703D04E981A
:101D2000529814D033A705D035B703D04E885298B7
:101D30000DD033B705D035A703D04E98528806D0C2
:101D400033A704D035A702D04E8852881DA903D0EE
:101D50004E9A529A14D033A905D035B903D04E8A81
:101D6000529A0DD033B905D035A903D04E9A528A74
:101D700006D033A904D035A902D04E8A528A1DABB1
:101D800003D04E9C529C14D033AB05D035BB03D04E
:101D90004E8C529C0DD033BB05D035AB03D04E9C3E
:101DA000528C06D033AB04D035AB02D04E8C528C63
:101DB0001DAD03D04E9E529E14D033AD05D035BD1F
:101DC00003D04E8E529E0DD033BD05D035AD03D01D
:101DD0004E9E528E06D033AD04D035AD02D04E8E1D
:101DE000528E1DAF03D04F90539014D033AF05D017
:101DF00035BF03D04F8053900DD033BF05D035AFE2
:101E000003D04F90538006D033AF04D035AF02D00B
:101E10004F8053801EA103D05092549214D034A10D
:101E200005D036B103D0508254920DD034B105D0D4
:101E300036A103D05092548206D034A104D036A1EA
:101E400002D0508254821EA303D05094549414D0D4
:101E500034A305D036B303D0508454940DD034B39A
:101E600005D036A303D05094548406D034A304D0B4
:101E700036A302D0508454841EA503D050965496A5
:101E800014D034A505D036B503D0508654960DD065
:101E900034B505D036A503D05096548606D034A567
:101EA00004D036A502D0508654861EA703D0509881
:101EB000549814D034A705D036B703D0508854981E
:101EC0000DD034B705D036A703D05098548806D02B
:101ED00034A704D036A702D0508854881EA903D056
:101EE000509A549A14D034A905D036B903D0508AE8
:101EF000549A0DD034B905D036A903D0509A548ADB
:101F000006D034A904D036A902D0508A548A1EAB18
:101F100003D0509C549C14D034AB05D036BB03D0B6
:101F2000508C549C0DD034BB05D036AB03D0509CA4
:101F3000548C06D034AB04D036AB02D0508C548CC9
:101F40001EAD03D0509E549E14D034AD05D036BD86
:101F500003D0508E549E0DD034BD05D036AD03D085
:101F6000509E548E06D034AD04D036AD02D0508E83
:101F7000548E1EAF03D05190559014D034AF05D07D
:101F800036BF03D0518055900DD034BF05D036AF49
:101F900003D05190558006D034AF04D036AF02D074
:101FA00051805580040EC66F4EC0C7F1000148DE57
:101FB000040E0101C66F4FC0C7F100014CDE060ED2
:101FC0000101C66F52C0C7F100013ADE060E0101E1
:101FD000C66F53C0C7F100013EDE0A0E0101C66F95
:101FE00050C0C7F100012CDE0A0E0101C66F51C0BE
:101FF000C7F1000130DE080E0101C66F54C0C7F101
:1020000000011EDE080E0101C66F55C0C7F10001B8
:1020100022DE1200F369F2690101C36BC151C35D95
:102020001FE20400C351BF25E96E000EC021EA6E15
:10203000EF500001F3190101C26F036AC2510001A0
:102040005DEC00F0016EF2510118F36F036A0101BB
:10205000C2510001E5EC00F0F26F0101C32BDED7A5
:10206000000112009EA8FED7AD6E12001E6A1F6A04
:10207000266A276A01012BB104D01DB102D031813B
:1020800001D031912BB304D01DB302D0318301D0E4
:1020900031932BB504D01DB502D0318501D03195D7
:1020A0002BB704D01DB702D0318701D031972BB99F
:1020B00004D01DB902D0318901D031992BBB04D095
:1020C0001DBB02D0318B01D0319B2BBD04D01DBD77
:1020D00002D0318D01D0319D2BBF04D01DBF02D065
:1020E000318F01D0319F2CB104D01EB102D032818A
:1020F00001D032912CB304D01EB302D0328301D070
:1021000032932CB504D01EB502D0328501D0329561
:102110002CB704D01EB702D0328701D032972CB929
:1021200004D01EB902D0328901D032992CBB04D020
:102130001EBB02D0328B01D0329B2CBD04D01EBD01
:1021400002D0328D01D0329D2CBF04D01EBF02D0F0
:10215000328F01D0329F000E31BF010E2612D8906F
:102160002634BF6F000E31BD010EBF11266ED89010
:102170002634BF6F000E31BB010EBF11266ED89002
:102180002634BF6F000E31B9010EBF11266ED890F4
:102190002634BF6F000E31B7010EBF11266ED890E6
:1021A0002634BF6F000E31B5010EBF11266ED890D8
:1021B0002634BF6F000E31B3010EBF11266ED890CA
:1021C0002634BF6F000E31B1010EBF11266E000E16
:1021D00032BF010E2712D8902734BF6F000E32BDD8
:1021E000010EBF11276ED8902734BF6F000E32BB8F
:1021F000010EBF11276ED8902734BF6F000E32B981
:10220000010EBF11276ED8902734BF6F000E32B772
:10221000010EBF11276ED8902734BF6F000E32B564
:10222000010EBF11276ED8902734BF6F000E32B356
:10223000010EBF11276ED8902734BF6F000E32B148
:10224000010EBF11276E000E2BBF010E1E12D8907B
:102250001E34BF6F000E2BBD010EBF111E6ED89035
:102260001E34BF6F000E2BBB010EBF111E6ED89027
:102270001E34BF6F000E2BB9010EBF111E6ED89019
:102280001E34BF6F000E2BB7010EBF111E6ED8900B
:102290001E34BF6F000E2BB5010EBF111E6ED890FD
:1022A0001E34BF6F000E2BB3010EBF111E6ED890EF
:1022B0001E34BF6F000E2BB1010EBF111E6E000E3B
:1022C0002CBF010E1F12D8901F34BF6F000E2CBD03
:1022D000010EBF111F6ED8901F34BF6F000E2CBBB4
:1022E000010EBF111F6ED8901F34BF6F000E2CB9A6
:1022F000010EBF111F6ED8901F34BF6F000E2CB798
:10230000010EBF111F6ED8901F34BF6F000E2CB589
:10231000010EBF111F6ED8901F34BF6F000E2CB37B
:10232000010EBF111F6ED8901F34BF6F000E2CB16D
:10233000010EBF111F6E0001B0EF17F0948082B044
:1023400002D01AAE02D01AA406D0320E0101C66F16
:102350000001D9EC02F0948082B002D01AAE02D013
:102360001AA48AD01A941D6A01012BB102D02DA1A2
:1023700004D029812B912D911D912BB302D02DA337
:1023800004D029832B932D931D932BB502D02DA51B
:1023900004D029852B952D951D952BB702D02DA7FF
:1023A00004D029872B972D971D972BB902D02DA9E3
:1023B00004D029892B992D991D992BBB02D02DABC7
:1023C00004D0298B2B9B2D9B1D9B2BBD02D02DADAB
:1023D00004D0298D2B9D2D9D1D9D2BBF02D02DAF8F
:1023E00004D0298F2B9F2D9F1D9F2CB102D02EA191
:1023F00004D02A812C912E911E912CB302D02EA3B1
:1024000004D02A832C932E931E932CB502D02EA594
:1024100004D02A852C952E951E952CB702D02EA778
:1024200004D02A872C972E971E972CB902D02EA95C
:1024300004D02A892C992E991E992CBB02D02EAB40
:1024400004D02A8B2C9B2E9B1E9B2CBD02D02EAD24
:1024500004D02A8D2C9D2E9D1E9D2CBF02D02EAF08
:1024600004D02A8F2C9F2E9F1E9F1A8E8998929897
:102470008996929608D00001948082A003D01AAE6B
:1024800001D01A9E010100011200948282B202D092
:1024900030A002D01AA606D0320E0101C66F00018C
:1024A000D9EC02F0948282B202D030A002D01AA6F7
:1024B000C5D01A96000E01011BB1010EBF6F000EB0
:1024C0001FB1010EBF1903E12BB101D01D81000E18
:1024D0001BB3010EBF6F000E1FB3010EBF1903E146
:1024E0002BB301D01D83000E1BB5010EBF6F000E74
:1024F0001FB5010EBF1903E12BB501D01D85000EDC
:102500001BB7010EBF6F000E1FB7010EBF1903E10D
:102510002BB701D01D87000E1BB9010EBF6F000E37
:102520001FB9010EBF1903E12BB901D01D89000E9F
:102530001BBB010EBF6F000E1FBB010EBF1903E1D5
:102540002BBB01D01D8B000E1BBD010EBF6F000EFB
:102550001FBD010EBF1903E12BBD01D01D8D000E63
:102560001BBF010EBF6F000E1FBF010EBF1903E19D
:102570002BBF01D01D8F000E1CB1010EBF6F000ECE
:1025800020B1010EBF1903E12CB101D01E81000E54
:102590001CB3010EBF6F000E20B3010EBF1903E183
:1025A0002CB301D01E83000E1CB5010EBF6F000EB0
:1025B00020B5010EBF1903E12CB501D01E85000E18
:1025C0001CB7010EBF6F000E20B7010EBF1903E14B
:1025D0002CB701D01E87000E1CB9010EBF6F000E74
:1025E00020B9010EBF1903E12CB901D01E89000EDC
:1025F0001CBB010EBF6F000E20BB010EBF1903E113
:102600002CBB01D01E8B000E1CBD010EBF6F000E37
:1026100020BD010EBF1903E12CBD01D01E8D000E9F
:102620001CBF010EBF6F000E20BF010EBF1903E1DA
:102630002CBF01D01E8F308008D00001948282A26E
:1026400003D030A001D0309001010001120004003D
:10265000010E795D0101BE6FC06BB60EBF6FBEC1CA
:10266000C1F10001D7DC010E795D036AB60FE96E96
:10267000000E0320EA6EEF50F35DD8A45EEF1FF06A
:10268000036A7951B60FE96E000E0320EA6EEF502F
:10269000F25DD8A45EEF1FF0B651AA08D8A44AD2C2
:1026A000B7512008D8A446D278C07AF0200E7B6FAC
:1026B0001C0E7C6F3A6A000E0101B8B1010E3A128D
:1026C000D8903A34BF6F000EB7BF010EBF113A6EFB
:1026D000D8903A34BF6F000EB7BD010EBF113A6EED
:1026E000D8903A34BF6F000EB7BB010EBF113A6EDF
:1026F000D8903A34BF6F000EB7B9010EBF113A6ED1
:10270000D8903A34BF6F000EB7B7010EBF113A6EC2
:10271000D8903A34BF6F000EB7B5010EBF113A6EB4
:10272000D8903A34BF6F000EB7B3010EBF113A6EA6
:102730003B6A000EB9B1010E3B12D8903B34BF6F1B
:10274000000EB8BF010EBF113B6ED8903B34BF6F77
:10275000000EB8BD010EBF113B6ED8903B34BF6F69
:10276000000EB8BB010EBF113B6ED8903B34BF6F5B
:10277000000EB8B9010EBF113B6ED8903B34BF6F4D
:10278000000EB8B7010EBF113B6ED8903B34BF6F3F
:10279000000EB8B5010EBF113B6ED8903B34BF6F31
:1027A000000EB8B3010EBF113B6E3F6A000EBAB106
:1027B000010E3F12D8903F34BF6F000EB9BF010E1B
:1027C000BF113F6ED8903F34BF6F000EB9BD010EF0
:1027D000BF113F6ED8903F34BF6F000EB9BB010EE2
:1027E000BF113F6ED8903F34BF6F000EB9B9010ED4
:1027F000BF113F6ED8903F34BF6F000EB9B7010EC6
:10280000BF113F6ED8903F34BF6F000EB9B5010EB7
:10281000BF113F6ED8903F34BF6F000EB9B3010EA9
:10282000BF113F6E3AC07DF03BC07EF03CC07FF0F0
:102830003DC080F03EC081F03FC082F040C083F0D8
:1028400041C084F042C085F043C086F044C087F0A8
:1028500045C088F046C089F047C08AF048C08BF078
:10286000F2CFBEF1F29EAA6A100EA96EA69CA69E99
:10287000A680A850BEBFF28E00018C6FF2CFBEF1D1
:10288000F29EAA6A110EA96EA69CA69EA680A850CA
:102890000101BEBFF28E00018D6FF2CFBEF1F29E3C
:1028A000AA6A120EA96EA69CA69EA680A850010137
:1028B000BEBFF28E00018E6FF2CFBEF1F29EAA6A09
:1028C000130EA96EA69CA69EA680A8500101BEBFAD
:1028D000F28E00018F6FF2CFBEF1F29EAA6A140E43
:1028E000A96EA69CA69EA680A8500101BEBFF28E2E
:1028F0000001906FF2CFBEF1F29EAA6A150EA96E8A
:10290000A69CA69EA680A8500101BEBFF28E000123
:10291000916FF2CFBEF1F29EAA6A160EA96EA69C26
:10292000A69EA680A8500101BEBFF28E0001926F44
:10293000F2CFBEF1F29EAA6A170EA96EA69CA69EC1
:10294000A680A8500101BEBFF28E0001936F6AC03D
:1029500094F06BC095F06CC096F06DC097F07B0E54
:10296000986F78C099F07DC19AF07FC19BF081C1CA
:102970009CF083C19DF085C19EF087C19FF089C105
:10298000A0F08BC1A1F08DC1A2F08FC1A3F091C1C5
:10299000A4F093C1A5F095C1A6F097C1A7F099C185
:1029A000A8F09BC1A9F09DC1AAF09FC1ABF0A1C145
:1029B000ACF0A3C1ADF00101C06B7A0EBF6F340E55
:1029C000C16F00010AEC10F0F3C0AEF0F2C0AFF03E
:1029D0008A8693960A0E0101C66F0001D9EC02F0B7
:1029E0007A5132EC10F07B5132EC10F07C5132EC29
:1029F00010F07D5132EC10F07E5132EC10F07F512E
:102A000032EC10F0805132EC10F0815132EC10F0C9
:102A1000825132EC10F0835132EC10F0845132ECE0
:102A200010F0855132EC10F0865132EC10F08751E5
:102A300032EC10F0885132EC10F0895132EC10F089
:102A40008A5132EC10F08B5132EC10F08C5132EC98
:102A500010F08D5132EC10F08E5132EC10F08F519D
:102A600032EC10F0905132EC10F0915132EC10F049
:102A7000925132EC10F0935132EC10F0945132EC50
:102A800010F0955132EC10F0965132EC10F0975155
:102A900032EC10F0985132EC10F0995132EC10F009
:102AA0009A5132EC10F09B5132EC10F09C5132EC08
:102AB00010F09D5132EC10F09E5132EC10F09F510D
:102AC00032EC10F0A05132EC10F0A15132EC10F0C9
:102AD000A25132EC10F0A35132EC10F0A45132ECC0
:102AE00010F0A55132EC10F0A65132EC10F0A751C5
:102AF00032EC10F0A85132EC10F0A95132EC10F089
:102B0000AA5132EC10F0AB5132EC10F0AC5132EC77
:102B100010F0AD5132EC10F0AE5132EC10F0AF517C
:102B200032EC10F0030E0101C66F0001D9EC02F087
:102B30008A9693967851B65DD8A45AEF1FF0B72DB8
:102B400009D2F76BB8C0F6F0F6C0F7F00101BE6B22
:102B5000BE510001B911F66F0001F96BBAC0F8F06F
:102B6000F8C0F9F00101BE6BBE510001BB11F86F56
:102B70000001F753D8A4B8D1F6510F08D8A0B4D1AA
:102B8000F851F6250101BE6F0001F951F72101014D
:102B9000BF6FBF53D8B402D00001A6D1BE511008F8
:102BA000D8B002D00001A0D10001F95306E1F851DC
:102BB000080803E3010EFA6F12D0F95306E1F85149
:102BC000100803E3020EFA6F0AD0F95306E1F85138
:102BD000180803E3030EFA6F02D0010EFA6FFA2D04
:102BE000A0D0F7530DE1F65108080AE349C0FBF005
:102BF000F651016E04E0D890FB33012EFCD71AD0B9
:102C0000F75303E1F651080815E2F75313E1F651C3
:102C10000F0810E3080EF65D006E000EF759036E04
:102C200000C001F04AC0FBF0015204E0D890FB3331
:102C3000012EFCD7F851080803E1F95301E135D022
:102C4000F851070804E1F95302E1FB9F2ED0F85137
:102C5000060805E1F95303E13F0EFB1726D0F851B2
:102C6000050805E1F95303E11F0EFB171ED0F851CB
:102C7000040805E1F95303E10F0EFB1716D0F851D4
:102C8000030805E1F95303E1070EFB170ED0F851D5
:102C9000020805E1F95303E1030EFB1706D0F82DF6
:102CA00004D0F95302E1010EFB1778C07AF0010E4F
:102CB0007B6FFAC07CF0FBC07DF00101C06B7A0E27
:102CC000BF6F040EC16F00010AEC10F0F3C07EF07C
:102CD000F2C07FF08A8693960400040E0101C66F4D
:102CE0000001D9EC02F004007A5132EC10F07B5173
:102CF00032EC10F07C5132EC10F07D5132EC10F0DF
:102D00007E5132EC10F07F5132EC10F00400030ED3
:102D10000101C66F0001D9EC02F004008A96939677
:102D2000E2D0FA510208D8A4DED049C0FBF0F65137
:102D3000016E04E0D890FB33012EFCD74AC0FCF0B2
:102D4000070EF85D0101BE6F000E0001F959010187
:102D5000BF6FBE51080803E1BF5301E183D0070EE6
:102D60000001F85D0101BE6F000E0001F95901017B
:102D7000BF6FBE51070805E1BF5303E10001FC9F8F
:102D800070D0070E0001F85D0101BE6F000E00015A
:102D9000F9590101BF6FBE51060806E1BF5304E1B6
:102DA0003F0E0001FC175DD0070E0001F85D010128
:102DB000BE6F000E0001F9590101BF6FBE51050839
:102DC00006E1BF5304E11F0E0001FC174AD0070EB5
:102DD0000001F85D0101BE6F000E0001F95901010B
:102DE000BF6FBE51040806E1BF5304E10F0E00019E
:102DF000FC1737D0070E0001F85D0101BE6F000E11
:102E00000001F9590101BF6FBE51030806E1BF532C
:102E100004E1070E0001FC1724D0070E0001F85D45
:102E20000101BE6F000E0001F9590101BF6FBE51D3
:102E3000020806E1BF5304E1030E0001FC1711D0A4
:102E4000070E0001F85D0101BE6F000E0001F95987
:102E50000101BF6FBE2D06D0BF5304E1010E00017A
:102E6000FC17010178C07AF0010E00017B6FFAC0F7
:102E70007CF0FBC07DF0FCC07EF00101C06B7A0EDF
:102E8000BF6F050EC16F00010AEC10F0F3C07FF0B8
:102E9000F2C080F08A8693960400040E0101C66F8A
:102EA0000001D9EC02F004007A5132EC10F07B51B1
:102EB00032EC10F07C5132EC10F07D5132EC10F01D
:102EC0007E5132EC10F07F5132EC10F0805132EC38
:102ED00010F00400030E0101C66F0001D9EC02F0EE
:102EE00004008A96939636D078C07AF0810E7B6F74
:102EF000020E7C6F0101C06B7A0EBF6F030EC16FB3
:102F000000010AEC10F0F3C07DF0F2C07EF08A867A
:102F100093960400040E0101C66F0001D9EC02F083
:102F200004007A5132EC10F07B5132EC10F07C51FD
:102F300032EC10F07D5132EC10F07E5132EC10F09A
:102F40000400030E0101C66F0001D9EC02F0040079
:102F50008A969396B7510708D8A4AED036EF10F0F2
:102F60009D921EC0FBF01FC0FCF020C0FDF021C0F0
:102F7000FEF022C0FFF023C000F124C001F125C003
:102F800002F126C003F127C004F128C005F129C0D1
:102F900006F12AC007F12BC008F12CC009F12DC0A1
:102FA0000AF178C07AF0070E7B6F100EFA6FFAC044
:102FB0007CF0FBC07DF0FCC07EF0FDC07FF0FEC069
:102FC00080F0FFC081F000C182F001C183F002C136
:102FD00084F003C185F004C186F005C187F006C105
:102FE00088F007C189F008C18AF009C18BF00AC1D5
:102FF0008CF00101C06B7A0EBF6F130EC16F000120
:103000000AEC10F0F3C08DF0F2C08EF08A86939631
:103010000400040E0101C66F0001D9EC02F00400A7
:103020007A5132EC10F07B5132EC10F07C5132ECE2
:1030300010F07D5132EC10F07E5132EC10F07F51E7
:1030400032EC10F0805132EC10F0815132EC10F083
:10305000825132EC10F0835132EC10F0845132EC9A
:1030600010F0855132EC10F0865132EC10F087519F
:1030700032EC10F0885132EC10F0895132EC10F043
:103080008A5132EC10F08B5132EC10F08C5132EC52
:1030900010F08D5132EC10F08E5132EC10F0040033
:1030A000030E0101C66F0001D9EC02F004008A96FC
:1030B00093969D8213EF1FF0B7510508D8A465D2EF
:1030C000F76BB8C0F6F0F6C0F7F00101BE6BBE5169
:1030D0000001B911F66F0001F96BBAC0F8F0F8C041
:1030E000F9F00101BE6BBE510001BB11F86F000188
:1030F000F6534DE1F7534BE1F85348E1F93D46D023
:103100001A8478C07AF0050E7B6FB8C07CF0B9C025
:103110007DF0BAC07EF0BBC07FF00101C06B7A0EBB
:10312000BF6F060EC16F00010AEC10F0F3C080F013
:10313000F2C081F08A8693960400040E0101C66FE6
:103140000001D9EC02F004007A5132EC10F07B510E
:1031500032EC10F07C5132EC10F07D5132EC10F07A
:103160007E5132EC10F07F5132EC10F0805132EC95
:1031700010F0815132EC10F00400030E0101C66F13
:103180000001D9EC02F004008A969396FCD1F62D4A
:103190004DD0F7534BE1F85348E1F93D46D01A863C
:1031A00078C07AF0050E7B6FB8C07CF0B9C07DF0B6
:1031B000BAC07EF0BBC07FF00101C06B7A0EBF6F5A
:1031C000060EC16F00010AEC10F0F3C080F0F2C0EF
:1031D00081F08A8693960400040E0101C66F0001F7
:1031E000D9EC02F004007A5132EC10F07B5132EC51
:1031F00010F07C5132EC10F07D5132EC10F07E5129
:1032000032EC10F07F5132EC10F0805132EC10F0C3
:10321000815132EC10F00400030E0101C66F000171
:10322000D9EC02F004008A969396ADD1F6510208CB
:10323000D8A4A1D0F753D8A49ED0F85349E1F93DC2
:1032400047D01A8878C07AF0050E7B6FB8C07CF042
:10325000B9C07DF0BAC07EF0BBC07FF00101C06B89
:103260007A0EBF6F060EC16F00010AEC10F0F3C0BA
:1032700080F0F2C081F08A8693960400040E01016A
:10328000C66F0001D9EC02F004007A5132EC10F064
:103290007B5132EC10F07C5132EC10F07D5132EC6D
:1032A00010F07E5132EC10F07F5132EC10F0805172
:1032B00032EC10F0815132EC10F00400030E0101E9
:1032C000C66F0001D9EC02F004008A96939652D0A2
:1032D000F85350E1F9534EE11A9899EC09F01A8429
:1032E0009EEC11F01A8645EC12F078C07AF0050ECB
:1032F0007B6FB8C07CF0B9C07DF0BAC07EF0BBC0B7
:103300007FF00101C06B7A0EBF6F060EC16F000126
:103310000AEC10F0F3C080F0F2C081F08A86939638
:103320000400040E0101C66F0001D9EC02F0040094
:103330007A5132EC10F07B5132EC10F07C5132ECCF
:1033400010F07D5132EC10F07E5132EC10F07F51D4
:1033500032EC10F0805132EC10F0815132EC10F070
:103360000400030E0101C66F0001D9EC02F0040055
:103370008A96939608D1F6510308D8A4A1D0F753A2
:10338000D8A49ED0F85349E1F93D47D01A8A78C0B5
:103390007AF0050E7B6FB8C07CF0B9C07DF0BAC082
:1033A0007EF0BBC07FF00101C06B7A0EBF6F060ECE
:1033B000C16F00010AEC10F0F3C080F0F2C081F0A0
:1033C0008A8693960400040E0101C66F0001D9ECB1
:1033D00002F004007A5132EC10F07B5132EC10F024
:1033E0007C5132EC10F07D5132EC10F07E5132EC19
:1033F00010F07F5132EC10F0805132EC10F081511E
:1034000032EC10F004000A0E0101C66F0001D9EC85
:1034100002F004008A96939652D0F85350E1F95383
:103420004EE11A9A99EC09F01A849EEC11F01A8672
:1034300045EC12F078C07AF0050E7B6FB8C07CF0D6
:10344000B9C07DF0BAC07EF0BBC07FF00101C06B97
:103450007A0EBF6F060EC16F00010AEC10F0F3C0C8
:1034600080F0F2C081F08A8693960400040E010178
:10347000C66F0001D9EC02F004007A5132EC10F072
:103480007B5132EC10F07C5132EC10F07D5132EC7B
:1034900010F07E5132EC10F07F5132EC10F0805180
:1034A00032EC10F0815132EC10F00400030E0101F7
:1034B000C66F0001D9EC02F004008A96939663D09F
:1034C000F651640860E1F7535EE1F8C078F0F2501D
:1034D000006EF29EAA6A1D0EA96E78C0A8FFA69C77
:1034E000A69EA6840F01550EA76EAA0EA76EA682F1
:1034F000A6B2FED7A6940050F21278C07AF0050E5C
:1035000000017B6FB8C07CF0B9C07DF0BAC07EF01E
:10351000BBC07FF00101C06B7A0EBF6F060EC16F9A
:1035200000010AEC10F0F3C080F0F2C081F08A864E
:1035300093960400040E0101C66F0001D9EC02F05D
:1035400004007A5132EC10F07B5132EC10F07C51D7
:1035500032EC10F07D5132EC10F07E5132EC10F074
:103560007F5132EC10F0805132EC10F0815132EC8E
:1035700010F00400030E0101C66F0001D9EC02F047
:1035800004008A96939613EF1FF0B7512108D8A430
:1035900013EF1FF0F250006EF29EAA6AA96A0F0E96
:1035A000A86EA69CA69EA6840F01550EA76EAA0E15
:1035B000A76EA682A6B2FED7A6940050F212F2CF52
:1035C00000F0F29EAA6A010EA96EB9C0A8FFA69CDF
:1035D000A69EA684550EA76EAA0EA76EA682A6B2B8
:1035E000FED7A6940050F212F2CF00F0F29EAA6A23
:1035F000020EA96EBAC0A8FFA69CA69EA684550E70
:10360000A76EAA0EA76EA682A6B2FED7A6940050F9
:10361000F212F2CF00F0F29EAA6A030EA96EBBC0AE
:10362000A8FFA69CA69EA684550EA76EAA0EA76EFE
:10363000A682A6B2FED7A6940050F212F2CF00F0F6
:10364000F29EAA6A040EA96EBCC0A8FFA69CA69E04
:10365000A684550EA76EAA0EA76EA682A6B2FED7A6
:10366000A6940050F212F2CF00F0F29EAA6A050E64
:10367000A96EBDC0A8FFA69CA69EA684550EA76EE7
:10368000AA0EA76EA682A6B2FED7A6940050F2128A
:10369000F2CF00F0F29EAA6A060EA96EBEC0A8FF85
:1036A000A69CA69EA684550EA76EAA0EA76EA682FD
:1036B000A6B2FED7A6940050F212F2CF00F0F29E0E
:1036C000AA6A070EA96EBFC0A8FFA69CA69EA684E4
:1036D000550EA76EAA0EA76EA682A6B2FED7A69416
:1036E0000050F212F2CF00F0F29EAA6A080EA96E04
:1036F000C0C0A8FFA69CA69EA684550EA76EAA0EC3
:10370000A76EA682A6B2FED7A6940050F212F2CF00
:1037100000F0F29EAA6A090EA96EC1C0A8FFA69C7D
:10372000A69EA684550EA76EAA0EA76EA682A6B266
:10373000FED7A6940050F212F2CF00F0F29EAA6AD1
:103740000A0EA96EC2C0A8FFA69CA69EA684550E0E
:10375000A76EAA0EA76EA682A6B2FED7A6940050A8
:10376000F212F2CF00F0F29EAA6A0B0EA96EC3C04D
:10377000A8FFA69CA69EA684550EA76EAA0EA76EAD
:10378000A682A6B2FED7A6940050F212F2CF00F0A5
:10379000F29EAA6A0C0EA96EC4C0A8FFA69CA69EA3
:1037A000A684550EA76EAA0EA76EA682A6B2FED755
:1037B000A6940050F212F2CF00F0F29EAA6A0D0E0B
:1037C000A96EC5C0A8FFA69CA69EA684550EA76E8E
:1037D000AA0EA76EA682A6B2FED7A6940050F21239
:1037E000F2CF00F0F29EAA6A0E0EA96EC6C0A8FF24
:1037F000A69CA69EA684550EA76EAA0EA76EA682AC
:10380000A6B2FED7A6940050F212F2CF00F0F29EBC
:10381000AA6A0F0EA96EC7C0A8FFA69CA69EA68482
:10382000550EA76EAA0EA76EA682A6B2FED7A694C4
:103830000050F212F2CF00F0F29EAA6A100EA96EAA
:10384000C8C0A8FFA69CA69EA684550EA76EAA0E69
:10385000A76EA682A6B2FED7A6940050F212F2CFAF
:1038600000F0F29EAA6A110EA96EC9C0A8FFA69C1C
:10387000A69EA684550EA76EAA0EA76EA682A6B215
:10388000FED7A6940050F212F2CF00F0F29EAA6A80
:10389000120EA96ECAC0A8FFA69CA69EA684550EAD
:1038A000A76EAA0EA76EA682A6B2FED7A694005057
:1038B000F212F2CF00F0F29EAA6A130EA96ECBC0EC
:1038C000A8FFA69CA69EA684550EA76EAA0EA76E5C
:1038D000A682A6B2FED7A6940050F212F2CF00F054
:1038E000F29EAA6A140EA96ECCC0A8FFA69CA69E42
:1038F000A684550EA76EAA0EA76EA682A6B2FED704
:10390000A6940050F212F2CF00F0F29EAA6A150EB1
:10391000A96ECDC0A8FFA69CA69EA684550EA76E34
:10392000AA0EA76EA682A6B2FED7A6940050F212E7
:10393000F2CF00F0F29EAA6A160EA96ECEC0A8FFC2
:10394000A69CA69EA684550EA76EAA0EA76EA6825A
:10395000A6B2FED7A6940050F212F2CF00F0F29E6B
:10396000AA6A170EA96ECFC0A8FFA69CA69EA68421
:10397000550EA76EAA0EA76EA682A6B2FED7A69473
:103980000050F212F2CF00F0F29EAA6A180EA96E51
:10399000D0C0A8FFA69CA69EA684550EA76EAA0E10
:1039A000A76EA682A6B2FED7A6940050F212F2CF5E
:1039B00000F0F29EAA6A190EA96ED1C0A8FFA69CBB
:1039C000A69EA684550EA76EAA0EA76EA682A6B2C4
:1039D000FED7A6940050F212F2CF00F0F29EAA6A2F
:1039E0001A0EA96ED2C0A8FFA69CA69EA684550E4C
:1039F000A76EAA0EA76EA682A6B2FED7A694005006
:103A0000F212F2CF00F0F29EAA6A1B0EA96ED3C08A
:103A1000A8FFA69CA69EA684550EA76EAA0EA76E0A
:103A2000A682A6B2FED7A6940050F212F2CF00F002
:103A3000F29EAA6A1C0EA96ED4C0A8FFA69CA69EE0
:103A4000A684550EA76EAA0EA76EA682A6B2FED7B2
:103A5000A6940050F212F2CF00F0F29EAA6A1D0E58
:103A6000A96ED5C0A8FFA69CA69EA684550EA76EDB
:103A7000AA0EA76EA682A6B2FED7A6940050F21296
:103A8000F2CF00F0F29EAA6A1E0EA96ED6C0A8FF61
:103A9000A69CA69EA684550EA76EAA0EA76EA68209
:103AA000A6B2FED7A6940050F212F2CF00F0F29E1A
:103AB000AA6A1F0EA96ED7C0A8FFA69CA69EA684C0
:103AC000550EA76EAA0EA76EA682A6B2FED7A69422
:103AD0000050F212F2CF00F0F29EAA6A200EA96EF8
:103AE000D8C0A8FFA69CA69EA684550EA76EAA0EB7
:103AF000A76EA682A6B2FED7A6940050F212F2CF0D
:103B000000F0F29EAA6A210EA96ED9C0A8FFA69C59
:103B1000A69EA684550EA76EAA0EA76EA682A6B272
:103B2000FED7A6940050F212F2CF00F0F29EAA6ADD
:103B3000220EA96EDAC0A8FFA69CA69EA684550EEA
:103B4000A76EAA0EA76EA682A6B2FED7A6940050B4
:103B5000F212F2CF00F0F29EAA6A230EA96EDBC029
:103B6000A8FFA69CA69EA684550EA76EAA0EA76EB9
:103B7000A682A6B2FED7A6940050F212F2CF00F0B1
:103B8000F29EAA6A240EA96EDCC0A8FFA69CA69E7F
:103B9000A684550EA76EAA0EA76EA682A6B2FED761
:103BA000A6940050F212F2CF00F0F29EAA6A250EFF
:103BB000A96EDDC0A8FFA69CA69EA684550EA76E82
:103BC000AA0EA76EA682A6B2FED7A6940050F21245
:103BD000F2CF00F0F29EAA6A260EA96EDEC0A8FF00
:103BE000A69CA69EA684550EA76EAA0EA76EA682B8
:103BF000A6B2FED7A6940050F212F2CF00F0F29EC9
:103C0000AA6A270EA96EDFC0A8FFA69CA69EA6845E
:103C1000550EA76EAA0EA76EA682A6B2FED7A694D0
:103C20000050F212F2CF00F0F29EAA6A280EA96E9E
:103C3000E0C0A8FFA69CA69EA684550EA76EAA0E5D
:103C4000A76EA682A6B2FED7A6940050F212F2CFBB
:103C500000F0F29EAA6A290EA96EE1C0A8FFA69CF8
:103C6000A69EA684550EA76EAA0EA76EA682A6B221
:103C7000FED7A6940050F212F2CF00F0F29EAA6A8C
:103C80002A0EA96EE2C0A8FFA69CA69EA684550E89
:103C9000A76EAA0EA76EA682A6B2FED7A694005063
:103CA000F212F2CF00F0F29EAA6A2B0EA96EE3C0C8
:103CB000A8FFA69CA69EA684550EA76EAA0EA76E68
:103CC000A682A6B2FED7A6940050F212F2CF00F060
:103CD000F29EAA6A2C0EA96EE4C0A8FFA69CA69E1E
:103CE000A684550EA76EAA0EA76EA682A6B2FED710
:103CF000A6940050F212F2CF00F0F29EAA6A2D0EA6
:103D0000A96EE5C0A8FFA69CA69EA684550EA76E28
:103D1000AA0EA76EA682A6B2FED7A6940050F212F3
:103D2000F2CF00F0F29EAA6A2E0EA96EE6C0A8FF9E
:103D3000A69CA69EA684550EA76EAA0EA76EA68266
:103D4000A6B2FED7A6940050F212F2CF00F0F29E77
:103D5000AA6A2F0EA96EE7C0A8FFA69CA69EA684FD
:103D6000550EA76EAA0EA76EA682A6B2FED7A6947F
:103D70000050F212F2CF00F0F29EAA6A300EA96E45
:103D8000E8C0A8FFA69CA69EA684550EA76EAA0E04
:103D9000A76EA682A6B2FED7A6940050F212F2CF6A
:103DA00000F0F29EAA6A310EA96EE9C0A8FFA69C97
:103DB000A69EA684550EA76EAA0EA76EA682A6B2D0
:103DC000FED7A6940050F21278C07AF0210E0001BE
:103DD0007B6F0101C06B7A0EBF6F020EC16F0001D5
:103DE0000AEC10F0F3C07CF0F2C07DF08A86939666
:103DF0000A0E0101C66F0001D9EC02F07A5132ECD3
:103E000010F07B5132EC10F07C5132EC10F07D510F
:103E100032EC10F0030E0101C66F0001D9EC02F084
:103E20008A969396FF00B751030844E14AC0FBF01D
:103E300049C0FCF078C07AF0030E7B6F020E7C6FF5
:103E4000FBC07DF0FCC07EF00101C06B7A0EBF6F3D
:103E5000050EC16F00010AEC10F0F3C07FF0F2C054
:103E600080F08A8693960400040E0101C66F00015B
:103E7000D9EC02F004007A5132EC10F07B5132ECB4
:103E800010F07C5132EC10F07D5132EC10F07E518C
:103E900032EC10F07F5132EC10F0805132EC10F027
:103EA0000400030E0101C66F0001D9EC02F004000A
:103EB0008A969396010EF56FF40EF46F30986FC0EA
:103EC00077F00101166B0001796B8A96939660EF8B
:103ED00035F06D51080823E101011B911FA11B81E1
:103EE0001B931FA31B831B951FA51B851B971FA738
:103EF0001B871B991FA91B891B9B1FAB1B8B1B9D22
:103F00001FAD1B8D1B9F1FAF1B8F299129932995D7
:103F100029972999299B299D299F45D000016D51F9
:103F2000100841E101011B911FA11B811B931FA3DD
:103F30001B831B951FA51B851B971FA71B871B9901
:103F40001FA91B891B9B1FAB1B8B1B9D1FAD1B8DB3
:103F50001B9F1FAF1B8F1C9120A11C811C9320A3B2
:103F60001C831C9520A51C851C9720A71C871C99C9
:103F700020A91C891C9B20AB1C8B1C9D20AD1C8D7B
:103F80001C9F20AF1C8F2991299329952997299946
:103F9000299B299D299F2A912A932A952A972A9914
:103FA0002A9B2A9D2A9F0001E7EF30F00101C62DD0
:103FB000DCD1000E2BB1010EC96F000E2DB1010E28
:103FC000C911C86F000E29A1010EC817000E23B138
:103FD000010ECB6F000E25B1010ECB11C815C79194
:103FE000E8B0C781000EC7B1010EC86F000E2BB339
:103FF000010ECA6F000E2DB3010ECA11C96F000E5B
:1040000029A3010EC917000E23B3010ECC6F000EB9
:1040100025B3010ECC11C915C811C791E8B0C781ED
:10402000000EC7B1010EC86F000E2BB5010ECA6F8E
:10403000000E2DB5010ECA11C96F000E29A5010E83
:10404000C917000E23B5010ECC6F000E25B5010E69
:10405000CC11C915C811C791E8B0C781000EC7B10E
:10406000010EC86F000E2BB7010ECA6F000E2DB7E0
:10407000010ECA11C96F000E29A7010EC917000E43
:1040800023B7010ECC6F000E25B7010ECC11C91558
:10409000C811C791E8B0C781000EC7B1010EC86F43
:1040A000000E2BB9010ECA6F000E2DB9010ECA11F8
:1040B000C96F000E29A9010EC917000E23B9010E00
:1040C000CC6F000E25B9010ECC11C915C811C791CE
:1040D000E8B0C781000EC7B1010EC86F000E2BBB40
:1040E000010ECA6F000E2DBB010ECA11C96F000E62
:1040F00029AB010EC917000E23BB010ECC6F000EB9
:1041000025BB010ECC11C915C811C791E8B0C781F4
:10411000000EC7B1010EC86F000E2BBD010ECA6F95
:10412000000E2DBD010ECA11C96F000E29AD010E82
:10413000C917000E23BD010ECC6F000E25BD010E68
:10414000CC11C915C811C791E8B0C781000EC7B11D
:10415000010EC86F000E2BBF010ECA6F000E2DBFDF
:10416000010ECA11C96F000E29AF010EC917000E4A
:1041700023BF010ECC6F000E25BF010ECC11C91557
:10418000C811C791E8B0C781000EC7B1010EC86F52
:10419000000E2CB1010ECA6F000E2EB1010ECA1115
:1041A000C96F000E2AA1010EC917000E24B1010E1D
:1041B000CC6F000E26B1010ECC11C915C811C791E4
:1041C000E8B0C781000EC7B1010EC86F000E2CB356
:1041D000010ECA6F000E2EB3010ECA11C96F000E78
:1041E0002AA3010EC917000E24B3010ECC6F000ED6
:1041F00026B3010ECC11C915C811C791E8B0C7810B
:10420000000EC7B1010EC86F000E2CB5010ECA6FAB
:10421000000E2EB5010ECA11C96F000E2AA5010E9F
:10422000C917000E24B5010ECC6F000E26B5010E85
:10423000CC11C915C811C791E8B0C781000EC7B12C
:10424000010EC86F000E2CB7010ECA6F000E2EB7FC
:10425000010ECA11C96F000E2AA7010EC917000E60
:1042600024B7010ECC6F000E26B7010ECC11C91574
:10427000C811C791E8B0C781000EC7B1010EC86F61
:10428000000E2CB9010ECA6F000E2EB9010ECA1114
:10429000C96F000E2AA9010EC917000E24B9010E1C
:1042A000CC6F000E26B9010ECC11C915C811C791EB
:1042B000E8B0C781000EC7B1010EC86F000E2CBB5D
:1042C000010ECA6F000E2EBB010ECA11C96F000E7F
:1042D0002AAB010EC917000E24BB010ECC6F000ED5
:1042E00026BB010ECC11C915C811C791E8B0C78112
:1042F000000EC7B1010EC86F000E2CBD010ECA6FB3
:10430000000E2EBD010ECA11C96F000E2AAD010E9E
:10431000C917000E24BD010ECC6F000E26BD010E84
:10432000CC11C915C811C791E8B0C781000EC7B13B
:10433000010EC86F000E2CBF010ECA6F000E2EBFFB
:10434000010ECA11C96F000E2AAF010EC917000E67
:1043500024BF010ECC6F000E26BF010ECC11C91573
:10436000C811C791E8B0C781DFD1C6510208D8A4EF
:10437000DBD1000E2BB1010EC96F000E2DB1010E65
:10438000C911C86F000E29A1010EC817000E23A184
:10439000010ECB6F000E25B1010ECB11C815C791D0
:1043A000E8B0C781000EC7B1010EC86F000E2BB375
:1043B000010ECA6F000E2DB3010ECA11C96F000E97
:1043C00029A3010EC917000E23A3010ECC6F000E06
:1043D00025B3010ECC11C915C811C791E8B0C7812A
:1043E000000EC7B1010EC86F000E2BB5010ECA6FCB
:1043F000000E2DB5010ECA11C96F000E29A5010EC0
:10440000C917000E23A5010ECC6F000E25B5010EB5
:10441000CC11C915C811C791E8B0C781000EC7B14A
:10442000010EC86F000E2BB7010ECA6F000E2DB71C
:10443000010ECA11C96F000E29A7010EC917000E7F
:1044400023A7010ECC6F000E25B7010ECC11C915A4
:10445000C811C791E8B0C781000EC7B1010EC86F7F
:10446000000E2BB9010ECA6F000E2DB9010ECA1134
:10447000C96F000E29A9010EC917000E23A9010E4C
:10448000CC6F000E25B9010ECC11C915C811C7910A
:10449000E8B0C781000EC7B1010EC86F000E2BBB7C
:1044A000010ECA6F000E2DBB010ECA11C96F000E9E
:1044B00029AB010EC917000E23AB010ECC6F000E05
:1044C00025BB010ECC11C915C811C791E8B0C78131
:1044D000000EC7B1010EC86F000E2BBD010ECA6FD2
:1044E000000E2DBD010ECA11C96F000E29AD010EBF
:1044F000C917000E23AD010ECC6F000E25BD010EB5
:10450000CC11C915C811C791E8B0C781000EC7B159
:10451000010EC86F000E2BBF010ECA6F000E2DBF1B
:10452000010ECA11C96F000E29AF010EC917000E86
:1045300023AF010ECC6F000E25BF010ECC11C915A3
:10454000C811C791E8B0C781000EC7B1010EC86F8E
:10455000000E2CB1010ECA6F000E2EB1010ECA1151
:10456000C96F000E2AA1010EC917000E24A1010E69
:10457000CC6F000E26B1010ECC11C915C811C79120
:10458000E8B0C781000EC7B1010EC86F000E2CB392
:10459000010ECA6F000E2EB3010ECA11C96F000EB4
:1045A0002AA3010EC917000E24A3010ECC6F000E22
:1045B00026B3010ECC11C915C811C791E8B0C78147
:1045C000000EC7B1010EC86F000E2CB5010ECA6FE8
:1045D000000E2EB5010ECA11C96F000E2AA5010EDC
:1045E000C917000E24A5010ECC6F000E26B5010ED2
:1045F000CC11C915C811C791E8B0C781000EC7B169
:10460000010EC86F000E2CB7010ECA6F000E2EB738
:10461000010ECA11C96F000E2AA7010EC917000E9C
:1046200024A7010ECC6F000E26B7010ECC11C915C0
:10463000C811C791E8B0C781000EC7B1010EC86F9D
:10464000000E2CB9010ECA6F000E2EB9010ECA1150
:10465000C96F000E2AA9010EC917000E24A9010E68
:10466000CC6F000E26B9010ECC11C915C811C79127
:10467000E8B0C781000EC7B1010EC86F000E2CBB99
:10468000010ECA6F000E2EBB010ECA11C96F000EBB
:104690002AAB010EC917000E24AB010ECC6F000E21
:1046A00026BB010ECC11C915C811C791E8B0C7814E
:1046B000000EC7B1010EC86F000E2CBD010ECA6FEF
:1046C000000E2EBD010ECA11C96F000E2AAD010EDB
:1046D000C917000E24AD010ECC6F000E26BD010ED1
:1046E000CC11C915C811C791E8B0C781000EC7B178
:1046F000010EC86F000E2CBF010ECA6F000E2EBF38
:10470000010ECA11C96F000E2AAF010EC917000EA3
:1047100024AF010ECC6F000E26BF010ECC11C915BF
:10472000C811C791E8B0C781000EC7B1010E016E74
:1047300000011200010127A139D0000E1BB1010EAA
:10474000C76F000E1FB1010EC719010802E121B1A8
:1047500002D02BA127D029B124D02BB10CD000013D
:104760006A510F08D8B402D0010105D0640E1C6E46
:104770006BC01DF001012B811AB202D01D9101D036
:104780001D811AB80ED025B105D0898892988986E6
:10479000929607D023A103D08988929802D0898667
:1047A000929603D021A101D029910DD0000E1BB10A
:1047B000010EC76F000E1FB1010EC719010802E1FB
:1047C0001D9101D01D8127A339D0000E1BB3010E0E
:1047D000C76F000E1FB3010EC719010802E121B314
:1047E00002D02BA327D029B324D02BB30CD00001A7
:1047F0006A510F08D8B402D0010105D0640E1C6EB6
:104800006BC01DF001012B831AB202D01D9301D0A1
:104810001D831AB80ED025B305D089889298898651
:10482000929607D023A303D08988929802D08986D4
:10483000929603D021A301D029930DD0000E1BB373
:10484000010EC76F000E1FB3010EC719010802E168
:104850001D9301D01D8327A539D0000E1BB5010E75
:10486000C76F000E1FB5010EC719010802E121B57F
:1048700002D02BA527D029B524D02BB50CD0000110
:104880006A510F08D8B402D0010105D0640E1C6E25
:104890006BC01DF001012B851AB202D01D9501D00D
:1048A0001D851AB80ED025B505D0898892988986BD
:1048B000929607D023A503D08988929802D0898642
:1048C000929603D021A501D029950DD0000E1BB5DD
:1048D000010EC76F000E1FB5010EC719010802E1D6
:1048E0001D9501D01D8527A739D0000E1BB7010EDD
:1048F000C76F000E1FB7010EC719010802E121B7EB
:1049000002D02BA727D029B724D02BB70CD0000179
:104910006A510F08D8B402D0010105D0640E1C6E94
:104920006BC01DF001012B871AB202D01D9701D078
:104930001D871AB80ED025B705D089889298898628
:10494000929607D023A703D08988929802D08986AF
:10495000929603D021A701D029970DD0000E1BB746
:10496000010EC76F000E1FB7010EC719010802E143
:104970001D9701D01D8727A939D0000E1BB9010E44
:10498000C76F000E1FB9010EC719010802E121B956
:1049900002D02BA927D029B924D02BB90CD00001E3
:1049A0006A510F08D8B402D0010105D0640E1C6E04
:1049B0006BC01DF001012B891AB202D01D9901D0E4
:1049C0001D891AB80ED025B905D089889298898694
:1049D000929607D023A903D08988929802D089861D
:1049E000929603D021A901D029990DD0000E1BB9B0
:1049F000010EC76F000E1FB9010EC719010802E1B1
:104A00001D9901D01D8927AB39D0000E1BBB010EAB
:104A1000C76F000E1FBB010EC719010802E121BBC1
:104A200002D02BAB27D029BB24D02BBB0CD000014C
:104A30006A510F08D8B402D0010105D0640E1C6E73
:104A40006BC01DF001012B8B1AB202D01D9B01D04F
:104A50001D8B1AB80ED025BB05D0898892988986FF
:104A6000929607D023AB03D08988929802D089868A
:104A7000929603D021AB01D0299B0DD0000E1BBB19
:104A8000010EC76F000E1FBB010EC719010802E11E
:104A90001D9B01D01D8B27AD39D0000E1BBD010E13
:104AA000C76F000E1FBD010EC719010802E121BD2D
:104AB00002D02BAD27D029BD24D02BBD0CD00001B6
:104AC0006A510F08D8B402D0010105D0640E1C6EE3
:104AD0006BC01DF001012B8D1AB202D01D9D01D0BB
:104AE0001D8D1AB80ED025BD05D08988929889866B
:104AF000929607D023AD03D08988929802D08986F8
:104B0000929603D021AD01D0299D0DD0000E1BBD82
:104B1000010EC76F000E1FBD010EC719010802E18B
:104B20001D9D01D01D8D27AF39D0000E1BBF010E7A
:104B3000C76F000E1FBF010EC719010802E121BF98
:104B400002D02BAF27D029BF24D02BBF0CD000011F
:104B50006A510F08D8B402D0010105D0640E1C6E52
:104B60006BC01DF001012B8F1AB202D01D9F01D026
:104B70001D8F1AB80ED025BF05D0898892988986D6
:104B8000929607D023AF03D08988929802D0898665
:104B9000929603D021AF01D0299F0DD0000E1BBFEC
:104BA000010EC76F000E1FBF010EC719010802E1F9
:104BB0001D9F01D01D8F28A139D0000E1CB1010E00
:104BC000C76F000E20B1010EC719010802E122B122
:104BD00002D02CA127D02AB124D02CB10CD00001B6
:104BE0006A510F08D8B402D0010105D0640E1C6EC2
:104BF0006BC01DF001012C811AB202D01E9101D0B0
:104C00001E811AB80ED026B105D08988929889865F
:104C1000929607D024A103D08988929802D08986E1
:104C2000929603D022A101D02A910DD0000E1CB182
:104C3000010EC76F000E20B1010EC719010802E175
:104C40001E9101D01E8128A339D0000E1CB3010E85
:104C5000C76F000E20B3010EC719010802E122B38D
:104C600002D02CA327D02AB324D02CB30CD000011F
:104C70006A510F08D8B402D0010105D0640E1C6E31
:104C80006BC01DF001012C831AB202D01E9301D01B
:104C90001E831AB80ED026B305D0898892988986CB
:104CA000929607D024A303D08988929802D089864F
:104CB000929603D022A301D02A930DD0000E1CB3EC
:104CC000010EC76F000E20B3010EC719010802E1E3
:104CD0001E9301D01E8328A539D0000E1CB5010EED
:104CE000C76F000E20B5010EC719010802E122B5F9
:104CF00002D02CA527D02AB524D02CB50CD0000189
:104D00006A510F08D8B402D0010105D0640E1C6EA0
:104D10006BC01DF001012C851AB202D01E9501D086
:104D20001E851AB80ED026B505D089889298898636
:104D3000929607D024A503D08988929802D08986BC
:104D4000929603D022A501D02A950DD0000E1CB555
:104D5000010EC76F000E20B5010EC719010802E150
:104D60001E9501D01E8528A739D0000E1CB7010E54
:104D7000C76F000E20B7010EC719010802E122B764
:104D800002D02CA727D02AB724D02CB70CD00001F2
:104D90006A510F08D8B402D0010105D0640E1C6E10
:104DA0006BC01DF001012C871AB202D01E9701D0F2
:104DB0001E871AB80ED026B705D0898892988986A2
:104DC000929607D024A703D08988929802D089862A
:104DD000929603D022A701D02A970DD0000E1CB7BF
:104DE000010EC76F000E20B7010EC719010802E1BE
:104DF0001E9701D01E8728A939D0000E1CB9010EBC
:104E0000C76F000E20B9010EC719010802E122B9CF
:104E100002D02CA927D02AB924D02CB90CD000015B
:104E20006A510F08D8B402D0010105D0640E1C6E7F
:104E30006BC01DF001012C891AB202D01E9901D05D
:104E40001E891AB80ED026B905D08988929889860D
:104E5000929607D024A903D08988929802D0898697
:104E6000929603D022A901D02A990DD0000E1CB928
:104E7000010EC76F000E20B9010EC719010802E12B
:104E80001E9901D01E8928AB39D0000E1CBB010E23
:104E9000C76F000E20BB010EC719010802E122BB3B
:104EA00002D02CAB27D02ABB24D02CBB0CD00001C5
:104EB0006A510F08D8B402D0010105D0640E1C6EEF
:104EC0006BC01DF001012C8B1AB202D01E9B01D0C9
:104ED0001E8B1AB80ED026BB05D089889298898679
:104EE000929607D024AB03D08988929802D0898605
:104EF000929603D022AB01D02A9B0DD0000E1CBB92
:104F0000010EC76F000E20BB010EC719010802E198
:104F10001E9B01D01E8B28AD39D0000E1CBD010E8A
:104F2000C76F000E20BD010EC719010802E122BDA6
:104F300002D02CAD27D02ABD24D02CBD0CD000012E
:104F40006A510F08D8B402D0010105D0640E1C6E5E
:104F50006BC01DF001012C8D1AB202D01E9D01D034
:104F60001E8D1AB80ED026BD05D0898892988986E4
:104F7000929607D024AD03D08988929802D0898672
:104F8000929603D022AD01D02A9D0DD0000E1CBDFB
:104F9000010EC76F000E20BD010EC719010802E106
:104FA0001E9D01D01E8D28AF39D0000E1CBF010EF2
:104FB000C76F000E20BF010EC719010802E122BF12
:104FC00002D02CAF27D02ABF24D02CBF0CD0000198
:104FD0006A510F08D8B402D0010105D0640E1C6ECE
:104FE0006BC01DF001012C8F1AB202D01E9F01D0A0
:104FF0001E8F1AB80ED026BF05D089889298898650
:10500000929607D024AF03D08988929802D08986DF
:10501000929603D022AF01D02A9F0DD0000E1CBF64
:10502000010EC76F000E20BF010EC719010802E173
:105030001E9F01D01E8F000E1BB1010EC76F000E08
:105040001FB1010EC719010802E121A102D01AAA5D
:105050002DD02DB10ED000016A510F08D8B402D066
:10506000010107D0010129B104D0640E1C6E6BC090
:105070001DF02D8129B117D01AB202D01D9101D097
:105080001D811AB810D027A10ED025B105D089886E
:1050900092988986929607D023A103D08988929806
:1050A00002D089869296010EBB6F4BD021B149D0B8
:1050B0002D9129911D8123B102D025B10DD0BB5373
:1050C0000BE1010EC66F0001D6EC1FF0012C01D0E0
:1050D00002D089989298010123A102D025B10DD068
:1050E000BB530BE1020EC66F0001D6EC1FF0012C82
:1050F00001D002D08996929601012DB122D02DB314
:1051000020D02DB51ED02DB71CD02DB91AD02DBB57
:1051100018D02DBD16D02DBF14D02EB112D02EB365
:1051200010D02EB50ED02EB70CD02EB90AD02EBB73
:1051300008D02EBD06D02EBF04D0899692968998AD
:105140009298000E1BB3010EC76F000E1FB3010E25
:10515000C719010802E121A302D01AAA2DD02DB34C
:105160000ED000016A510F08D8B402D0010107D057
:10517000010129B304D0640E1C6E6BC01DF02D8399
:1051800029B317D01AB202D01D9301D01D831AB8CB
:1051900010D027A30ED025B305D089889298898690
:1051A000929607D023A303D08988929802D089864B
:1051B0009296010EBB6F4BD021B349D02D9329930A
:1051C0001D8323B302D025B30DD0BB530BE1010ED9
:1051D000C66F0001D6EC1FF0012C01D002D08998D7
:1051E0009298010123A302D025B30DD0BB530BE14C
:1051F000020EC66F0001D6EC1FF0012C01D002D0C8
:105200008996929601012DB122D02DB320D02DB5D3
:105210001ED02DB71CD02DB91AD02DBB18D02DBD46
:1052200016D02DBF14D02EB112D02EB310D02EB563
:105230000ED02EB70CD02EB90AD02EBB08D02EBD62
:1052400006D02EBF04D08996929689989298000E27
:105250001BB5010EC76F000E1FB5010EC71901085F
:1052600002E121A502D01AAA2DD02DB50ED0000141
:105270006A510F08D8B402D0010107D0010129B545
:1052800004D0640E1C6E6BC01DF02D8529B517D09F
:105290001AB202D01D9501D01D851AB810D027A5CD
:1052A0000ED025B505D0898892988986929607D028
:1052B00023A503D08988929802D089869296010E00
:1052C000BB6F4BD021B549D02D9529951D8523B5B0
:1052D00002D025B50DD0BB530BE1010EC66F000106
:1052E000D6EC1FF0012C01D002D0899892980101D0
:1052F00023A502D025B50DD0BB530BE1020EC66F1E
:105300000001D6EC1FF0012C01D002D089969296B4
:1053100001012DB122D02DB320D02DB51ED02DB737
:105320001CD02DB91AD02DBB18D02DBD16D02DBF35
:1053300014D02EB112D02EB310D02EB50ED02EB761
:105340000CD02EB90AD02EBB08D02EBD06D02EBF51
:1053500004D08996929689989298000E1BB7010EF8
:10536000C76F000E1FB7010EC719010802E121A780
:1053700002D01AAA2DD02DB70ED000016A510F0805
:10538000D8B402D0010107D0010129B704D0640EBE
:105390001C6E6BC01DF02D8729B717D01AB202D032
:1053A0001D9701D01D871AB810D027A70ED025B79A
:1053B00005D0898892988986929607D023A703D032
:1053C0008988929802D089869296010EBB6F4BD045
:1053D00021B749D02D9729971D8723B702D025B72C
:1053E0000DD0BB530BE1010EC66F0001D6EC1FF0D0
:1053F000012C01D002D089989298010123A702D0F4
:1054000025B70DD0BB530BE1020EC66F0001D6ECE1
:105410001FF0012C01D002D08996929601012DB186
:1054200022D02DB320D02DB51ED02DB71CD02DB934
:105430001AD02DBB18D02DBD16D02DBF14D02EB133
:1054400012D02EB310D02EB50ED02EB70CD02EB950
:105450000AD02EBB08D02EBD06D02EBF04D0899610
:10546000929689989298000E1BB9010EC76F000E94
:105470001FB9010EC719010802E121A902D01AAA19
:105480002DD02DB90ED000016A510F08D8B402D02A
:10549000010107D0010129B904D0640E1C6E6BC054
:1054A0001DF02D8929B917D01AB202D01D9901D04B
:1054B0001D891AB810D027A90ED025B905D0898822
:1054C00092988986929607D023A903D089889298CA
:1054D00002D089869296010EBB6F4BD021B949D07C
:1054E0002D9929991D8923B902D025B90DD0BB5317
:1054F0000BE1010EC66F0001D6EC1FF0012C01D0AC
:1055000002D089989298010123A902D025B90DD023
:10551000BB530BE1020EC66F0001D6EC1FF0012C4D
:1055200001D002D08996929601012DB122D02DB3DF
:1055300020D02DB51ED02DB71CD02DB91AD02DBB23
:1055400018D02DBD16D02DBF14D02EB112D02EB331
:1055500010D02EB50ED02EB70CD02EB90AD02EBB3F
:1055600008D02EBD06D02EBF04D089969296899879
:105570009298000E1BBB010EC76F000E1FBB010EE1
:10558000C719010802E121AB02D01AAA2DD02DBB08
:105590000ED000016A510F08D8B402D0010107D023
:1055A000010129BB04D0640E1C6E6BC01DF02D8B55
:1055B00029BB17D01AB202D01D9B01D01D8B1AB87F
:1055C00010D027AB0ED025BB05D08988929889864C
:1055D000929607D023AB03D08988929802D089860F
:1055E0009296010EBB6F4BD021BB49D02D9B299BBE
:1055F0001D8B23BB02D025BB0DD0BB530BE1010E8D
:10560000C66F0001D6EC1FF0012C01D002D08998A2
:105610009298010123AB02D025BB0DD0BB530BE107
:10562000020EC66F0001D6EC1FF0012C01D002D093
:105630008996929601012DB122D02DB320D02DB59F
:105640001ED02DB71CD02DB91AD02DBB18D02DBD12
:1056500016D02DBF14D02EB112D02EB310D02EB52F
:105660000ED02EB70CD02EB90AD02EBB08D02EBD2E
:1056700006D02EBF04D08996929689989298000EF3
:105680001BBD010EC76F000E1FBD010EC71901081B
:1056900002E121AD02D01AAA2DD02DBD0ED00001FD
:1056A0006A510F08D8B402D0010107D0010129BD09
:1056B00004D0640E1C6E6BC01DF02D8D29BD17D05B
:1056C0001AB202D01D9D01D01D8D1AB810D027AD81
:1056D0000ED025BD05D0898892988986929607D0EC
:1056E00023AD03D08988929802D089869296010EC4
:1056F000BB6F4BD021BD49D02D9D299D1D8D23BD54
:1057000002D025BD0DD0BB530BE1010EC66F0001C9
:10571000D6EC1FF0012C01D002D08998929801019B
:1057200023AD02D025BD0DD0BB530BE1020EC66FD9
:105730000001D6EC1FF0012C01D002D08996929680
:1057400001012DB122D02DB320D02DB51ED02DB703
:105750001CD02DB91AD02DBB18D02DBD16D02DBF01
:1057600014D02EB112D02EB310D02EB50ED02EB72D
:105770000CD02EB90AD02EBB08D02EBD06D02EBF1D
:1057800004D08996929689989298000E1BBF010EBC
:10579000C76F000E1FBF010EC719010802E121AF3C
:1057A00002D01AAA2DD02DBF0ED000016A510F08C9
:1057B000D8B402D0010107D0010129BF04D0640E82
:1057C0001C6E6BC01DF02D8F29BF17D01AB202D0EE
:1057D0001D9F01D01D8F1AB810D027AF0ED025BF46
:1057E00005D0898892988986929607D023AF03D0F6
:1057F0008988929802D089869296010EBB6F4BD011
:1058000021BF49D02D9F299F1D8F23BF02D025BFC7
:105810000DD0BB530BE1010EC66F0001D6EC1FF09B
:10582000012C01D002D089989298010123AF02D0B7
:1058300025BF0DD0BB530BE1020EC66F0001D6ECA5
:105840001FF0012C01D002D08996929601012DB152
:1058500022D02DB320D02DB51ED02DB71CD02DB900
:105860001AD02DBB18D02DBD16D02DBF14D02EB1FF
:1058700012D02EB310D02EB50ED02EB70CD02EB91C
:105880000AD02EBB08D02EBD06D02EBF04D08996DC
:10589000929689989298000E1CB1010EC76F000E67
:1058A00020B1010EC719010802E122A102D01AAAF3
:1058B0002DD02EB10ED000016A510F08D8B402D0FD
:1058C000010107D001012AB104D0640E1C6E6BC027
:1058D0001DF02E812AB117D01AB202D01E9101D02C
:1058E0001E811AB810D028A10ED026B105D0898803
:1058F00092988986929607D024A103D0898892989D
:1059000002D089869296010EBB6F4BD022B149D04E
:105910002E912A911E8124B102D026B10DD0BB5305
:105920000BE1010EC66F0001D6EC1FF0012C01D077
:1059300002D089989298010124A102D026B10DD0FD
:10594000BB530BE1020EC66F0001D6EC1FF0012C19
:1059500001D002D08996929601012DB122D02DB3AB
:1059600020D02DB51ED02DB71CD02DB91AD02DBBEF
:1059700018D02DBD16D02DBF14D02EB112D02EB3FD
:1059800010D02EB50ED02EB70CD02EB90AD02EBB0B
:1059900008D02EBD06D02EBF04D089969296899845
:1059A0009298000E1CB3010EC76F000E20B3010EBB
:1059B000C719010802E122A302D01AAA2DD02EB3E2
:1059C0000ED000016A510F08D8B402D0010107D0EF
:1059D00001012AB304D0640E1C6E6BC01DF02E832F
:1059E0002AB317D01AB202D01E9301D01E831AB860
:1059F00010D028A30ED026B305D089889298898626
:105A0000929607D024A303D08988929802D08986E1
:105A10009296010EBB6F4BD022B349D02E932A939E
:105A20001E8324B302D026B30DD0BB530BE1010E6D
:105A3000C66F0001D6EC1FF0012C01D002D089986E
:105A40009298010124A302D026B30DD0BB530BE1E1
:105A5000020EC66F0001D6EC1FF0012C01D002D05F
:105A60008996929601012DB122D02DB320D02DB56B
:105A70001ED02DB71CD02DB91AD02DBB18D02DBDDE
:105A800016D02DBF14D02EB112D02EB310D02EB5FB
:105A90000ED02EB70CD02EB90AD02EBB08D02EBDFA
:105AA00006D02EBF04D08996929689989298000EBF
:105AB0001CB5010EC76F000E20B5010EC7190108F5
:105AC00002E122A502D01AAA2DD02EB50ED00001D7
:105AD0006A510F08D8B402D0010107D001012AB5DC
