:04000000BAEF52F011
:08000800046ED8CF05F0E0CF33
:1000100006F00001E9CF0CF0EACF07F0E1CF08F0DD
:10002000E2CF09F0D9CF0AF0DACF0BF0F3CF12F01C
:10003000F4CF13F0FACF14F0F5CF15F0F6CF16F099
:10004000F7CF17F000C00EF001C00FF002C010F0A3
:1000500003C011F09DA230EF00F09EB2CBEF02F092
:100060009DAA36EF00F09EBAC3EF02F00EC000F07A
:100070000FC001F010C002F011C003F00CC0E9FF86
:1000800007C0EAFF078E08C0E1FF09C0E2FF0AC00F
:10009000D9FF0BC0DAFF12C0F3FF13C0F4FF14C086
:1000A000FAFF15C0F5FF16C0F6FF17C0F7FF0450A2
:1000B00006C0E0FF05C0D8FF1000F76ACA0FF66E51
:1000C000000EF7220900F550120000C1814001C066
:1000D000804101C0804100C1814001C0804100C118
:1000E000814000C1814001C0804101C0804100C108
:1000F000814000C1814001C0804100C1814001C0F8
:10010000804101C0804100C1814001C0804100C1E7
:10011000814000C1814001C0804100C1814001C0D7
:10012000804101C0804100C1814000C1814001C0C7
:10013000804101C0804100C1814001C0804100C1B7
:10014000814000C1814001C0804101C0804100C1A7
:10015000814000C1814001C0804100C1814001C097
:10016000804101C0804100C1814000C1814001C087
:10017000804101C0804100C1814001C0804100C177
:10018000814000C1814001C0804100C1814001C067
:10019000804101C0804100C1814001C0804100C157
:1001A000814000C1814001C0804101C0804100C147
:1001B000814000C1814001C0804100C1814001C037
:1001C000804101C0804100C18140F76ADA0FF66EBC
:1001D000010EF7220900F550120000C0C101C3034F
:1001E00002C2C60607C705C5C404CC0C0DCD0FCF8F
:1001F000CE0E0ACACB0BC90908C8D81819D91BDBFF
:10020000DA1A1EDEDF1FDD1D1CDC14D4D515D7174E
:1002100016D6D21213D311D1D010F03031F133F3FE
:10022000F23236F6F737F53534F43CFCFD3DFF3F4E
:100230003EFEFA3A3BFB39F9F83828E8E929EB2B7E
:100240002AEAEE2E2FEF2DEDEC2CE42425E527E70E
:10025000E62622E2E323E12120E0A06061A163A37E
:10026000A26266A6A767A56564A46CACAD6DAF6F0E
:100270006EAEAA6A6BAB69A9A86878B8B979BB7B7E
:100280007ABABE7E7FBF7DBDBC7CB47475B577B7CE
:10029000B67672B2B373B17170B0509091519353FE
:1002A000529296565797559594549C5C5D9D5F9FCE
:1002B0009E5E5A9A9B5B99595898884849894B8BFE
:1002C0008A4A4E8E8F4F8D4D4C8C4484854587478E
:1002D0004686824243834181804004006F51785DAD
:1002E00013E17A6B7A0E7A25E96E010EEA6ED8B0C8
:1002F000EA2A2EC0EFFF04007A2B100E786F140E3E
:100300000901856F3DD10001785110085CE17A0E3A
:100310007A25E96E010EEA6ED8B0EA2A2EC0EFFF08
:1003200004007A2B010E7A5D7A0FE96E010EEA6EF7
:10033000D8B0EA2AEF50160807E370C078F0140E20
:100340000901856F3ED00001010E7A5D7A0FE96EDA
:10035000010EEA6ED8B0EA2AEF50200807E173C018
:1003600078F0140E0901856F2CD00001010E7A5D22
:100370007A0FE96E010EEA6ED8B0EA2AEF50210832
:1003800007E176C078F0140E0901856F1AD00001DC
:10039000010E7A5D7A0FE96E010EEA6ED8B0EA2A94
:1003A000EF50220807E175C078F0140E0901856F3F
:1003B00008D000017A6B6FC078F00901856B8A96CE
:1003C0009396DED000017551785D12E17A0E7A25A0
:1003D000E96E010EEA6ED8B0EA2A2EC0EFFF0400E3
:1003E0007A2B76C078F0140E0901856FC9D0000110
:1003F0007651785D2BE17A0E7A25E96E010EEA6E70
:10040000D8B0EA2A2EC0EFFF04007A2B01017B51FD
:10041000220809E17C51640DF3507D250901866FA6
:10042000876B0ED00101010E00017A5D7A0FE96E33
:10043000010EEA6ED8B0EA2A0901876BEFCF86F980
:10044000140E856F77C078F09BD000017751785DEE
:100450001AE17A0E7A25E96E010EEA6ED8B0EA2A20
:100460002EC0EFFF04007A2B09018651D8B487070C
:100470008607865304E1875302E173C078F0140EB7
:10048000856F7ED000017051785D12E17A0E7A2579
:10049000E96E010EEA6ED8B0EA2A2EC0EFFF040022
:1004A0007A2B71C078F0140E0901856F69D00001B4
:1004B0007151785D12E17A0E7A25E96E010EEA6ECD
:1004C000D8B0EA2A2EC0EFFF04007A2B72C078F071
:1004D000140E0901856F54D000017251785D12E14C
:1004E0007A0E7A25E96E010EEA6ED8B0EA2A2EC09D
:1004F000EFFF04007A2B150E786F140E0901856F3B
:100500003FD000017851150812E17A0E7A25E96E84
:10051000010EEA6ED8B0EA2A2EC0EFFF04007A2B53
:1005200073C078F0140E0901856F2AD00001735151
:10053000785D12E17A0E7A25E96E010EEA6ED8B086
:10054000EA2A2EC0EFFF04007A2B74C078F0140E54
:100550000901856F15D000017451785D11E17A0EA3
:100560007A25E96E010EEA6ED8B0EA2A2EC0EFFFB6
:1005700004006FC078F00901856B308A8A969396E3
:100580000001C8EF02F09EAAFED7AECF2EF0A5D68E
:100590009E9A36EF00F0192A0901855307E0850776
:1005A000855304E16FC078F08A9693961C520CE054
:1005B0001C061C5209E11D5204E01D061D5201E1FA
:1005C0001A843088640E1C6E1950320814E1196ABE
:1005D0001AB004D01A808A8A939A03D01A908A9A01
:1005E000939A1AAC07D02F5201E02F062F5201E147
:1005F0001A8A01D02F6A1B5213E01B061B520AE114
:10060000886930B205D01AA202D01A9201D01A829B
:100610006CC01BF0315204E03106315201E13092DE
:100620009E92000136EF00F041542B434D47463D6A
:10063000310041542B434D47533D220041542B433D
:100640004D47463D310041542B434D47533D220019
:1006500041542B434D47463D310041542B434D47B8
:10066000533D220041542B434D47463D31004154F8
:100670002B434D47533D220041542B434D47463DAC
:10068000310041542B434D47533D220041542B43ED
:100690004D47463D310041542B434D47533D2200C9
:1006A00041542B434D47463D310041542B434D4768
:1006B000533D220041542B434D47463D31004154A8
:1006C0002B434D47533D220041542B434D47463D5C
:1006D000310041542B434D47533D220041542B439D
:1006E0004D47463D310041542B434D47533D220079
:1006F00041542B434D47463D310041542B434D4718
:10070000533D220041542B434D47463D3100415457
:100710002B434D47533D220041542B434D47463D0B
:10072000310041542B434D47533D220041542B434C
:100730004D47463D310041542B434D47533D220028
:1007400041542B434D47463D310041542B434D47C7
:10075000533D220041542B434D47463D3100415407
:100760002B434D47533D220041542B434D47463DBB
:10077000310041542B434D47533D220041542B43FC
:100780004D47463D310041542B434D47533D2200D8
:1007900041542B434D47463D310041542B434D4777
:1007A000533D220041542B434D47463D31004154B7
:1007B0002B434D47533D220041542B434D47463D6B
:1007C000310041542B434D47533D220041542B43AC
:1007D0004D47463D310041542B434D47533D220088
:1007E00041542B434D47463D310041542B434D4727
:1007F000533D220041542B434D47463D3100415467
:100800002B434D47533D220041542B434D47463D1A
:10081000310041542B434D47533D220041542B435B
:100820004D47463D310041542B434D47533D220037
:1008300041542B434D47463D310041542B434D47D6
:10084000533D220041542B434D47463D3100415416
:100850002B434D47533D220041542B434D47463DCA
:10086000310041542B434D47533D220041542B430B
:100870004D47463D310041542B434D47533D2200E7
:1008800041542B434D47463D310041542B434D4786
:10089000533D220041542B434D47463D31004154C6
:1008A0002B434D47533D220041542B434D47533D6D
:1008B000220041542B434D47533D220041542B43CA
:1008C0004D47533D220041542B434D47533D220099
:1008D00041542B434D47533D220041542B434D4738
:1008E000533D220041542B434D47533D2200415478
:1008F0002B434D47533D220041542B434D47533D1D
:10090000220041542B434D47533D220041542B4379
:100910004D47533D220041542B434D47533D220048
:1009200041542B434D47533D220041542B434D47E7
:10093000533D220041542B434D47533D2200415427
:100940002B434D47533D220041542B434D47463DD9
:1009500031000C0EEA6E240EE96EEF5011E0050E28
:10096000016EBF0E006E0400002EFDD7012EF9D7D8
:100970002E0E006E002EFED700000400EF2EEFD7E3
:100980001200929A899A0C0125514009286FC9508A
:1009900028CCC9FFC730FEE3C95026CCC9FFC730F9
:1009A000FEE3C95027CCC9FFC730FEE3929A898A7B
:1009B00000011200929A898A929A0C01256B0A0E04
:1009C000266FAA0E276F0001DCDF020E0C01256FD7
:1009D0000A0E266FAA0E276F0001D3DF040E0C014A
:1009E000256F0A0E266FAA0E276F0001CADF060EBA
:1009F0000C01256F0A0E266FAA0E276F0001C1DFBA
:100A0000080E0C01256F0A0E266FAA0E276F000133
:100A1000B8DF0A0E0C01256F266FAA0E276F0001A2
:100A2000B0DF0C0E0C01256F0A0E266FAA0E276F81
:100A30000001A7DF0E0E0C01256F0A0E266FAA0E0D
:100A4000276F00019EDF2CEF53F01BCC25FC0C011F
:100A5000266B1CCC27FC000194DF12001BCC25FC6C
:100A6000100E0C01266F1CCC27FC00018ADF12003F
:100A7000F2CF25FCF29EAA6A010EA96EA69CA69E44
:100A8000A680A8500C0125BFF28E396E39C03AF00D
:100A90000B019E9139B09E81D89039309E93E8B079
:100AA0009E833930006E00323F0E00169E9500B0D6
:100AB0009E853930006E003200321F0E00169E9760
:100AC00000B09E873938006E0F0E00169E9900B058
:100AD0009E893938006E0032070E00169E9B00B0CA
:100AE0009E8B3938006E00320032030E00169E9D38
:100AF00000B09E8D006A39BE00809E9F00B09E8F20
:100B0000F2CF25FCF29EAA6A020EA96EA69CA69EB2
:100B1000A680A8500C0125BFF28E396E39C03BF07B
:100B20000B019F9139B09F81D89039309F93E8B0E5
:100B30009F833930006E00323F0E00169F9500B043
:100B40009F853930006E003200321F0E00169F97CD
:100B500000B09F873938006E0F0E00169F9900B0C5
:100B60009F893938006E0032070E00169F9B00B037
:100B70009F8B3938006E00320032030E00169F9DA5
:100B800000B09F8D006A39BE00809F9F00B09F8F8C
:100B90000C0112930B019EA103D00C0112830B01D7
:100BA0000C0112950B019EA303D00C0112850B01C1
:100BB0000C0112970B019EA503D00C0112870B01AB
:100BC0000C0112990B019EA703D00C0112890B0195
:100BD0000C01129B0B019EA903D00C01128B0B017F
:100BE0000C01129D0B019EAB03D00C01128D0B0169
:100BF0000C01129F0B019EAD03D00C01128F0B0153
:100C00000C0113910B019EAF03D00C0113810B015A
:100C10000C0113930B019FA103D00C0113830B0153
:100C20000C0113950B019FA303D00C0113850B013D
:100C30000C0113970B019FA503D00C0113870B0127
:100C40000C0113990B019FA703D00C0113890B0111
:100C50000C01139B0B019FA903D00C01138B0B01FB
:100C60000C01139D0B019FAB03D00C01138D0B01E5
:100C70000C01139F0B019FAD03D00C01138F0B01CF
:100C80000C0114910B019FAF03D00C0114810B01D7
:100C9000F2CF25FCF29EAA6A040EA96EA69CA69E1F
:100CA000A680A8500C0125BFF28E396E39C03DF0E8
:100CB0000B01A09139B0A081D8903930A093E8B051
:100CC000A0833930006E00323F0E0016A09500B0B0
:100CD000A0853930006E003200321F0E0016A0973A
:100CE00000B0A0873938006E0F0E0016A09900B032
:100CF000A0893938006E0032070E0016A09B00B0A4
:100D0000A08B3938006E00320032030E0016A09D11
:100D100000B0A08D006A39BE0080A09F00B0A08FF7
:100D2000F2CF25FCF29EAA6A050EA96EA69CA69E8D
:100D3000A680A8500C0125BFF28E396E39C03EF056
:100D40000B01A19139B0A181D8903930A193E8B0BD
:100D5000A1833930006E00323F0E0016A19500B01D
:100D6000A1853930006E003200321F0E0016A197A7
:100D700000B0A1873938006E0F0E0016A19900B09F
:100D8000A1893938006E0032070E0016A19B00B011
:100D9000A18B3938006E00320032030E0016A19D7F
:100DA00000B0A18D006A39BE0080A19F00B0A18F64
:100DB000F2CF25FCF29EAA6A070EA96EA69CA69EFB
:100DC000A680A8500C0125BFF28E396E39C040F0C4
:100DD0000B01A29139B0A281D8903930A293E8B02A
:100DE000A2833930006E00323F0E0016A29500B08B
:100DF000A2853930006E003200321F0E0016A29715
:100E000000B0A2873938006E0F0E0016A29900B00C
:100E1000A2893938006E0032070E0016A29B00B07E
:100E2000A28B3938006E00320032030E0016A29DEC
:100E300000B0A28D006A39BE0080A29F00B0A28FD0
:100E4000F2CF25FCF29EAA6A080EA96EA69CA69E69
:100E5000A680A8500C0125BFF28E396E39C041F032
:100E60000B01A39139B0A381D8903930A393E8B096
:100E7000A3833930006E00323F0E0016A39500B0F8
:100E8000A3853930006E003200321F0E0016A39782
:100E900000B0A3873938006E0F0E0016A39900B07A
:100EA000A3893938006E0032070E0016A39B00B0EC
:100EB000A38B3938006E00320032030E0016A39D5A
:100EC00000B0A38D006A39BE0080A39F00B0A38F3D
:100ED000F2CF25FCF29EAA6A0A0EA96EA69CA69ED7
:100EE000A680A8500C0125BFF28E396E39C043F0A0
:100EF0000B01A49139B0A481D8903930A493E8B003
:100F0000A4833930006E00323F0E0016A49500B065
:100F1000A4853930006E003200321F0E0016A497EF
:100F200000B0A4873938006E0F0E0016A49900B0E7
:100F3000A4893938006E0032070E0016A49B00B059
:100F4000A48B3938006E00320032030E0016A49DC7
:100F500000B0A48D006A39BE0080A49F00B0A48FA9
:100F6000F2CF25FCF29EAA6A0B0EA96EA69CA69E45
:100F7000A680A8500C0125BFF28E396E39C044F00E
:100F80000B01A59139B0A581D8903930A593E8B06F
:100F9000A5833930006E00323F0E0016A59500B0D3
:100FA000A5853930006E003200321F0E0016A5975D
:100FB00000B0A5873938006E0F0E0016A59900B055
:100FC000A5893938006E0032070E0016A59B00B0C7
:100FD000A58B3938006E00320032030E0016A59D35
:100FE00000B0A58D006A39BE0080A59F00B0A58F16
:100FF000F2CF25FCF29EAA6A0D0EA96EA69CA69EB3
:10100000A680A8500C0125BFF28E396E39C046F07B
:101010000B01A69139B0A681D8903930A693E8B0DB
:10102000A6833930006E00323F0E0016A69500B040
:10103000A6853930006E003200321F0E0016A697CA
:1010400000B0A6873938006E0F0E0016A69900B0C2
:10105000A6893938006E0032070E0016A69B00B034
:10106000A68B3938006E00320032030E0016A69DA2
:1010700000B0A68D006A39BE0080A69F00B0A68F82
:10108000F2CF25FCF29EAA6A0E0EA96EA69CA69E21
:10109000A680A8500C0125BFF28E396E39C047F0EA
:1010A0000B01A79139B0A781D8903930A793E8B048
:1010B000A7833930006E00323F0E0016A79500B0AE
:1010C000A7853930006E003200321F0E0016A79738
:1010D00000B0A7873938006E0F0E0016A79900B030
:1010E000A7893938006E0032070E0016A79B00B0A2
:1010F000A78B3938006E00320032030E0016A79D10
:1011000000B0A78D006A39BE0080A79F00B0A78FEE
:10111000F2CF25FCF29EAA6A100EA96EA69CA69E8E
:10112000A680A8500C0125BFF28E396E0B01B2913A
:1011300039B0B281D8903930B293E8B0B283393047
:10114000006E00323F0E0016B29500B0B285393005
:10115000006E003200321F0E0016B29700B0B28748
:101160003938006E0F0E0016B29900B0B2893938C6
:10117000006E0032070E0016B29B00B0B28B3938F9
:10118000006E00320032030E0016B29D00B0B28D28
:10119000006A39BE0080B29F00B0B28FF2CF25FC4A
:1011A000F29EAA6A110EA96EA69CA69EA680A850C1
:1011B0000C0125BFF28E396E0B01B39139B0B381AA
:1011C000D8903930B393E8B0B383F2CF25FCF29EC8
:1011D000AA6A120EA96EA69CA69EA680A8500C0113
:1011E00025BFF28E396E0B01B39539B0B385D89017
:1011F0003930B397E8B0B3873930006E00323F0E14
:101200000016B39900B0B3893930006E0032003255
:101210001F0E0016B39B00B0B38B3938006E0F0E53
:101220000016B39D00B0B38D3938006E0032070E42
:101230000016B39F00B0B38FF2CF25FCF29EAA6ACE
:10124000140EA96EA69CA69EA680A8500C0125BFD0
:10125000F28E396E0B01B49139B0B481D890393027
:10126000B493E8B0B4833930006E00323F0E0016FC
:10127000B49500B0B4853930006E003200321F0ED4
:101280000016B49700B0B4873938006E0F0E001600
:10129000B49900B0B4893938006E0032070E0016D8
:1012A000B49B00B0B48B3938006E00320032030EAC
:1012B0000016B49D00B0B48D006A39BE0080B49FA2
:1012C00000B0B48FF2CF25FCF29EAA6A150EA96E6B
:1012D000A69CA69EA680A8500C0125BFF28E396E52
:1012E0000B01B59139B0B581D8903930B593E8B0DC
:1012F000B583F2CF25FCF29EAA6A160EA96EA69CB3
:10130000A69EA680A8500C0125BFF28E396E0B0157
:10131000B59539B0B585D8903930B597E8B0B5876F
:101320003930006E00323F0E0016B59900B0B58915
:101330003930006E003200321F0E0016B59B00B02F
:10134000B58B3938006E0F0E0016B59D00B0B58D07
:101350003938006E0032070E0016B59F00B0B58F09
:10136000F2CF25FCF29EAA6A180EA96EA69CA69E34
:10137000A680A8500C0125BFF28E00016A6FF2CF43
:1013800025FCF29EAA6A190EA96EA69CA69EA680AE
:10139000A8500C0125BFF28E00016B6FF2CF25FC27
:1013A000F29EAA6A1A0EA96EA69CA69EA680A850B6
:1013B0000C0125BFF28E00016C6FF2CF25FCF29E6E
:1013C000AA6A1B0EA96EA69CA69EA680A8500C0118
:1013D00025BFF28E00016D6FF2CF25FCF29EAA6A46
:1013E0001C0EA96EA69CA69EA680A8500C0125BF27
:1013F000F28E0B01E96BE86FF2CF25FCF29EAA6A30
:101400001D0EA96EA69CA69EA680A8500C0125BF05
:10141000F28E0001796FF2CF25FCF29EAA6A1E0EB1
:10142000A96EA69CA69EA680A8500C0125BFF28E90
:101430000B01EB6BEA6FF2CF25FCF29EAA6A1F0E3E
:10144000A96EA69CA69EA680A8500C0125BFF28E70
:101450000B01ED6BEC6FF2CF25FCF29EAA6A200E19
:10146000A96EA69CA69EA680A8500C0125BFF28E50
:101470000B01EF6BEE6FF2CF25FCF29EAA6A210EF4
:10148000A96EA69CA69EA680A8500C0125BFF28E30
:101490000B01F16BF06FF2CF25FCF29EAA6A220ECF
:1014A000A96EA69CA69EA680A8500C0125BFF28E10
:1014B0000B01F36BF26FF2CF25FCF29EAA6A230EAA
:1014C000A96EA69CA69EA680A8500C0125BFF28EF0
:1014D0000B01F56BF46FF2CF25FCF29EAA6A240E85
:1014E000A96EA69CA69EA680A8500C0125BFF28ED0
:1014F0000B01F76BF66FF2CF25FCF29EAA6A250E60
:10150000A96EA69CA69EA680A8500C0125BFF28EAF
:101510000B01F96BF86FF2CF25FCF29EAA6A260E3A
:10152000A96EA69CA69EA680A8500C0125BFF28E8F
:101530000B01FB6BFA6FF2CF25FCF29EAA6A270E15
:10154000A96EA69CA69EA680A8500C0125BFF28E6F
:101550000B01FD6BFC6FF2CF25FCF29EAA6A280EF0
:10156000A96EA69CA69EA680A8500C0125BFF28E4F
:101570000B01FF6BFE6FF2CF25FCF29EAA6A290ECB
:10158000A96EA69CA69EA680A8500C0125BFF28E2F
:10159000016B006FF2CF25FCF29EAA6A2A0EA96E9B
:1015A000A69CA69EA680A85025BFF28E036B026F54
:1015B000F2CF25FCF29EAA6A2B0EA96EA69CA69ECF
:1015C000A680A85025BFF28E056B046FF2CF25FCD4
:1015D000F29EAA6A2C0EA96EA69CA69EA680A85072
:1015E00025BFF28E076B066FF2CF25FCF29EAA6A2A
:1015F0002D0EA96EA69CA69EA680A85025BFF28E91
:10160000096B086FF2CF25FCF29EAA6A2E0EA96E16
:10161000A69CA69EA680A85025BFF28E0B6B0A6FD3
:10162000F2CF25FCF29EAA6A2F0EA96EA69CA69E5A
:10163000A680A85025BFF28E0D6B0C6FF2CF25FC53
:10164000F29EAA6A300EA96EA69CA69EA680A850FD
:1016500025BFF28E0F6B0E6FF2CF25FCF29EAA6AA9
:10166000310EA96EA69CA69EA680A85025BFF28E1C
:10167000116B106F1B6B0400320E1B25256FF2CF10
:1016800026FCF29EAA6A25CCA9FFA69CA69EA6804F
:10169000A85026BFF28E1C6F1C510D0803E01B5191
:1016A0000F0824E2036A1B518B0FE96E090E032019
:1016B000EA6EEF6A320E1B25256FF250006EF29E25
:1016C000AA6A25CCA9FF1CCCA8FFA69CA69EA6842E
:1016D0000F01550EA76EAA0EA76EA682A6B2FED760
:1016E000A6940050F21210D00BD00C01036A1B51CB
:1016F0008B0FE96E090E0320EA6E1CCCEFFF0F0181
:101700000C011B2BB8D70F010C011E6B030E1D6FB4
:10171000206B1F6B226B216B04005D0E1D25256F56
:10172000000E1E21266FF2CF27FCF29E26CCAAFFC8
:1017300025CCA9FFA69CA69EA680A85027BFF28E06
:10174000246B236F23510D0802E1245305E020533D
:1017500003E11F511E0809E29A0E1F25E96E090ECA
:101760002021EA6EEF6A13D008D09A0E1F25E96E89
:10177000090E2021EA6E23CCEFFF1ECC03F01D5191
:101780001D2BD8B41E2B1F2BD8B4202BC5D71D2B37
:10179000D8B41E2B206B1F6B04005D0E1D25256F1A
:1017A000000E1E21266FF2CF27FCF29E26CCAAFF48
:1017B00025CCA9FFA69CA69EA680A85027BFF28E86
:1017C000246B236F23510D0802E1245305E02053BD
:1017D00003E11F511E0809E2BA0E1F25E96E090E2A
:1017E0002021EA6EEF6A13D008D0BA0E1F25E96EE9
:1017F000090E2021EA6E23CCEFFF1ECC03F01D5111
:101800001D2BD8B41E2B1F2BD8B4202BC5D71D2BB6
:10181000D8B41E2B206B1F6B04005D0E1D25256F99
:10182000000E1E21266FF2CF27FCF29E26CCAAFFC7
:1018300025CCA9FFA69CA69EA680A85027BFF28E05
:10184000246B236F23510D0802E1245305E020533C
:1018500003E11F511E0809E2DA0E1F25E96E090E89
:101860002021EA6EEF6A13D008D0DA0E1F25E96E48
:10187000090E2021EA6E23CCEFFF1ECC03F01D5190
:101880001D2BD8B41E2B1F2BD8B4202BC5D71D2B36
:10189000D8B41E2B206B1F6B04005D0E1D25256F19
:1018A000000E1E21266FF2CF27FCF29E26CCAAFF47
:1018B00025CCA9FFA69CA69EA680A85027BFF28E85
:1018C000246B236F23510D0802E1245305E02053BC
:1018D00003E11F511E0809E2FA0E1F25E96E090EE9
:1018E0002021EA6EEF6A13D008D0FA0E1F25E96EA8
:1018F000090E2021EA6E23CCEFFF1ECC03F01D5110
:101900001D2BD8B41E2B1F2BD8B4202BC5D71D2BB5
:10191000D8B41E2B206B1F6B04005D0E1D25256F98
:10192000000E1E21266FF2CF27FCF29E26CCAAFFC6
:1019300025CCA9FFA69CA69EA680A85027BFF28E04
:10194000246B236F23510D0802E1245305E020533B
:1019500003E11F511E0809E21A0E1F25E96E0A0E47
:101960002021EA6EEF6A13D008D01A0E1F25E96E07
:101970000A0E2021EA6E23CCEFFF1ECC03F01D518E
:101980001D2BD8B41E2B1F2BD8B4202BC5D71D2B35
:10199000D8B41E2B206B1F6B04005D0E1D25256F18
:1019A000000E1E21266FF2CF27FCF29E26CCAAFF46
:1019B00025CCA9FFA69CA69EA680A85027BFF28E84
:1019C000246B236F23510D0802E1245305E02053BB
:1019D00003E11F511E0809E23A0E1F25E96E0A0EA7
:1019E0002021EA6EEF6A13D008D03A0E1F25E96E67
:1019F0000A0E2021EA6E23CCEFFF1ECC03F01D510E
:101A00001D2BD8B41E2B1F2BD8B4202BC5D71D2BB4
:101A1000D8B41E2B206B1F6B04005D0E1D25256F97
:101A2000000E1E21266FF2CF27FCF29E26CCAAFFC5
:101A300025CCA9FFA69CA69EA680A85027BFF28E03
:101A4000246B236F23510D0802E1245305E020533A
:101A500003E11F511E0809E25A0E1F25E96E0A0E06
:101A60002021EA6EEF6A13D008D05A0E1F25E96EC6
:101A70000A0E2021EA6E23CCEFFF1ECC03F01D518D
:101A80001D2BD8B41E2B1F2BD8B4202BC5D71D2B34
:101A9000D8B41E2B206B1F6B04005D0E1D25256F17
:101AA000000E1E21266FF2CF27FCF29E26CCAAFF45
:101AB00025CCA9FFA69CA69EA680A85027BFF28E83
:101AC000246B236F23510D0802E1245305E02053BA
:101AD00003E11F511E0809E27A0E1F25E96E0A0E66
:101AE0002021EA6EEF6A13D008D07A0E1F25E96E26
:101AF0000A0E2021EA6E23CCEFFF1ECC03F01D510D
:101B00001D2BD8B41E2B1F2BD8B4202BC5D71D2BB3
:101B1000D8B41E2B206B1F6B04005D0E1D25256F96
:101B2000000E1E21266FF2CF27FCF29E26CCAAFFC4
:101B300025CCA9FFA69CA69EA680A85027BFF28E02
:101B4000246B236F23510D0802E1245305E0205339
:101B500003E11F511E0809E29A0E1F25E96E0A0EC5
:101B60002021EA6EEF6A13D008D09A0E1F25E96E85
:101B70000A0E2021EA6E23CCEFFF1ECC03F01D518C
:101B80001D2BD8B41E2B1F2BD8B4202BC5D71D2B33
:101B9000D8B41E2B206B1F6B04005D0E1D25256F16
:101BA000000E1E21266FF2CF27FCF29E26CCAAFF44
:101BB00025CCA9FFA69CA69EA680A85027BFF28E82
:101BC000246B236F23510D0802E1245305E02053B9
:101BD00003E11F511E0809E2BA0E1F25E96E0A0E25
:101BE0002021EA6EEF6A13D008D0BA0E1F25E96EE5
:101BF0000A0E2021EA6E23CCEFFF1ECC03F01D510C
:101C00001D2BD8B41E2B1F2BD8B4202BC5D71D2BB2
:101C1000D8B41E2B206B1F6B04005D0E1D25256F95
:101C2000000E1E21266FF2CF27FCF29E26CCAAFFC3
:101C300025CCA9FFA69CA69EA680A85027BFF28E01
:101C4000246B236F23510D0802E1245305E0205338
:101C500003E11F511E0809E2DA0E1F25E96E0A0E84
:101C60002021EA6EEF6A13D008D0DA0E1F25E96E44
:101C70000A0E2021EA6E23CCEFFF1ECC03F01D518B
:101C80001D2BD8B41E2B1F2BD8B4202BC5D71D2B32
:101C9000D8B41E2B206B1F6B04005D0E1D25256F15
:101CA000000E1E21266FF2CF27FCF29E26CCAAFF43
:101CB00025CCA9FFA69CA69EA680A85027BFF28E81
:101CC000246B236F23510D0802E1245305E02053B8
:101CD00003E11F511E0809E2FA0E1F25E96E0A0EE4
:101CE0002021EA6EEF6A13D008D0FA0E1F25E96EA4
:101CF0000A0E2021EA6E23CCEFFF1ECC03F01D510B
:101D00001D2BD8B41E2B1F2BD8B4202BC5D71D2BB1
:101D1000D8B41E2B206B1F6B04005D0E1D25256F94
:101D2000000E1E21266FF2CF27FCF29E26CCAAFFC2
:101D300025CCA9FFA69CA69EA680A85027BFF28E00
:101D4000246B236F23510D0802E1245305E0205337
:101D500003E11F511E0809E21A0E1F25E96E0B0E42
:101D60002021EA6EEF6A13D008D01A0E1F25E96E03
:101D70000B0E2021EA6E23CCEFFF1ECC03F01D5189
:101D80001D2BD8B41E2B1F2BD8B4202BC5D71D2B31
:101D9000D8B41E2B206B1F6B04005D0E1D25256F14
:101DA000000E1E21266FF2CF27FCF29E26CCAAFF42
:101DB00025CCA9FFA69CA69EA680A85027BFF28E80
:101DC000246B236F23510D0802E1245305E02053B7
:101DD00003E11F511E0809E23A0E1F25E96E0B0EA2
:101DE0002021EA6EEF6A13D008D03A0E1F25E96E63
:101DF0000B0E2021EA6E23CCEFFF1ECC03F01D5109
:101E00001D2BD8B41E2B1F2BD8B4202BC5D71D2BB0
:101E1000D8B41E2B206B1F6B04005D0E1D25256F93
:101E2000000E1E21266FF2CF27FCF29E26CCAAFFC1
:101E300025CCA9FFA69CA69EA680A85027BFF28EFF
:101E4000246B236F23510D0802E1245305E0205336
:101E500003E11F511E0809E25A0E1F25E96E0B0E01
:101E60002021EA6EEF6A13D008D05A0E1F25E96EC2
:101E70000B0E2021EA6E23CCEFFF1ECC03F01D5188
:101E80001D2BD8B41E2B1F2BD8B4202BC5D71D2B30
:101E9000D8B41E2B206B1F6B04005D0E1D25256F13
:101EA000000E1E21266FF2CF27FCF29E26CCAAFF41
:101EB00025CCA9FFA69CA69EA680A85027BFF28E7F
:101EC000246B236F23510D0802E1245305E02053B6
:101ED00003E11F511E0809E27A0E1F25E96E0B0E61
:101EE0002021EA6EEF6A13D008D07A0E1F25E96E22
:101EF0000B0E2021EA6E23CCEFFF1ECC03F01D5108
:101F00001D2BD8B41E2B1F2BD8B4202BC5D70001F6
:101F1000F7EF53F0929A899A0C012B5141092E6FD9
:101F2000C9502ECCC9FFC730FEE3C9502CCCC9FF25
:101F3000C730FEE3C950C96AC730FEE3C9CF2DFCE4
:101F4000929A898A2DCC01F00001120029CC2BFC39
:101F5000090E0C012C6F0001DDDF01C02AFC0C0111
:101F60002ACC01F00001120029CC2BFC190E0C0127
:101F70002C6F0001CFDF01C02AFC0C012ACC01F03C
:101F8000000112000C012C51070B006E2C31016E68
:101F9000013201321F0E011601502D25E96E000E8F
:101FA0002E21EA6EEFCF01F0002A01D00132002E7F
:101FB000FDD7010E0116000112000C012D512F0357
:101FC000F3CF01F0F4CF00F03003F35000262E5190
:101FD0002F03F3500020026E000112000C012C515F
:101FE000070B006E2C31016E013201321F0E0116FB
:101FF00001502E25E96E000E2F21EA6E016A012A9A
:10200000002A01D00136002EFDD72D5303E00150E8
:10201000EF1203D0011E0150EF16000112000C0157
:10202000296B010E296F29BF03D02951100823E322
:10203000036A2951006EE8BE03062A6F03C02BFC19
:10204000036A2951006EE8BE03062C6F0B0E2E6F3B
:10205000BB0E2D6F000196DF2ACC2CFC0C012D6BE2
:1020600001B02D2B0B0E2F6FB80E2E6F0001B6DFB7
:102070000C01292BD8D70001FDEF13F0020E0C0143
:10208000296F000163DF01C083F91AA803D0090199
:10209000831F0001D890090183310B01BB93E8B085
:1020A000BB8309018331006E00323F0E00160B0125
:1020B000BB9500B0BB8509018331006E0032003250
:1020C0001F0E00160B01BB9700B0BB8709018339B7
:1020D000006E0F0E00160B01BB9900B0BB89090101
:1020E0008339006E0032070E00160B01BB9B00B057
:1020F000BB8B09018339006E00320032030E0016DB
:102100000B01BB9D00B0BB8D006A090183BF00803D
:102110000B01BB9F00B0BB8F020E0C01296F0001A9
:1021200023DF01C083F91AA803D00901831F00012E
:102130000B01BC91090183A103D00B01BC810901F2
:102140000C01296B000102DF01C083F91AA803D03A
:102150000901831F0001D890090183310B01BC9351
:10216000E8B0BC8309018331006E00323F0E0016D7
:102170000B01BC9500B0BC8509018331006E0032B3
:1021800000321F0E00160B01BC9700B0BC8709017E
:102190008339006E0F0E00160B01BC9900B0BC898C
:1021A00009018339006E0032070E00160B01BC9B3B
:1021B00000B0BC8B09018339006E00320032030E7F
:1021C00000160B01BC9D00B0BC8D006A090183BFE5
:1021D00000800B01BC9F00B0BC8F0C01296B00017B
:1021E000C3DE01C083F91AA803D00901831F0001CF
:1021F0000B01BD91090183A103D00B01BD81090130
:10220000010E0C01286F28511008D8A0F4D228CC58
:102210002CFC0C0E2E6F120E2D6F0001B3DE015040
:10222000010B0108D8A46BD128CC2CFC0B0E0C019F
:102230002E6FBB0E2D6F0001A5DE0150010BD8A43F
:10224000AFD028CC2CFC0B0E0C012E6FB80E2D6FCE
:10225000000198DE0150010BD8A494D0D8900C0155
:102260002835036ABE0FE96E0B0E0320EA6E010EDD
:10227000EE2601E3EF2AD8902835036ABE0FE96EF7
:102280000B0E0320EA6EECCF2AFCED52EFCF29FCB7
:10229000D8902835036AE80FE96E0B0E0320EA6E2A
:1022A000ECCF2EFCED52EFCF2DFC306B4B0E2F6F91
:1022B000000183DE02C02CFC01C02BFC0F0E0C01C0
:1022C0000124016E000E0220036E03502A5D58E3C4
:1022D00003E10150295D54E3D8902835036ABE0F0D
:1022E000E96E0B0E0320EA6EEC6AED52EF6A010E06
:1022F000285DF00F45E2100F0001E6EF14F00B012E
:102300009A910C013DD00B019A930C0139D00B012D
:102310009A950C0135D00B019A970C0131D00B0125
:102320009A990C012DD00B019A9B0C0129D00B011D
:102330009A9D0C0125D00B019A9F0C0121D00B0115
:102340009B910C011DD00B019B930C0119D00B012B
:102350009B950C0115D00B019B970C0111D00B0123
:102360009B990C010DD00B019B9B0C0109D00B011B
:102370009B9D0C0105D00B019B9F0C0101D00C0112
:102380000DD00001D8900C012835036ABE0FE96E0C
:102390000B0E0320EA6EEC6AED52EF6AAFD000013B
:1023A00028CC2CFC0B0E0C012E6FB80E2D6F0001EB
:1023B000E9DD0150010B0108D8A494D0D8900C019C
:1023C0002835036ABE0FE96E0B0E0320EA6E010E7C
:1023D000EE2601E3EF2AD8902835036ABE0FE96E96
:1023E0000B0E0320EA6EECCF2AFCED52EFCF29FC56
:1023F000D8902835036AE80FE96E0B0E0320EA6EC9
:10240000ECCF2EFCED52EFCF2DFC306B4B0E2F6F2F
:102410000001D3DD02C02CFC01C02BFC0F0E0C010F
:102420000124016E000E0220036E03502A5D58E362
:1024300003E10150295D54E3D8902835036ABE0FAB
:10244000E96E0B0E0320EA6EEC6AED52010EEF6EA0
:10245000285DF00F45E2100F000103EF15F00B01AE
:102460009A810C013DD00B019A830C0139D00B01EC
:102470009A850C0135D00B019A870C0131D00B01E4
:102480009A890C012DD00B019A8B0C0129D00B01DC
:102490009A8D0C0125D00B019A8F0C0121D00B01D4
:1024A0009B810C011DD00B019B830C0119D00B01EA
:1024B0009B850C0115D00B019B870C0111D00B01E2
:1024C0009B890C010DD00B019B8B0C0109D00B01DA
:1024D0009B8D0C0105D00B019B8F0C0101D00C01D1
:1024E0000DD00001D8900C012835036ABE0FE96EAB
:1024F0000B0E0320EA6EEC6AED52EF6A78D128CC1D
:102500002CFC0C0E0C012E6F120E2D6F00013ADD0B
:102510000150010BD8A46CD128CC2CFC0B0E0C0163
:102520002E6FBB0E2D6F00012DDD0150010B010838
:10253000D8A4B0D028CC2CFC0B0E0C012E6FB80EFA
:102540002D6F00011FDD0150010B0108D8A494D0AC
:10255000D8900C012835036ABE0FE96E0B0E0320DC
:10256000EA6E010EEE2601E3EF2AD8902835036AC1
:10257000BE0FE96E0B0E0320EA6EECCF2AFCED5283
:10258000EFCF29FCD8902835036AE80FE96E0B0ECF
:102590000320EA6EECCF2EFCED52EFCF2DFC306B1A
:1025A0004B0E2F6F000109DD02C02CFC01C02BFC7B
:1025B0000F0E0C010124016E000E0220036E035069
:1025C0002A5D58E303E10150295D54E3D890283592
:1025D000036ABE0FE96E0B0E0320EA6EEC6AED5241
:1025E000EF6A010E285DF00F45E2100F000120EFA9
:1025F00015F00B019A810C013DD00B019A830C015F
:1026000039D00B019A850C0135D00B019A870C014A
:1026100031D00B019A890C012DD00B019A8B0C0142
:1026200029D00B019A8D0C0125D00B019A8F0C013A
:1026300021D00B019B810C011DD00B019B830C0150
:1026400019D00B019B850C0115D00B019B870C0148
:1026500011D00B019B890C010DD00B019B8B0C0140
:1026600009D00B019B8D0C0105D00B019B8F0C0138
:1026700001D00C010DD00001D8900C012835036A5F
:10268000BE0FE96E0B0E0320EA6EEC6AED52EF6AA4
:10269000AED0000128CC2CFC0B0E0C012E6FB80E16
:1026A0002D6F00016FDC0150010BD8A494D0D8909D
:1026B0000C012835036ABE0FE96E0B0E0320EA6E8B
:1026C000010EEE2601E3EF2AD8902835036ABE0FEB
:1026D000E96E0B0E0320EA6EECCF2AFCED52EFCF31
:1026E00029FCD8902835036AE80FE96E0B0E032009
:1026F000EA6EECCF2EFCED52EFCF2DFC306B4B0E83
:102700002F6F00015ADC02C02CFC01C02BFC0F0E05
:102710000C010124016E000E0220036E03502A5D9D
:1027200058E303E10150295D54E3D8902835036A4A
:10273000BE0FE96E0B0E0320EA6EEC6AED52EF6AF3
:10274000010E285DF00F45E2100F00013DEF15F07E
:102750000B019A910C013DD00B019A930C0139D0D9
:102760000B019A950C0135D00B019A970C0131D0D1
:102770000B019A990C012DD00B019A9B0C0129D0C9
:102780000B019A9D0C0125D00B019A9F0C0121D0C1
:102790000B019B910C011DD00B019B930C0119D0D7
:1027A0000B019B950C0115D00B019B970C0111D0CF
:1027B0000B019B990C010DD00B019B9B0C0109D0C7
:1027C0000B019B9D0C0105D00B019B9F0C0101D0BF
:1027D0000C010DD00001D8900C012835036ABE0F02
:1027E000E96E0B0E0320EA6EEC6AED52EF6A00010F
:1027F0000C01282B08D5000112D44C6A000E0B01E5
:102800009BAF010E4C12D8904C340C01296F000E76
:102810000B019BAF010E0C0129114C6ED8904C346A
:10282000296F000E0B019BAF010E0C0129114C6E9C
:10283000D8904C34296F000E0B019BAD010E0C019A
:1028400029114C6ED8904C34296F000E0B019BABB4
:10285000010E0C0129114C6ED8904C34296F000EDA
:102860000B019BA9010E0C0129114C6ED8904C3420
:10287000296F000E0B019BA7010E0C0129114C6E54
:10288000D8904C34296F000E0B019BA5010E0C0152
:1028900029114C6E496A000E0B019AAF010E4912C4
:1028A000D89049340C01296F000E0B019AAD010E2E
:1028B0000C012911496ED8904934296F000E0B0183
:1028C0009AAB010E0C012911496ED8904934296F39
:1028D000000E0B019AA9010E0C012911496ED89026
:1028E0004934296F000E0B019AA7010E0C01291122
:1028F000496ED8904934296F000E0B019AA5010E3C
:102900000C012911496ED8904934296F000E0B0132
:102910009AA3010E0C012911496ED8904934296FF0
:10292000000E0B019AA1010E0C012911496E4A6A91
:10293000000E0B019BAF010E4A12D8904A340C01D5
:10294000296F000E0B019BAD010E0C0129114A6E7F
:10295000D8904A34296F000E0B019BAB010E0C017D
:1029600029114A6ED8904A34296F000E0B019BA999
:10297000010E0C0129114A6ED8904A34296F000EBD
:102980000B019BA7010E0C0129114A6ED8904A3405
:10299000296F000E0B019BA5010E0C0129114A6E37
:1029A000D8904A34296F000E0B019BA3010E0C0135
:1029B00029114A6ED8904A34296F000E0B019BA151
:1029C000010E0C0129114A6E00011200E824F76A79
:1029D000F736E70FF66E290EF7220A00F550FA6E69
:1029E0000800F550F96EFE2206230E2316231E233F
:1029F00026232E2336233E2346234E2356235E23AF
:102A000066236E237623E824F76AF736210FF66EE5
:102A10002A0EF7220A00F550FA6E0800F550F96EFA
:102A20005E2466246E2476247E2486248E249624B6
:102A30009E24A624AE24B624BE24C624CE24D624A6
:102A4000E824F76AF7365B0FF66E2A0EF7220A00C3
:102A5000F550FA6E0800F550F96EF225FA250226B7
:102A60000A2612261A2622262A2632263A26422606
:102A70004A2652265A2662266A26E824F76AF7363C
:102A8000950FF66E2A0EF7220A00F550FA6E08002E
:102A9000F550F96E50275827602768277027782748
:102AA0008027882790279827A027A827B027B8270E
:102AB000C027C82723CC25FC0A0E0C01266F24CC86
:102AC00027FC0001C1EC04F0120023CC25FC1A0EF7
:102AD0000C01266F24CC27FC0001C1EC04F012008D
:102AE0004E6A4F6A506A516A526A536A546A556A0A
:102AF0002F52D8A4C9D10B019CA103D04E9252925F
:102B000014D0B2A105D0B4B103D04E8252920DD0F0
:102B1000B2B105D0B4A103D04E92528206D0B2A178
:102B200004D0B4A102D04E8252829CA303D04E9412
:102B3000529414D0B2A305D0B4B303D04E845294AF
:102B40000DD0B2B305D0B4A303D04E94528406D0B6
:102B5000B2A304D0B4A302D04E8452849CA503D067
:102B60004E96529614D0B2A505D0B4B503D04E8679
:102B700052960DD0B2B505D0B4A503D04E9652866C
:102B800006D0B2A504D0B4A502D04E8652869CA72A
:102B900003D04E98529814D0B2A705D0B4B703D042
:102BA0004E8852980DD0B2B705D0B4A703D04E9836
:102BB000528806D0B2A704D0B4A702D04E8852885B
:102BC0009CA903D04E9A529A14D0B2A905D0B4B998
:102BD00003D04E8A529A0DD0B2B905D0B4A903D011
:102BE0004E9A528A06D0B2A904D0B4A902D04E8A15
:102BF000528A9CAB03D04E9C529C14D0B2AB05D0F1
:102C0000B4BB03D04E8C529C0DD0B2BB05D0B4AB3C
:102C100003D04E9C528C06D0B2AB04D0B4AB02D0E1
:102C20004E8C528C9CAD03D04E9E529E14D0B2ADB1
:102C300005D0B4BD03D04E8E529E0DD0B2BD05D08E
:102C4000B4AD03D04E9E528E06D0B2AD04D0B4AD1A
:102C500002D04E8E528E9CAF03D04F90539014D022
:102C6000B2AF05D0B4BF03D04F8053900DD0B2BFE8
:102C700005D0B4AF03D04F90538006D0B2AF04D08C
:102C8000B4AF02D04F8053809DA103D05092549294
:102C900014D0B3A105D0B5B103D0508254920DD059
:102CA000B3B105D0B5A103D05092548206D0B3A1E0
:102CB00004D0B5A102D0508254829DA303D0509479
:102CC000549414D0B3A305D0B5B303D05084549416
:102CD0000DD0B3B305D0B5A303D05094548406D01F
:102CE000B3A304D0B5A302D0508454849DA503D0CF
:102CF0005096549614D0B3A505D0B5B503D05086E0
:102D000054960DD0B3B505D0B5A503D050965486D2
:102D100006D0B3A504D0B5A502D0508654869DA791
:102D200003D05098549814D0B3A705D0B5B703D0AA
:102D3000508854980DD0B3B705D0B5A703D050989C
:102D4000548806D0B3A704D0B5A702D050885488C1
:102D50009DA903D0509A549A14D0B3A905D0B5B9FF
:102D600003D0508A549A0DD0B3B905D0B5A903D079
:102D7000509A548A06D0B3A904D0B5A902D0508A7B
:102D8000548A9DAB03D0509C549C14D0B3AB05D057
:102D9000B5BB03D0508C549C0DD0B3BB05D0B5ABA4
:102DA00003D0509C548C06D0B3AB04D0B5AB02D04A
:102DB000508C548C9DAD03D0509E549E14D0B3AD16
:102DC00005D0B5BD03D0508E549E0DD0B3BD05D0F7
:102DD000B5AD03D0509E548E06D0B3AD04D0B5AD82
:102DE00002D0508E548E9DAF03D05190559014D088
:102DF000B3AF05D0B5BF03D0518055900DD0B3BF50
:102E000005D0B5AF03D05190558006D0B3AF04D0F4
:102E1000B5AF02D051805580040E0C01236F4EC017
:102E200024FC000147DE040E0C01236F4FC024FC7C
:102E300000014BDE060E0C01236F52C024FC000182
:102E400039DE060E0C01236F53C024FC00013DDE69
:102E50000A0E0C01236F50C024FC00012BDE0A0E69
:102E60000C01236F51C024FC00012FDE080E0C0161
:102E7000236F54C024FC00011DDE080E0C01236FDB
:102E800055C024FC000121DE120093908A90080EA8
:102E9000016E00D00000018E10D0019E0C01253380
:102EA0000001D8B08A80D8A08A90018C06D0019CFD
:102EB000012EF4D700D000008A80840EE96EE92E3E
:102EC000FED700D0000001BEE8D701BCF0D7120049
:102ED0000900F5520CE0F6CF23FCF7CF24FCF5CF28
:102EE00025FCD3DF23CCF6FF24CCF7FFF1D712006B
:102EF00005017B697A690C01296B2751295D21E263
:102F0000040029512525E96E000E2621EA6EEF50B6
:102F100005017B190C01286F036A285100015DEC43
:102F200000F0016E05017A5101187B6F036A0C01F4
:102F300028510001E5EC00F0E8CF7AF50C01292BCF
:102F4000DCD7000112009EA8FED7AD6E12001E6AEB
:102F50001F6A266A276A0B01AAB104D09CB102D06D
:102F6000B08101D0B091AAB304D09CB302D0B08399
:102F700001D0B093AAB504D09CB502D0B08501D0E1
:102F8000B095AAB704D09CB702D0B08701D0B09753
:102F9000AAB904D09CB902D0B08901D0B099AABB1B
:102FA00004D09CBB02D0B08B01D0B09BAABD04D092
:102FB0009CBD02D0B08D01D0B09DAABF04D09CBFF3
:102FC00002D0B08F01D0B09FABB104D09DB102D080
:102FD000B18101D0B191ABB304D09DB302D0B18324
:102FE00001D0B193ABB504D09DB502D0B18501D06D
:102FF000B195ABB704D09DB702D0B18701D0B197DE
:10300000ABB904D09DB902D0B18901D0B199ABBBA5
:1030100004D09DBB02D0B18B01D0B19BABBD04D01D
:103020009DBD02D0B18D01D0B19DABBF04D09DBF7D
:1030300002D0B18F01D0B19F000EB0BF010E261299
:10304000D89026340C01256F000E0B01B0BD010E87
:103050000C012511266ED8902634256F000E0B0129
:10306000B0BB010E0C012511266ED8902634256FB9
:10307000000E0B01B0B9010E0C012511266ED8907F
:103080002634256F000E0B01B0B7010E0C0125117F
:10309000266ED8902634256F000E0B01B0B5010EB8
:1030A0000C012511266ED8902634256F000E0B01D9
:1030B000B0B3010E0C012511266ED8902634256F71
:1030C000000E0B01B0B1010E0C012511266E000E91
:1030D0000B01B1BF010E2712D89027340C01256FC8
:1030E000000E0B01B1BD010E0C012511276ED89009
:1030F0002734256F000E0B01B1BB010E0C01251109
:10310000276ED8902734256F000E0B01B1B9010E40
:103110000C012511276ED8902734256F000E0B0166
:10312000B1B7010E0C012511276ED8902734256FF9
:10313000000E0B01B1B5010E0C012511276ED890C0
:103140002734256F000E0B01B1B3010E0C012511C0
:10315000276ED8902734256F000E0B01B1B1010EF8
:103160000C012511276E000E0B01AABF010E1E12C5
:10317000D8901E340C01256F000E0B01AABD010E64
:103180000C0125111E6ED8901E34256F000E0B0108
:10319000AABB010E0C0125111E6ED8901E34256F9E
:1031A000000E0B01AAB9010E0C0125111E6ED8905C
:1031B0001E34256F000E0B01AAB7010E0C0125115C
:1031C0001E6ED8901E34256F000E0B01AAB5010E9D
:1031D0000C0125111E6ED8901E34256F000E0B01B8
:1031E000AAB3010E0C0125111E6ED8901E34256F56
:1031F000000E0B01AAB1010E0C0125111E6E000E6E
:103200000B01ABBF010E1F12D8901F340C01256FAC
:10321000000E0B01ABBD010E0C0125111F6ED890E5
:103220001F34256F000E0B01ABBB010E0C012511E5
:103230001F6ED8901F34256F000E0B01ABB9010E25
:103240000C0125111F6ED8901F34256F000E0B0145
:10325000ABB7010E0C0125111F6ED8901F34256FDE
:10326000000E0B01ABB5010E0C0125111F6ED8909D
:103270001F34256F000E0B01ABB3010E0C0125119D
:103280001F6ED8901F34256F000E0B01ABB1010EDD
:103290000C0125111F6E0001F2EF1FF0948082B027
:1032A00002D01AAE02D01AA406D0320E0C01246F3E
:1032B0000001A9EC04F0948082B002D01AAE02D0D2
:1032C0001AA48AD01A941D6A0B01AAB102D0ACA12B
:1032D00004D0A881AA91AC919C91AAB302D0ACA3CE
:1032E00004D0A883AA93AC939C93AAB502D0ACA5B2
:1032F00004D0A885AA95AC959C95AAB702D0ACA796
:1033000004D0A887AA97AC979C97AAB902D0ACA979
:1033100004D0A889AA99AC999C99AABB02D0ACAB5D
:1033200004D0A88BAA9BAC9B9C9BAABD02D0ACAD41
:1033300004D0A88DAA9DAC9D9C9DAABF02D0ACAF25
:1033400004D0A88FAA9FAC9F9C9FABB102D0ADA127
:1033500004D0A981AB91AD919D91ABB302D0ADA347
:1033600004D0A983AB93AD939D93ABB502D0ADA52B
:1033700004D0A985AB95AD959D95ABB702D0ADA70F
:1033800004D0A987AB97AD979D97ABB902D0ADA9F3
:1033900004D0A989AB99AD999D99ABBB02D0ADABD7
:1033A00004D0A98BAB9BAD9B9D9BABBD02D0ADADBB
:1033B00004D0A98DAB9DAD9D9D9DABBF02D0ADAF9F
:1033C00004D0A98FAB9FAD9F9D9F1A8E899892982C
:1033D0008996929608D00001948082A003D01AAEFC
:1033E00001D01A9E0B0100011200948282B202D019
:1033F00030A002D01AA606D0320E0C01246F0001B4
:10340000A9EC04F0948282B202D030A002D01AA6B5
:1034100044D11A96000E0B019AB1010E0C01256FD2
:10342000000E0B019EB1010E0C01251907E10B01E5
:10343000AAA102D00C0102D09C810C01000E0B014C
:103440009AB3010E0C01256F000E0B019EB3010E05
:103450000C01251907E10B01AAA302D00C0102D02F
:103460009C830C01000E0B019AB5010E0C01256F17
:10347000000E0B019EB5010E0C01251907E10B0191
:10348000AAA502D00C0102D09C850C01000E0B01F4
:103490009AB7010E0C01256F000E0B019EB7010EAD
:1034A0000C01251907E10B01AAA702D00C0102D0DB
:1034B0009C870C01000E0B019AB9010E0C01256FBF
:1034C000000E0B019EB9010E0C01251907E10B013D
:1034D000AAA902D00C0102D09C890C01000E0B019C
:1034E0009ABB010E0C01256F000E0B019EBB010E55
:1034F0000C01251907E10B01AAAB02D00C0102D087
:103500009C8B0C01000E0B019ABD010E0C01256F66
:10351000000E0B019EBD010E0C01251907E10B01E8
:10352000AAAD02D00C0102D09C8D0C01000E0B0143
:103530009ABF010E0C01256F000E0B019EBF010EFC
:103540000C01251907E10B01AAAF02D00C0102D032
:103550009C8F0C01000E0B019BB1010E0C01256F1D
:10356000000E0B019FB1010E0C01251907E10B01A3
:10357000ABA102D00C0102D09D810C01000E0B0109
:103580009BB3010E0C01256F000E0B019FB3010EC2
:103590000C01251907E10B01ABA302D00C0102D0ED
:1035A0009D830C01000E0B019BB5010E0C01256FD4
:1035B000000E0B019FB5010E0C01251907E10B014F
:1035C000ABA502D00C0102D09D850C01000E0B01B1
:1035D0009BB7010E0C01256F000E0B019FB7010E6A
:1035E0000C01251907E10B01ABA702D00C0102D099
:1035F0009D870C01000E0B019BB9010E0C01256F7C
:10360000000E0B019FB9010E0C01251907E10B01FA
:10361000ABA902D00C0102D09D890C01000E0B0158
:103620009BBB010E0C01256F000E0B019FBB010E11
:103630000C01251907E10B01ABAB02D00C0102D044
:103640009D8B0C01000E0B019BBD010E0C01256F23
:10365000000E0B019FBD010E0C01251907E10B01A6
:10366000ABAD02D00C0102D09D8D0C01000E0B0100
:103670009BBF010E0C01256F000E0B019FBF010EB9
:103680000C01251907E10B01ABAF02D00C0102D0F0
:103690009D8F0C01308008D00001948282A203D05B
:1036A00030A001D030900C01000112000400010E86
:1036B0007A5D0C01246F010E266F7A0E256F24CCE3
:1036C00027FC000115DC010E7A5D7A0FE96E010E10
:1036D000EA6ED8B0EA2AEF5005017B5DD8A4A9EFC5
:1036E00030F07A0E00017A25E96E010EEA6ED8B04C
:1036F000EA2AEF5005017A5DD8A4A9EF30F0010164
:103700007A51AA08D8A44CD27B512008D8A448D218
:1037100079C07BF0200E00017C6F1C0E7D6F3A6A31
:10372000000E0C0113B1010E3A12D8903A34256FF5
:10373000000E12BF010E25113A6ED8903A34256F53
:10374000000E12BD010E25113A6ED8903A34256F45
:10375000000E12BB010E25113A6ED8903A34256F37
:10376000000E12B9010E25113A6ED8903A34256F29
:10377000000E12B7010E25113A6ED8903A34256F1B
:10378000000E12B5010E25113A6ED8903A34256F0D
:10379000000E12B3010E25113A6E3B6A000E14B1F1
:1037A000010E3B12D8903B34256F000E13BF010E63
:1037B00025113B6ED8903B34256F000E13BD010ED2
:1037C00025113B6ED8903B34256F000E13BB010EC4
:1037D00025113B6ED8903B34256F000E13B9010EB6
:1037E00025113B6ED8903B34256F000E13B7010EA8
:1037F00025113B6ED8903B34256F000E13B5010E9A
:1038000025113B6ED8903B34256F000E13B3010E8B
:1038100025113B6E3F6A000E15B1010E3F12D89084
:103820003F34256F000E14BF010E25113F6ED89056
:103830003F34256F000E14BD010E25113F6ED89048
:103840003F34256F000E14BB010E25113F6ED8903A
:103850003F34256F000E14B9010E25113F6ED8902C
:103860003F34256F000E14B7010E25113F6ED8901E
:103870003F34256F000E14B5010E25113F6ED89010
:103880003F34256F000E14B3010E25113F6E3AC070
:103890007EF03BC07FF03CC080F03DC081F03EC078
:1038A00082F03FC083F040C084F041C085F042C048
:1038B00086F043C087F044C088F045C089F046C018
:1038C0008AF047C08BF048C08CF0F2CF24FCF29E07
:1038D000AA6A100EA96EA69CA69EA680A85024BF18
:1038E000F28E00018D6FF2CF24FCF29EAA6A110EB7
:1038F000A96EA69CA69EA680A8500C0124BFF28E9D
:1039000000018E6FF2CF24FCF29EAA6A120EA96EFD
:10391000A69CA69EA680A8500C0124BFF28E000192
:103920008F6FF2CF24FCF29EAA6A130EA96EA69C9A
:10393000A69EA680A8500C0124BFF28E0001906FB5
:10394000F2CF24FCF29EAA6A140EA96EA69CA69E33
:10395000A680A8500C0124BFF28E0001916FF2CF17
:1039600024FCF29EAA6A150EA96EA69CA69EA680AD
:10397000A8500C0124BFF28E0001926FF2CF24FCFC
:10398000F29EAA6A160EA96EA69CA69EA680A850B4
:103990000C0124BFF28E0001936FF2CF24FCF29E43
:1039A000AA6A170EA96EA69CA69EA680A8500C0116
:1039B00024BFF28E0001946F6AC095F06BC096F040
:1039C0006CC097F06DC098F0E80E996F79C09AF0CE
:1039D000EACB9BF0ECCB9CF0EECB9DF0F0CB9EF0D5
:1039E000F2CB9FF0F4CBA0F0F6CBA1F0F8CBA2F095
:1039F000FACBA3F0FCCBA4F0FECBA5F000CCA6F054
:103A000002CCA7F004CCA8F006CCA9F008CCAAF010
:103A10000ACCABF00CCCACF00ECCADF010CCAEF0D0
:103A20000C01266B7B0E256F340E276F000178EC9E
:103A300017F07BC5AFF07AC5B0F08A8693960A0E70
:103A40000C01246F0001A9EC04F07B51A3EC17F0EA
:103A50007C51A3EC17F07D51A3EC17F07E51A3EC41
:103A600017F07F51A3EC17F08051A3EC17F08151B0
:103A7000A3EC17F08251A3EC17F08351A3EC17F0DD
:103A80008451A3EC17F08551A3EC17F08651A3ECF9
:103A900017F08751A3EC17F08851A3EC17F0895168
:103AA000A3EC17F08A51A3EC17F08B51A3EC17F09D
:103AB0008C51A3EC17F08D51A3EC17F08E51A3ECB1
:103AC00017F08F51A3EC17F09051A3EC17F0915120
:103AD000A3EC17F09251A3EC17F09351A3EC17F05D
:103AE0009451A3EC17F09551A3EC17F09651A3EC69
:103AF00017F09751A3EC17F09851A3EC17F09951D8
:103B0000A3EC17F09A51A3EC17F09B51A3EC17F01C
:103B10009C51A3EC17F09D51A3EC17F09E51A3EC20
:103B200017F09F51A3EC17F0A051A3EC17F0A1518F
:103B3000A3EC17F0A251A3EC17F0A351A3EC17F0DC
:103B4000A451A3EC17F0A551A3EC17F0A651A3ECD8
:103B500017F0A751A3EC17F0A851A3EC17F0A95147
:103B6000A3EC17F0AA51A3EC17F0AB51A3EC17F09C
:103B7000AC51A3EC17F0AD51A3EC17F0AE51A3EC90
:103B800017F0AF51A3EC17F0B051A3EC17F0030EF0
:103B90000C01246F0001A9EC04F08A9693960101B0
:103BA0000001795101017A5DD8A4A4EF30F07B2D9A
:103BB00012D205017F6B7CC17EF57EC57FF50C01BD
:103BC000246B245101017D1105017E6F0501816B7C
:103BD0007EC180F580C581F50C01246B2451010163
:103BE0007F110501806F05017F53D8A4BBD17E51A1
:103BF0000F08D8A0B7D180517E250C01246F050194
:103C000081517F210C01256F2553D8B402D00501C5
:103C1000A9D124511008D8B002D00501A3D10501C3
:103C2000815306E18051080803E3010E826F12D030
:103C3000815306E18051100803E3020E826F0AD01F
:103C4000815306E18051180803E3030E826F02D00E
:103C5000010E826F822DA2D07F530DE17E510808A4
:103C60000AE349C083F57E51016E04E0D8908333A6
:103C7000012EFCD71AD07F5303E17E51080815E2CC
:103C80007F5313E17E510F0810E3080E7E5D006E36
:103C9000000E7F59036E00C001F04AC083F5015247
:103CA00004E0D8908333012EFCD78051080803E14B
:103CB000815301E135D08051070804E1815302E1CD
:103CC000839F2ED08051060805E1815303E13F0E0A
:103CD000831726D08051050805E1815303E11F0EAB
:103CE00083171ED08051040805E1815303E10F0EB4
:103CF000831716D08051030805E1815303E1070EB5
:103D000083170ED08051020805E1815303E1030EB1
:103D1000831706D0802D04D0815302E1010E831752
:103D200079C07BF0010E00017C6F82C57DF083C5F8
:103D30007EF00C01266B7B0E256F040E276F0001B1
:103D400078EC17F07BC57FF07AC580F08A86939671
:103D50000400040E0C01246F0001A9EC04F004001F
:103D60007B51A3EC17F07C51A3EC17F07D51A3EC31
:103D700017F07E51A3EC17F07F51A3EC17F08051A0
:103D8000A3EC17F00400030E0C01246F0001A9EC52
:103D900004F004008A969396E3D00501825102084C
:103DA000D8A4DFD049C083F57E51016E04E0D890DD
:103DB0008333012EFCD74AC084F5070E805D0C01C9
:103DC000246F000E050181590C01256F245108084C
:103DD00003E1255301E183D0070E0501805D0C014D
:103DE000246F000E050181590C01256F245107082D
:103DF00005E1255303E10501849F70D0070E0501FD
:103E0000805D0C01246F000E050181590C01256FA6
:103E10002451060806E1255304E13F0E05018417ED
:103E20005DD0070E0501805D0C01246F000E0501B9
:103E300081590C01256F2451050806E1255304E141
:103E40001F0E050184174AD0070E0501805D0C0185
:103E5000246F000E050181590C01256F24510408BF
:103E600006E1255304E10F0E0501841737D0070E34
:103E70000501805D0C01246F000E050181590C01C4
:103E8000256F2451030806E1255304E1070E0501BF
:103E9000841724D0070E0501805D0C01246F000EED
:103EA000050181590C01256F2451020806E12553B3
:103EB00004E1030E0501841711D0070E0501805D92
:103EC0000C01246F000E050181590C01256F242D72
:103ED00006D0255304E1010E050184170C0179C0B9
:103EE0007BF0010E00017C6F82C57DF083C57EF002
:103EF00084C57FF00C01266B7B0E256F050E276FA6
:103F0000000178EC17F07BC580F07AC581F08A86D5
:103F100093960400040E0C01246F0001A9EC04F038
:103F200004007B51A3EC17F07C51A3EC17F07D51FA
:103F3000A3EC17F07E51A3EC17F07F51A3EC17F020
:103F40008051A3EC17F08151A3EC17F00400030E8D
:103F50000C01246F0001A9EC04F004008A969396EA
:103F6000050138D079C07BF0810E00017C6F020E14
:103F70007D6F0C01266B7B0E256F030E276F0001F2
:103F800078EC17F07BC57EF07AC57FF08A86939631
:103F90000400040E0C01246F0001A9EC04F00400DD
:103FA0007B51A3EC17F07C51A3EC17F07D51A3ECEF
:103FB00017F07E51A3EC17F07F51A3EC17F004002B
:103FC000030E0C01246F0001A9EC04F004008A9692
:103FD0009396050101017B510708D8A4B1D00001D7
:103FE000A7EF17F09D921EC083F51FC084F520C077
:103FF00085F521C086F522C087F523C088F524C049
:1040000089F525C08AF526C08BF527C08CF528C018
:104010008DF529C08EF52AC08FF52BC090F52CC0E8
:1040200091F52DC092F579C07BF0070E7C6F100ED4
:104030000501826F82C57DF083C57EF084C57FF067
:1040400085C580F086C581F087C582F088C583F07C
:1040500089C584F08AC585F08BC586F08CC587F04C
:104060008DC588F08EC589F08FC58AF090C58BF01C
:1040700091C58CF092C58DF00C01266B7B0E256FDF
:10408000130E276F000178EC17F07BC58EF07AC510
:104090008FF08A8693960400040E0C01246F0001B1
:1040A000A9EC04F004007B51A3EC17F07C51A3ECC5
:1040B00017F07D51A3EC17F07E51A3EC17F07F5160
:1040C000A3EC17F08051A3EC17F08151A3EC17F08B
:1040D0008251A3EC17F08351A3EC17F08451A3ECA9
:1040E00017F08551A3EC17F08651A3EC17F0875118
:1040F000A3EC17F08851A3EC17F08951A3EC17F04B
:104100008A51A3EC17F08B51A3EC17F08C51A3EC60
:1041100017F08D51A3EC17F08E51A3EC17F08F51CF
:10412000A3EC17F00400030E0C01246F0001A9ECAE
:1041300004F004008A9693969D8259EF30F00101B5
:104140007B510508D8A476D205017F6B7CC17EF532
:104150007EC57FF50C01246B245101017D11050101
:104160007E6F0501816B7EC180F580C581F50C01F4
:10417000246B245101017F110501806F05017E53DD
:104180004FE17F534DE180534AE1813D48D01A848D
:1041900079C07BF0050E00017C6F7CC17DF07DC194
:1041A0007EF07EC17FF07FC180F00C01266B7B0E1C
:1041B000256F060E276F000178EC17F07BC581F0A4
:1041C0007AC582F08A8693960400040E0C01246F4F
:1041D0000001A9EC04F004007B51A3EC17F07C5122
:1041E000A3EC17F07D51A3EC17F07E51A3EC17F070
:1041F0007F51A3EC17F08051A3EC17F08151A3EC91
:1042000017F08251A3EC17F00400030E0C01246F89
:104210000001A9EC04F004008A969396050107D2E8
:104220007E2D4FD07F534DE180534AE1813D48D0F0
:104230001A8679C07BF0050E00017C6F7CC17DF091
:104240007DC17EF07EC17FF07FC180F00C01266BC6
:104250007B0E256F060E276F000178EC17F07BC5EB
:1042600081F07AC582F08A8693960400040E0C01D0
:10427000246F0001A9EC04F004007B51A3EC17F0BB
:104280007C51A3EC17F07D51A3EC17F07E51A3EC09
:1042900017F07F51A3EC17F08051A3EC17F0815178
:1042A000A3EC17F08251A3EC17F00400030E0C01ED
:1042B000246F0001A9EC04F004008A96939605018E
:1042C000B6D17E510208D8A4A5D07F53D8A4A2D0DD
:1042D00080534BE1813D49D01A8879C07BF0050EAF
:1042E00000017C6F7CC17DF07DC17EF07EC17FF0DE
:1042F0007FC180F00C01266B7B0E256F060E276FA9
:10430000000178EC17F07BC581F07AC582F08A86CF
:1043100093960400040E0C01246F0001A9EC04F034
:1043200004007B51A3EC17F07C51A3EC17F07D51F6
:10433000A3EC17F07E51A3EC17F07F51A3EC17F01C
:104340008051A3EC17F08151A3EC17F08251A3EC3C
:1043500017F00400030E0C01246F0001A9EC04F017
:1043600004008A96939654D00501805352E18153FC
:1043700050E11A9800013EEC10F01A844EEC19F04E
:104380001A86F5EC19F079C07BF0050E7C6F7CC1C4
:104390007DF07DC17EF07EC17FF07FC180F00C0199
:1043A000266B7B0E256F060E276F000178EC17F049
:1043B0007BC581F07AC582F08A8693960400040E4C
:1043C0000C01246F0001A9EC04F004007B51A3EC64
:1043D00017F07C51A3EC17F07D51A3EC17F07E5140
:1043E000A3EC17F07F51A3EC17F08051A3EC17F06A
:1043F0008151A3EC17F08251A3EC17F00400030ED7
:104400000C01246F0001A9EC04F004008A96939635
:1044100005010DD17E510308D8A4A5D07F53D8A49F
:10442000A2D080534BE1813D49D01A8A79C07BF0FC
:10443000050E00017C6F7CC17DF07DC17EF07EC1E8
:104440007FF07FC180F00C01266B7B0E256F060E7E
:10445000276F000178EC17F07BC581F07AC582F0F8
:104460008A8693960400040E0C01246F0001A9ECC7
:1044700004F004007B51A3EC17F07C51A3EC17F07F
:104480007D51A3EC17F07E51A3EC17F07F51A3EC04
:1044900017F08051A3EC17F08151A3EC17F0825173
:1044A000A3EC17F004000A0E0C01246F0001A9EC24
:1044B00004F004008A96939654D00501805352E18B
:1044C000815350E11A9A00013EEC10F01A844EEC30
:1044D00019F01A86F5EC19F079C07BF0050E7C6FA7
:1044E0007CC17DF07DC17EF07EC17FF07FC180F018
:1044F0000C01266B7B0E256F060E276F000178ECF2
:1045000017F07BC581F07AC582F08A869396040005
:10451000040E0C01246F0001A9EC04F004007B518F
:10452000A3EC17F07C51A3EC17F07D51A3EC17F02E
:104530007E51A3EC17F07F51A3EC17F08051A3EC50
:1045400017F08151A3EC17F08251A3EC17F004008F
:10455000030E0C01246F0001A9EC04F004008A96FC
:104560009396050164D07E51640861E17F535FE159
:1045700080C579F0F250006EF29EAA6A1D0EA96EF7
:1045800079C0A8FFA69CA69EA6840F01550EA76E13
:10459000AA0EA76EA682A6B2FED7A6940050F2126B
:1045A00079C07BF0050E00017C6F7CC17DF07DC180
:1045B0007EF07EC17FF07FC180F00C01266B7B0E08
:1045C000256F060E276F000178EC17F07BC581F090
:1045D0007AC582F08A8693960400040E0C01246F3B
:1045E0000001A9EC04F004007B51A3EC17F07C510E
:1045F000A3EC17F07D51A3EC17F07E51A3EC17F05C
:104600007F51A3EC17F08051A3EC17F08151A3EC7C
:1046100017F08251A3EC17F00400030E0C01246F75
:104620000001A9EC04F004008A96939605015AEF64
:1046300030F001017B512108D8A4D1EF27F0F250CE
:10464000006EF29EAA6AA96A0F0EA86EA69CA69E8C
:10465000A6840F01550EA76EAA0EA76EA682A6B25B
:10466000FED7A6940050F212F2CF00F0F29EAA6A92
:10467000010EA96E7DC1A8FFA69CA69EA684550E1C
:10468000A76EAA0EA76EA682A6B2FED7A694005069
:10469000F212F2CF00F0F29EAA6A020EA96E7EC15B
:1046A000A8FFA69CA69EA684550EA76EAA0EA76E6E
:1046B000A682A6B2FED7A6940050F212F2CF00F066
:1046C000F29EAA6A030EA96E7FC1A8FFA69CA69EB1
:1046D000A684550EA76EAA0EA76EA682A6B2FED716
:1046E000A6940050F212F2CF00F0F29EAA6A040ED5
:1046F000A96E80C1A8FFA69CA69EA684550EA76E93
:10470000AA0EA76EA682A6B2FED7A6940050F212F9
:10471000F2CF00F0F29EAA6A050EA96E81C1A8FF31
:10472000A69CA69EA684550EA76EAA0EA76EA6826C
:10473000A6B2FED7A6940050F212F2CF00F0F29E7D
:10474000AA6A060EA96E82C1A8FFA69CA69EA68490
:10475000550EA76EAA0EA76EA682A6B2FED7A69485
:104760000050F212F2CF00F0F29EAA6A070EA96E74
:1047700083C1A8FFA69CA69EA684550EA76EAA0E6E
:10478000A76EA682A6B2FED7A6940050F212F2CF70
:1047900000F0F29EAA6A080EA96E84C1A8FFA69C2A
:1047A000A69EA684550EA76EAA0EA76EA682A6B2D6
:1047B000FED7A6940050F212F2CF00F0F29EAA6A41
:1047C000090EA96E85C1A8FFA69CA69EA684550EBB
:1047D000A76EAA0EA76EA682A6B2FED7A694005018
:1047E000F212F2CF00F0F29EAA6A0A0EA96E86C1FA
:1047F000A8FFA69CA69EA684550EA76EAA0EA76E1D
:10480000A682A6B2FED7A6940050F212F2CF00F014
:10481000F29EAA6A0B0EA96E87C1A8FFA69CA69E4F
:10482000A684550EA76EAA0EA76EA682A6B2FED7C4
:10483000A6940050F212F2CF00F0F29EAA6A0C0E7B
:10484000A96E88C1A8FFA69CA69EA684550EA76E39
:10485000AA0EA76EA682A6B2FED7A6940050F212A8
:10486000F2CF00F0F29EAA6A0D0EA96E89C1A8FFD0
:10487000A69CA69EA684550EA76EAA0EA76EA6821B
:10488000A6B2FED7A6940050F212F2CF00F0F29E2C
:10489000AA6A0E0EA96E8AC1A8FFA69CA69EA6842F
:1048A000550EA76EAA0EA76EA682A6B2FED7A69434
:1048B0000050F212F2CF00F0F29EAA6A0F0EA96E1B
:1048C0008BC1A8FFA69CA69EA684550EA76EAA0E15
:1048D000A76EA682A6B2FED7A6940050F212F2CF1F
:1048E00000F0F29EAA6A100EA96E8CC1A8FFA69CC9
:1048F000A69EA684550EA76EAA0EA76EA682A6B285
:10490000FED7A6940050F212F2CF00F0F29EAA6AEF
:10491000110EA96E8DC1A8FFA69CA69EA684550E59
:10492000A76EAA0EA76EA682A6B2FED7A6940050C6
:10493000F212F2CF00F0F29EAA6A120EA96E8EC198
:10494000A8FFA69CA69EA684550EA76EAA0EA76ECB
:10495000A682A6B2FED7A6940050F212F2CF00F0C3
:10496000F29EAA6A130EA96E8FC1A8FFA69CA69EEE
:10497000A684550EA76EAA0EA76EA682A6B2FED773
:10498000A6940050F212F2CF00F0F29EAA6A140E22
:10499000A96E90C1A8FFA69CA69EA684550EA76EE0
:1049A000AA0EA76EA682A6B2FED7A6940050F21257
:1049B000F2CF00F0F29EAA6A150EA96E91C1A8FF6F
:1049C000A69CA69EA684550EA76EAA0EA76EA682CA
:1049D000A6B2FED7A6940050F212F2CF00F0F29EDB
:1049E000AA6A160EA96E92C1A8FFA69CA69EA684CE
:1049F000550EA76EAA0EA76EA682A6B2FED7A694E3
:104A00000050F212F2CF00F0F29EAA6A170EA96EC1
:104A100093C1A8FFA69CA69EA684550EA76EAA0EBB
:104A2000A76EA682A6B2FED7A6940050F212F2CFCD
:104A300000F0F29EAA6A180EA96E94C1A8FFA69C67
:104A4000A69EA684550EA76EAA0EA76EA682A6B233
:104A5000FED7A6940050F212F2CF00F0F29EAA6A9E
:104A6000190EA96E95C1A8FFA69CA69EA684550EF8
:104A7000A76EAA0EA76EA682A6B2FED7A694005075
:104A8000F212F2CF00F0F29EAA6A1A0EA96E96C137
:104A9000A8FFA69CA69EA684550EA76EAA0EA76E7A
:104AA000A682A6B2FED7A6940050F212F2CF00F072
:104AB000F29EAA6A1B0EA96E97C1A8FFA69CA69E8D
:104AC000A684550EA76EAA0EA76EA682A6B2FED722
:104AD000A6940050F212F2CF00F0F29EAA6A1C0EC9
:104AE000A96E98C1A8FFA69CA69EA684550EA76E87
:104AF000AA0EA76EA682A6B2FED7A6940050F21206
:104B0000F2CF00F0F29EAA6A1D0EA96E99C1A8FF0D
:104B1000A69CA69EA684550EA76EAA0EA76EA68278
:104B2000A6B2FED7A6940050F212F2CF00F0F29E89
:104B3000AA6A1E0EA96E9AC1A8FFA69CA69EA6846C
:104B4000550EA76EAA0EA76EA682A6B2FED7A69491
:104B50000050F212F2CF00F0F29EAA6A1F0EA96E68
:104B60009BC1A8FFA69CA69EA684550EA76EAA0E62
:104B7000A76EA682A6B2FED7A6940050F212F2CF7C
:104B800000F0F29EAA6A200EA96E9CC1A8FFA69C06
:104B9000A69EA684550EA76EAA0EA76EA682A6B2E2
:104BA000FED7A6940050F212F2CF00F0F29EAA6A4D
:104BB000210EA96E9DC1A8FFA69CA69EA684550E97
:104BC000A76EAA0EA76EA682A6B2FED7A694005024
:104BD000F212F2CF00F0F29EAA6A220EA96E9EC1D6
:104BE000A8FFA69CA69EA684550EA76EAA0EA76E29
:104BF000A682A6B2FED7A6940050F212F2CF00F021
:104C0000F29EAA6A230EA96E9FC1A8FFA69CA69E2B
:104C1000A684550EA76EAA0EA76EA682A6B2FED7D0
:104C2000A6940050F212F2CF00F0F29EAA6A240E6F
:104C3000A96EA0C1A8FFA69CA69EA684550EA76E2D
:104C4000AA0EA76EA682A6B2FED7A6940050F212B4
:104C5000F2CF00F0F29EAA6A250EA96EA1C1A8FFAC
:104C6000A69CA69EA684550EA76EAA0EA76EA68227
:104C7000A6B2FED7A6940050F212F2CF00F0F29E38
:104C8000AA6A260EA96EA2C1A8FFA69CA69EA6840B
:104C9000550EA76EAA0EA76EA682A6B2FED7A69440
:104CA0000050F212F2CF00F0F29EAA6A270EA96E0F
:104CB000A3C1A8FFA69CA69EA684550EA76EAA0E09
:104CC000A76EA682A6B2FED7A6940050F212F2CF2B
:104CD00000F0F29EAA6A280EA96EA4C1A8FFA69CA5
:104CE000A69EA684550EA76EAA0EA76EA682A6B291
:104CF000FED7A6940050F212F2CF00F0F29EAA6AFC
:104D0000290EA96EA5C1A8FFA69CA69EA684550E35
:104D1000A76EAA0EA76EA682A6B2FED7A6940050D2
:104D2000F212F2CF00F0F29EAA6A2A0EA96EA6C174
:104D3000A8FFA69CA69EA684550EA76EAA0EA76ED7
:104D4000A682A6B2FED7A6940050F212F2CF00F0CF
:104D5000F29EAA6A2B0EA96EA7C1A8FFA69CA69ECA
:104D6000A684550EA76EAA0EA76EA682A6B2FED77F
:104D7000A6940050F212F2CF00F0F29EAA6A2C0E16
:104D8000A96EA8C1A8FFA69CA69EA684550EA76ED4
:104D9000AA0EA76EA682A6B2FED7A6940050F21263
:104DA000F2CF00F0F29EAA6A2D0EA96EA9C1A8FF4B
:104DB000A69CA69EA684550EA76EAA0EA76EA682D6
:104DC000A6B2FED7A6940050F212F2CF00F0F29EE7
:104DD000AA6A2E0EA96EAAC1A8FFA69CA69EA684AA
:104DE000550EA76EAA0EA76EA682A6B2FED7A694EF
:104DF0000050F212F2CF00F0F29EAA6A2F0EA96EB6
:104E0000ABC1A8FFA69CA69EA684550EA76EAA0EAF
:104E1000A76EA682A6B2FED7A6940050F212F2CFD9
:104E200000F0F29EAA6A300EA96EACC1A8FFA69C43
:104E3000A69EA684550EA76EAA0EA76EA682A6B23F
:104E4000FED7A6940050F212F2CF00F0F29EAA6AAA
:104E5000310EA96EADC1A8FFA69CA69EA684550ED4
:104E6000A76EAA0EA76EA682A6B2FED7A694005081
:104E7000F2120C011C6B1B6B0400AE0E1B25E96EBD
:104E8000010E1C21EA6EEFCF1DFC1D510D0805E03F
:104E90001C5303E11B510F0827E28B0E1B25E96E03
:104EA000090E1C21EA6EEF6A320E1B25246F000EDC
:104EB0001C21256FF250006EF29E25CCAAFF24CC57
:104EC000A9FF1DCCA8FFA69CA69EA6840F01550E87
:104ED000A76EAA0EA76EA682A6B2FED7A694005011
:104EE000F2122DD026D00C018B0E1B25E96E090E77
:104EF0001C21EA6E1DCCEFFF320E1B25246F000E25
:104F00001C21256FF250006EF29E25CCAAFF24CC06
:104F1000A9FF1DCCA8FFA69CA69EA6840F01550E36
:104F2000A76EAA0EA76EA682A6B2FED7A6940050C0
:104F3000F2120C011B2BD8B41C2B9ED70F0179C089
:104F40007BF0210E00017C6F0C01266B7B0E256F20
:104F5000020E276F000178EC17F07BC57DF07AC553
:104F60007EF08A8693960A0E0C01246F0001A9EC4C
:104F700004F07B51A3EC17F07C51A3EC17F07D51AA
:104F8000A3EC17F07E51A3EC17F0030E0C01246F75
:104F90000001A9EC04F08A969396FF0059EF30F0D7
:104FA00001017B512208D8A459EF30F00C011F6B8E
:104FB000040E1E6F216B206B236B226B04007A0E94
:104FC0001E25E96E010E1F21EA6EEF500D0805E067
:104FD000215303E120511E0820E25D0E1E25246F9F
:104FE000000E1F21256FF250006EF29E25CCAAFF05
:104FF00024CCA9FF0D0EA86EA69CA69EA6840F0128
:10500000550EA76EAA0EA76EA682A6B2FED7A694CC
:105010000050F21247D03AD00C019A0E2025016EB2
:10502000090E2121036E7A0E1E25E96E010E1F2145
:10503000EA6EEFCF26FC03C0EAFF01C0E9FF26CCF1
:10504000EFFF5D0E1E25246F000E1F21256F7A0EC7
:105050001E25E96E010E1F21EA6EEFCF26FCF250ED
:10506000006EF29E25CCAAFF24CCA9FF26CCA8FF77
:10507000A69CA69EA6840F01550EA76EAA0EA76E2B
:10508000A682A6B2FED7A6940050F2120C011FCC45
:1050900003F01E511E2BD8B41F2B202BD8B4212B6C
:1050A0008DD70F019A0E0C012025E96E090E2121E2
:1050B000EA6EEF6A216B206B1E2BD8B41F2B040005
:1050C0007A0E1E25E96E010E1F21EA6EEF500D08C3
:1050D00005E0215303E120511E0820E25D0E1E254C
:1050E000246F000E1F21256FF250006EF29E25CC1A
:1050F000AAFF24CCA9FF0D0EA86EA69CA69EA6848E
:105100000F01550EA76EAA0EA76EA682A6B2FED7F5
:10511000A6940050F21247D03AD00C01BA0E2025C6
:10512000016E090E2121036E7A0E1E25E96E010E15
:105130001F21EA6EEFCF26FC03C0EAFF01C0E9FFA2
:1051400026CCEFFF5D0E1E25246F000E1F21256F5C
:105150007A0E1E25E96E010E1F21EA6EEFCF26FCA6
:10516000F250006EF29E25CCAAFF24CCA9FF26CCDB
:10517000A8FFA69CA69EA6840F01550EA76EAA0E98
:10518000A76EA682A6B2FED7A6940050F2120C011A
:105190001FCC03F01E511E2BD8B41F2B202BD8B4CC
:1051A000212B8DD70F01BA0E0C012025E96E090EB7
:1051B0002121EA6EEF6A216B206B1E2BD8B41F2BC6
:1051C00004007A0E1E25E96E010E1F21EA6EEF50D3
:1051D0000D0805E0215303E120511E0820E25D0E79
:1051E0001E25246F000E1F21256FF250006EF29EC7
:1051F00025CCAAFF24CCA9FF0D0EA86EA69CA69EC6
:10520000A6840F01550EA76EAA0EA76EA682A6B29F
:10521000FED7A6940050F21247D03AD00C01DA0E15
:105220002025016E090E2121036E7A0E1E25E96EDE
:10523000010E1F21EA6EEFCF26FC03C0EAFF01C07A
:10524000E9FF26CCEFFF5D0E1E25246F000E1F2107
:10525000256F7A0E1E25E96E010E1F21EA6EEFCF33
:1052600026FCF250006EF29E25CCAAFF24CCA9FFAA
:1052700026CCA8FFA69CA69EA6840F01550EA76E5D
:10528000AA0EA76EA682A6B2FED7A6940050F2126E
:105290000C011FCC03F01E511E2BD8B41F2B202B4A
:1052A000D8B4212B8DD70F01DA0E0C012025E96E21
:1052B000090E2121EA6EEF6A216B206B1E2BD8B4F8
:1052C0001F2B04007A0E1E25E96E010E1F21EA6EC7
:1052D000EF500D0805E0215303E120511E0820E2A4
:1052E0005D0E1E25246F000E1F21256FF250006EEB
:1052F000F29E25CCAAFF24CCA9FF0D0EA86EA69C79
:10530000A69EA6840F01550EA76EAA0EA76EA682B2
:10531000A6B2FED7A6940050F21247D03AD00C01A4
:10532000FA0E2025016E090E2121036E7A0E1E252C
:10533000E96E010E1F21EA6EEFCF26FC03C0EAFFE3
:1053400001C0E9FF26CCEFFF5D0E1E25246F000E85
:105350001F21256F7A0E1E25E96E010E1F21EA6EB0
:10536000EFCF26FCF250006EF29E25CCAAFF24CC93
:10537000A9FF26CCA8FFA69CA69EA6840F01550EC9
:10538000A76EAA0EA76EA682A6B2FED7A69400505C
:10539000F2120C011FCC03F01E511E2BD8B41F2B90
:1053A000202BD8B4212B8DD70F01FA0E0C0120250C
:1053B000E96E090E2121EA6EEF6A216B206B1E2B2C
:1053C000D8B41F2B04007A0E1E25E96E010E1F2192
:1053D000EA6EEF500D0805E0215303E120511E084D
:1053E00020E25D0E1E25246F000E1F21256FF25056
:1053F000006EF29E25CCAAFF24CCA9FF0D0EA86E4C
:10540000A69CA69EA6840F01550EA76EAA0EA76E97
:10541000A682A6B2FED7A6940050F21247D03AD088
:105420000C011A0E2025016E0A0E2121036E7A0E40
:105430001E25E96E010E1F21EA6EEFCF26FC03C088
:10544000EAFF01C0E9FF26CCEFFF5D0E1E25246FA9
:10545000000E1F21256F7A0E1E25E96E010E1F21F9
:10546000EA6EEFCF26FCF250006EF29E25CCAAFF2A
:1054700024CCA9FF26CCA8FFA69CA69EA6840F013B
:10548000550EA76EAA0EA76EA682A6B2FED7A69448
:105490000050F2120C011FCC03F01E511E2BD8B489
:1054A0001F2B202BD8B4212B8DD70F011A0E0C01E6
:1054B0002025E96E0A0E2121EA6EEF6A216B206B2E
:1054C0001E2BD8B41F2B04007A0E1E25E96E010E88
:1054D0001F21EA6EEF500D0805E0215303E1205132
:1054E0001E0820E25D0E1E25246F000E1F21256F71
:1054F000F250006EF29E25CCAAFF24CCA9FF0D0E1F
:10550000A86EA69CA69EA6840F01550EA76EAA0E95
:10551000A76EA682A6B2FED7A6940050F21249D07A
:105520003CD00C015D0E1E25246F000E1F21256F3F
:105530007A0E1E25E96E010E1F21EA6EEFCF26FCC2
:10554000F250006EF29E25CCAAFF24CCA9FF26CCF7
:10555000A8FFA69CA69EA6840F01550EA76EAA0EB4
:10556000A76EA682A6B2FED7A6940050F2123A0EFB
:105570000C012025016E0A0E2121036E7A0E1E25D4
:10558000E96E010E1F21EA6EEFCF26FC03C0EAFF91
:1055900001C0E9FF26CCEFFF0F010C011FCC03F087
:1055A0001E511E2BD8B41F2B202BD8B4212B8BD7E8
:1055B0000F013A0E0C012025E96E0A0E2121EA6E38
:1055C000EF6A216B206B1E2BD8B41F2B04007A0EC0
:1055D0001E25E96E010E1F21EA6EEF500D0805E051
:1055E000215303E120511E0820E25D0E1E25246F89
:1055F000000E1F21256FF250006EF29E25CCAAFFEF
:1056000024CCA9FF0D0EA86EA69CA69EA6840F0111
:10561000550EA76EAA0EA76EA682A6B2FED7A694B6
:105620000050F21247D03AD00C015A0E2025016EDC
:105630000A0E2121036E7A0E1E25E96E010E1F212E
:10564000EA6EEFCF26FC03C0EAFF01C0E9FF26CCDB
:10565000EFFF5D0E1E25246F000E1F21256F7A0EB1
:105660001E25E96E010E1F21EA6EEFCF26FCF250D7
:10567000006EF29E25CCAAFF24CCA9FF26CCA8FF61
:10568000A69CA69EA6840F01550EA76EAA0EA76E15
:10569000A682A6B2FED7A6940050F2120C011FCC2F
:1056A00003F01E511E2BD8B41F2B202BD8B4212B56
:1056B0008DD70F015A0E0C012025E96E0A0E21210B
:1056C000EA6EEF6A216B206B1E2BD8B41F2B0400EF
:1056D0007A0E1E25E96E010E1F21EA6EEF500D08AD
:1056E00005E0215303E120511E0820E25D0E1E2536
:1056F000246F000E1F21256FF250006EF29E25CC04
:10570000AAFF24CCA9FF0D0EA86EA69CA69EA68477
:105710000F01550EA76EAA0EA76EA682A6B2FED7DF
:10572000A6940050F21247D03AD00C017A0E2025F0
:10573000016E0A0E2121036E7A0E1E25E96E010EFE
:105740001F21EA6EEFCF26FC03C0EAFF01C0E9FF8C
:1057500026CCEFFF5D0E1E25246F000E1F21256F46
:105760007A0E1E25E96E010E1F21EA6EEFCF26FC90
:10577000F250006EF29E25CCAAFF24CCA9FF26CCC5
:10578000A8FFA69CA69EA6840F01550EA76EAA0E82
:10579000A76EA682A6B2FED7A6940050F2120C0104
:1057A0001FCC03F01E511E2BD8B41F2B202BD8B4B6
:1057B000212B8DD70F017A0E0C012025E96E0A0EE0
:1057C0002121EA6EEF6A216B206B1E2BD8B41F2BB0
:1057D00004007A0E1E25E96E010E1F21EA6EEF50BD
:1057E0000D0805E0215303E120511E0828E25D0E5B
:1057F0001E25246F000E1F21256F7A0E1E25E96ECF
:10580000010E1F21EA6EEFCF26FCF250006EF29ED1
:1058100025CCAAFF24CCA9FF26CCA8FFA69CA69E37
:10582000A6840F01550EA76EAA0EA76EA682A6B279
:10583000FED7A6940050F21247D03AD00C019A0E2F
:105840002025016E0A0E2121036E7A0E1E25E96EB7
:10585000010E1F21EA6EEFCF26FC03C0EAFF01C054
:10586000E9FF26CCEFFF5D0E1E25246F000E1F21E1
:10587000256F7A0E1E25E96E010E1F21EA6EEFCF0D
:1058800026FCF250006EF29E25CCAAFF24CCA9FF84
:1058900026CCA8FFA69CA69EA6840F01550EA76E37
:1058A000AA0EA76EA682A6B2FED7A6940050F21248
:1058B0000C011FCC03F01E511E2BD8B41F2B202B24
:1058C000D8B4212B85D70F019A0E0C012025E96E43
:1058D0000A0E2121EA6EEF6A216B206B1E2BD8B4D1
:1058E0001F2B04007A0E1E25E96E010E1F21EA6EA1
:1058F000EF500D0805E0215303E120511E0828E276
:105900005D0E1E25246F000E1F21256F7A0E1E25A9
:10591000E96E010E1F21EA6EEFCF26FCF250006EF9
:10592000F29E25CCAAFF24CCA9FF26CCA8FFA69CDA
:10593000A69EA6840F01550EA76EAA0EA76EA6827C
:10594000A6B2FED7A6940050F21247D03AD00C016E
:10595000BA0E2025016E0A0E2121036E7A0E1E2535
:10596000E96E010E1F21EA6EEFCF26FC03C0EAFFAD
:1059700001C0E9FF26CCEFFF5D0E1E25246F000E4F
:105980001F21256F7A0E1E25E96E010E1F21EA6E7A
:10599000EFCF26FCF250006EF29E25CCAAFF24CC5D
:1059A000A9FF26CCA8FFA69CA69EA6840F01550E93
:1059B000A76EAA0EA76EA682A6B2FED7A694005026
:1059C000F2120C011FCC03F01E511E2BD8B41F2B5A
:1059D000202BD8B4212B85D70F01BA0E0C0120251E
:1059E000E96E0A0E2121EA6EEF6A216B206B1E2BF5
:1059F000D8B41F2B04007A0E1E25E96E010E1F215C
:105A0000EA6EEF500D0805E0215303E120511E0816
:105A100028E25D0E1E25246F000E1F21256F7A0ED1
:105A20001E25E96E010E1F21EA6EEFCF26FCF25013
:105A3000006EF29E25CCAAFF24CCA9FF26CCA8FF9D
:105A4000A69CA69EA6840F01550EA76EAA0EA76E51
:105A5000A682A6B2FED7A6940050F21247D03AD042
:105A60000C01DA0E2025016E0A0E2121036E7A0E3A
:105A70001E25E96E010E1F21EA6EEFCF26FC03C042
:105A8000EAFF01C0E9FF26CCEFFF5D0E1E25246F63
:105A9000000E1F21256F7A0E1E25E96E010E1F21B3
:105AA000EA6EEFCF26FCF250006EF29E25CCAAFFE4
:105AB00024CCA9FF26CCA8FFA69CA69EA6840F01F5
:105AC000550EA76EAA0EA76EA682A6B2FED7A69402
:105AD0000050F2120C011FCC03F01E511E2BD8B443
