:0400000084EF46F053
:08000800046ED8CF05F0E0CF33
:1000100006F00001E9CF0CF0EACF07F0E1CF08F0DD
:10002000E2CF09F0D9CF0AF0DACF0BF0F3CF12F01C
:10003000F4CF13F0FACF14F0F5CF15F0F6CF16F099
:10004000F7CF17F000C00EF001C00FF002C010F0A3
:1000500003C011F09DA230EF00F09EB2BDEF02F0A0
:100060009DAA36EF00F09EBAB5EF02F00EC000F088
:100070000FC001F010C002F011C003F00CC0E9FF86
:1000800007C0EAFF078E08C0E1FF09C0E2FF0AC00F
:10009000D9FF0BC0DAFF12C0F3FF13C0F4FF14C086
:1000A000FAFF15C0F5FF16C0F6FF17C0F7FF0450A2
:1000B00006C0E0FF05C0D8FF1000F76ACA0FF66E51
:1000C000000EF7220900F550120000C1814001C066
:1000D000804101C0804100C1814001C0804100C118
:1000E000814000C1814001C0804101C0804100C108
:1000F000814000C1814001C0804100C1814001C0F8
:10010000804101C0804100C1814001C0804100C1E7
:10011000814000C1814001C0804100C1814001C0D7
:10012000804101C0804100C1814000C1814001C0C7
:10013000804101C0804100C1814001C0804100C1B7
:10014000814000C1814001C0804101C0804100C1A7
:10015000814000C1814001C0804100C1814001C097
:10016000804101C0804100C1814000C1814001C087
:10017000804101C0804100C1814001C0804100C177
:10018000814000C1814001C0804100C1814001C067
:10019000804101C0804100C1814001C0804100C157
:1001A000814000C1814001C0804101C0804100C147
:1001B000814000C1814001C0804100C1814001C037
:1001C000804101C0804100C18140F76ADA0FF66EBC
:1001D000010EF7220900F550120000C0C101C3034F
:1001E00002C2C60607C705C5C404CC0C0DCD0FCF8F
:1001F000CE0E0ACACB0BC90908C8D81819D91BDBFF
:10020000DA1A1EDEDF1FDD1D1CDC14D4D515D7174E
:1002100016D6D21213D311D1D010F03031F133F3FE
:10022000F23236F6F737F53534F43CFCFD3DFF3F4E
:100230003EFEFA3A3BFB39F9F83828E8E929EB2B7E
:100240002AEAEE2E2FEF2DEDEC2CE42425E527E70E
:10025000E62622E2E323E12120E0A06061A163A37E
:10026000A26266A6A767A56564A46CACAD6DAF6F0E
:100270006EAEAA6A6BAB69A9A86878B8B979BB7B7E
:100280007ABABE7E7FBF7DBDBC7CB47475B577B7CE
:10029000B67672B2B373B17170B0509091519353FE
:1002A000529296565797559594549C5C5D9D5F9FCE
:1002B0009E5E5A9A9B5B99595898884849894B8BFE
:1002C0008A4A4E8E8F4F8D4D4C8C4484854587478E
:1002D0004686824243834181804004006F51785DAD
:1002E00013E17A6B7A0E7A25E96E010EEA6ED8B0C8
:1002F000EA2A2EC0EFFF04007A2B100E786F140E3E
:100300000901856F2FD10001785110085CE17A0E48
:100310007A25E96E010EEA6ED8B0EA2A2EC0EFFF08
:1003200004007A2B010E7A5D7A0FE96E010EEA6EF7
:10033000D8B0EA2AEF50160807E370C078F0140E20
:100340000901856F3ED00001010E7A5D7A0FE96EDA
:10035000010EEA6ED8B0EA2AEF50200807E173C018
:1003600078F0140E0901856F2CD00001010E7A5D22
:100370007A0FE96E010EEA6ED8B0EA2AEF50210832
:1003800007E176C078F0140E0901856F1AD00001DC
:10039000010E7A5D7A0FE96E010EEA6ED8B0EA2A94
:1003A000EF50220807E175C078F0140E0901856F3F
:1003B00008D000017A6B6FC078F00901856B8A96CE
:1003C0009396D0D000017551785D12E17A0E7A25AE
:1003D000E96E010EEA6ED8B0EA2A2EC0EFFF0400E3
:1003E0007A2B76C078F0140E0901856FBBD000011E
:1003F0007651785D1DE17A0E7A25E96E010EEA6E7E
:10040000D8B0EA2A2EC0EFFF04007A2B010E7A5DE5
:100410007A0FE96E010EEA6ED8B0EA2A0901876BFD
:10042000EFCF86F9140E856F77C078F09BD000016E
:100430007751785D1AE17A0E7A25E96E010EEA6E3F
:10044000D8B0EA2A2EC0EFFF04007A2B09018651AA
:10045000D8B487078607865304E1875302E173C047
:1004600078F0140E856F7ED000017051785D12E136
:100470007A0E7A25E96E010EEA6ED8B0EA2A2EC00D
:10048000EFFF04007A2B71C078F0140E0901856F1C
:1004900069D000017151785D12E17A0E7A25E96E1A
:1004A000010EEA6ED8B0EA2A2EC0EFFF04007A2BC4
:1004B00072C078F0140E0901856F54D0000172519A
:1004C000785D12E17A0E7A25E96E010EEA6ED8B0F7
:1004D000EA2A2EC0EFFF04007A2B150E786F140E57
:1004E0000901856F3FD000017851150812E17A0E9D
:1004F0007A25E96E010EEA6ED8B0EA2A2EC0EFFF27
:1005000004007A2B73C078F0140E0901856F2AD08D
:1005100000017351785D12E17A0E7A25E96E010EC1
:10052000EA6ED8B0EA2A2EC0EFFF04007A2B74C01E
:1005300078F0140E0901856F15D000017451785DB3
:1005400011E17A0E7A25E96E010EEA6ED8B0EA2A38
:100550002EC0EFFF04006FC078F00901856B308A70
:100560008A9693960001BAEF02F09EAAFED7AECF0C
:100570002EF0B3D69E9A36EF00F0192A0901855362
:1005800007E08507855304E16FC078F08A9693965B
:100590001C520CE01C061C5209E11D5204E01D0611
:1005A0001D5201E11A843088640E1C6E1950320805
:1005B00014E1196A1AB004D01A808A8A939A03D077
:1005C0001A908A9A939A1AAC07D02F5201E02F06FC
:1005D0002F5201E11A8A01D02F6A1B5213E01B0629
:1005E0001B520AE1886930B205D01AA202D01A92D1
:1005F00001D01A826CC01BF0315204E03106315236
:1006000001E130929E92000136EF00F041542B43FD
:100610004D47463D310041542B434D47533D220049
:1006200041542B434D47463D310041542B434D47E8
:10063000533D220041542B434D47463D3100415428
:100640002B434D47533D220041542B434D47463DDC
:10065000310041542B434D47533D220041542B431D
:100660004D47463D310041542B434D47533D2200F9
:1006700041542B434D47463D310041542B434D4798
:10068000533D220041542B434D47463D31004154D8
:100690002B434D47533D220041542B434D47463D8C
:1006A000310041542B434D47533D22000C0EEA6E5E
:1006B000230EE96EEF5011E0050E016EBF0E006EC5
:1006C0000400002EFDD7012EF9D72E0E006E002E4D
:1006D000FED700000400EF2EEFD71200929A899AFD
:1006E0000C0124514009276FC95027CCC9FFC730DE
:1006F000FEE3C95025CCC9FFC730FEE3C95026CC64
:10070000C9FFC730FEE3929A898A00011200929ACB
:10071000898A929A0C01246B0A0E256FAA0E266F05
:100720000001DCDF020E0C01246F0A0E256FAA0EF9
:10073000266F0001D3DF040E0C01246F0A0E256F13
:10074000AA0E266F0001CADF060E0C01246F0A0EE6
:10075000256FAA0E266F0001C1DF080E0C01246F61
:100760000A0E256FAA0E266F0001B8DF0A0E0C01D3
:10077000246F256FAA0E266F0001B0DF0C0E0C014E
:10078000246F0A0E256FAA0E266F0001A7DF0E0E3A
:100790000C01246F0A0E256FAA0E266F00019EDF42
:1007A000F6EF46F01ACC24FC0C01256B1BCC26FC82
:1007B000000194DF12001ACC24FC100E0C01256FEE
:1007C0001BCC26FC00018ADF1200F2CF24FCF29E33
:1007D000AA6A010EA96EA69CA69EA680A8500C012E
:1007E00024BFF28E396E39C03AF00B019E9139B0B8
:1007F0009E81D89039309E93E8B09E833930006E48
:1008000000323F0E00169E9500B09E853930006E76
:10081000003200321F0E00169E9700B09E873938B6
:10082000006E0F0E00169E9900B09E893938006E3A
:100830000032070E00169E9B00B09E8B3938006E6A
:1008400000320032030E00169E9D00B09E8D006A9D
:1008500039BE00809E9F00B09E8FF2CF24FCF29E96
:10086000AA6A020EA96EA69CA69EA680A8500C019C
:1008700024BFF28E396E39C03BF00B019F9139B025
:100880009F81D89039309F93E8B09F833930006EB4
:1008900000323F0E00169F9500B09F853930006EE4
:1008A000003200321F0E00169F9700B09F87393824
:1008B000006E0F0E00169F9900B09F893938006EA8
:1008C0000032070E00169F9B00B09F8B3938006ED8
:1008D00000320032030E00169F9D00B09F8D006A0B
:1008E00039BE00809F9F00B09F8F0C0112930B01B7
:1008F0009EA103D00C0112830B010C0112950B0178
:100900009EA303D00C0112850B010C0112970B0161
:100910009EA503D00C0112870B010C0112990B014B
:100920009EA703D00C0112890B010C01129B0B0135
:100930009EA903D00C01128B0B010C01129D0B011F
:100940009EAB03D00C01128D0B010C01129F0B0109
:100950009EAD03D00C01128F0B010C0113910B0102
:100960009EAF03D00C0113810B010C0113930B01FB
:100970009FA103D00C0113830B010C0113950B01F4
:100980009FA303D00C0113850B010C0113970B01DE
:100990009FA503D00C0113870B010C0113990B01C8
:1009A0009FA703D00C0113890B010C01139B0B01B2
:1009B0009FA903D00C01138B0B010C01139D0B019C
:1009C0009FAB03D00C01138D0B010C01139F0B0186
:1009D0009FAD03D00C01138F0B010C0114910B017F
:1009E0009FAF03D00C0114810B01F2CF24FCF29EC7
:1009F000AA6A040EA96EA69CA69EA680A8500C0109
:100A000024BFF28E396E39C03DF00B01A09139B090
:100A1000A081D8903930A093E8B0A0833930006E1F
:100A200000323F0E0016A09500B0A0853930006E50
:100A3000003200321F0E0016A09700B0A087393890
:100A4000006E0F0E0016A09900B0A0893938006E14
:100A50000032070E0016A09B00B0A08B3938006E44
:100A600000320032030E0016A09D00B0A08D006A77
:100A700039BE0080A09F00B0A08FF2CF24FCF29E70
:100A8000AA6A050EA96EA69CA69EA680A8500C0177
:100A900024BFF28E396E39C03EF00B01A19139B0FE
:100AA000A181D8903930A193E8B0A1833930006E8C
:100AB00000323F0E0016A19500B0A1853930006EBE
:100AC000003200321F0E0016A19700B0A1873938FE
:100AD000006E0F0E0016A19900B0A1893938006E82
:100AE0000032070E0016A19B00B0A18B3938006EB2
:100AF00000320032030E0016A19D00B0A18D006AE5
:100B000039BE0080A19F00B0A18FF2CF24FCF29EDD
:100B1000AA6A070EA96EA69CA69EA680A8500C01E4
:100B200024BFF28E396E39C040F00B01A29139B06A
:100B3000A281D8903930A293E8B0A2833930006EF8
:100B400000323F0E0016A29500B0A2853930006E2B
:100B5000003200321F0E0016A29700B0A28739386B
:100B6000006E0F0E0016A29900B0A2893938006EEF
:100B70000032070E0016A29B00B0A28B3938006E1F
:100B800000320032030E0016A29D00B0A28D006A52
:100B900039BE0080A29F00B0A28FF2CF24FCF29E4B
:100BA000AA6A080EA96EA69CA69EA680A8500C0153
:100BB00024BFF28E396E39C041F00B01A39139B0D8
:100BC000A381D8903930A393E8B0A3833930006E65
:100BD00000323F0E0016A39500B0A3853930006E99
:100BE000003200321F0E0016A39700B0A3873938D9
:100BF000006E0F0E0016A39900B0A3893938006E5D
:100C00000032070E0016A39B00B0A38B3938006E8C
:100C100000320032030E0016A39D00B0A38D006ABF
:100C200039BE0080A39F00B0A38FF2CF24FCF29EB8
:100C3000AA6A0A0EA96EA69CA69EA680A8500C01C0
:100C400024BFF28E396E39C043F00B01A49139B044
:100C5000A481D8903930A493E8B0A4833930006ED1
:100C600000323F0E0016A49500B0A4853930006E06
:100C7000003200321F0E0016A49700B0A487393846
:100C8000006E0F0E0016A49900B0A4893938006ECA
:100C90000032070E0016A49B00B0A48B3938006EFA
:100CA00000320032030E0016A49D00B0A48D006A2D
:100CB00039BE0080A49F00B0A48FF2CF24FCF29E26
:100CC000AA6A0B0EA96EA69CA69EA680A8500C012F
:100CD00024BFF28E396E39C044F00B01A59139B0B2
:100CE000A581D8903930A593E8B0A5833930006E3E
:100CF00000323F0E0016A59500B0A5853930006E74
:100D0000003200321F0E0016A59700B0A5873938B3
:100D1000006E0F0E0016A59900B0A5893938006E37
:100D20000032070E0016A59B00B0A58B3938006E67
:100D300000320032030E0016A59D00B0A58D006A9A
:100D400039BE0080A59F00B0A58FF2CF24FCF29E93
:100D5000AA6A0D0EA96EA69CA69EA680A8500C019C
:100D600024BFF28E396E39C046F00B01A69139B01E
:100D7000A681D8903930A693E8B0A6833930006EAA
:100D800000323F0E0016A69500B0A6853930006EE1
:100D9000003200321F0E0016A69700B0A687393821
:100DA000006E0F0E0016A69900B0A6893938006EA5
:100DB0000032070E0016A69B00B0A68B3938006ED5
:100DC00000320032030E0016A69D00B0A68D006A08
:100DD00039BE0080A69F00B0A68FF2CF24FCF29E01
:100DE000AA6A0E0EA96EA69CA69EA680A8500C010B
:100DF00024BFF28E396E39C047F00B01A79139B08C
:100E0000A781D8903930A793E8B0A7833930006E16
:100E100000323F0E0016A79500B0A7853930006E4E
:100E2000003200321F0E0016A79700B0A78739388E
:100E3000006E0F0E0016A79900B0A7893938006E12
:100E40000032070E0016A79B00B0A78B3938006E42
:100E500000320032030E0016A79D00B0A78D006A75
:100E600039BE0080A79F00B0A78FF2CF24FCF29E6E
:100E7000AA6A100EA96EA69CA69EA680A8500C0178
:100E800024BFF28E396E0B01B29139B0B281D89085
:100E90003930B293E8B0B2833930006E00323F0E81
:100EA0000016B29500B0B2853930006E00320032C3
:100EB0001F0E0016B29700B0B2873938006E0F0EC1
:100EC0000016B29900B0B2893938006E0032070EB0
:100ED0000016B29B00B0B28B3938006E003200327F
:100EE000030E0016B29D00B0B28D006A39BE0080BC
:100EF000B29F00B0B28FF2CF24FCF29EAA6A110E0C
:100F0000A96EA69CA69EA680A8500C0124BFF28EB6
:100F1000396E0B01B39139B0B381D8903930B393A6
:100F2000E8B0B383F2CF24FCF29EAA6A120EA96E37
:100F3000A69CA69EA680A8500C0124BFF28E396EF6
:100F40000B01B39539B0B385D8903930B397E8B079
:100F5000B3873930006E00323F0E0016B39900B0EF
:100F6000B3893930006E003200321F0E0016B39B79
:100F700000B0B38B3938006E0F0E0016B39D00B071
:100F8000B38D3938006E0032070E0016B39F00B0E3
:100F9000B38FF2CF24FCF29EAA6A140EA96EA69C0F
:100FA000A69EA680A8500C0124BFF28E396E0B01BC
:100FB000B49139B0B481D8903930B493E8B0B483E7
:100FC0003930006E00323F0E0016B49500B0B48583
:100FD0003930006E003200321F0E0016B49700B098
:100FE000B4873938006E0F0E0016B49900B0B4897A
:100FF0003938006E0032070E0016B49B00B0B48B77
:101000003938006E00320032030E0016B49D00B075
:10101000B48D006A39BE0080B49F00B0B48FF2CFA7
:1010200024FCF29EAA6A150EA96EA69CA69EA68016
:10103000A8500C0124BFF28E396E0B01B59139B066
:10104000B581D8903930B593E8B0B583F2CF24FCA0
:10105000F29EAA6A160EA96EA69CA69EA680A8500D
:101060000C0124BFF28E396E0B01B59539B0B585F0
:10107000D8903930B597E8B0B5873930006E003276
:101080003F0E0016B59900B0B5893930006E0032B8
:1010900000321F0E0016B59B00B0B58B3938006EBC
:1010A0000F0E0016B59D00B0B58D3938006E0032B8
:1010B000070E0016B59F00B0B58FF2CF24FCF29E4C
:1010C000AA6A180EA96EA69CA69EA680A8500C011E
:1010D00024BFF28E00016A6FF2CF24FCF29EAA6A4E
:1010E000190EA96EA69CA69EA680A8500C0124BF2E
:1010F000F28E00016B6FF2CF24FCF29EAA6A1A0EE8
:10110000A96EA69CA69EA680A8500C0124BFF28EB4
:1011100000016C6FF2CF24FCF29EAA6A1B0EA96E2E
:10112000A69CA69EA680A8500C0124BFF28E0001AA
:101130006D6FF2CF24FCF29EAA6A1C0EA96EA69CCB
:10114000A69EA680A8500C0124BFF28E0B01E96B6D
:10115000E86FF2CF24FCF29EAA6A1D0EA96EA69C2F
:10116000A69EA680A8500C0124BFF28E0001796FC4
:10117000F2CF24FCF29EAA6A1E0EA96EA69CA69E21
:10118000A680A8500C0124BFF28E0B01EB6BEA6F16
:10119000F2CF24FCF29EAA6A1F0EA96EA69CA69E00
:1011A000A680A8500C0124BFF28E0B01ED6BEC6FF2
:1011B000F2CF24FCF29EAA6A200EA96EA69CA69EDF
:1011C000A680A8500C0124BFF28E0B01EF6BEE6FCE
:1011D000F2CF24FCF29EAA6A210EA96EA69CA69EBE
:1011E000A680A8500C0124BFF28E0B01F16BF06FAA
:1011F000F2CF24FCF29EAA6A220EA96EA69CA69E9D
:10120000A680A8500C0124BFF28E0B01F36BF26F85
:10121000F2CF24FCF29EAA6A230EA96EA69CA69E7B
:10122000A680A8500C0124BFF28E0B01F56BF46F61
:10123000F2CF24FCF29EAA6A240EA96EA69CA69E5A
:10124000A680A8500C0124BFF28E0B01F76BF66F3D
:10125000F2CF24FCF29EAA6A250EA96EA69CA69E39
:10126000A680A8500C0124BFF28E0B01F96BF86F19
:10127000F2CF24FCF29EAA6A260EA96EA69CA69E18
:10128000A680A8500C0124BFF28E0B01FB6BFA6FF5
:10129000F2CF24FCF29EAA6A270EA96EA69CA69EF7
:1012A000A680A8500C0124BFF28E0B01FD6BFC6FD1
:1012B000F2CF24FCF29EAA6A280EA96EA69CA69ED6
:1012C000A680A8500C0124BFF28E0B01FF6BFE6FAD
:1012D000F2CF24FCF29EAA6A290EA96EA69CA69EB5
:1012E000A680A8500C0124BFF28E016B006FF2CFD4
:1012F00024FCF29EAA6A2A0EA96EA69CA69EA6802F
:10130000A85024BFF28E036B026FF2CF24FCF29E32
:10131000AA6A2B0EA96EA69CA69EA680A85024BFE2
:10132000F28E056B046FF2CF24FCF29EAA6A2C0E9B
:10133000A96EA69CA69EA680A85024BFF28E076B1D
:10134000066FF2CF24FCF29EAA6A2D0EA96EA69C0F
:10135000A69EA680A85024BFF28E096B086FF2CF1C
:1013600024FCF29EAA6A2E0EA96EA69CA69EA680BA
:10137000A85024BFF28E0B6B0A6FF2CF24FCF29EB2
:10138000AA6A2F0EA96EA69CA69EA680A85024BF6E
:10139000F28E0D6B0C6FF2CF24FCF29EAA6A300E17
:1013A000A96EA69CA69EA680A85024BFF28E0F6BA5
:1013B0000E6FF2CF24FCF29EAA6A310EA96EA69C93
:1013C000A69EA680A85024BFF28E116B106F1A6BD8
:1013D0000400320E1A25246FF2CF25FCF29EAA6A71
:1013E00024CCA9FFA69CA69EA680A85025BFF28E5D
:1013F0001B6F1B510D0803E01A510F0824E2036A0A
:101400001A518B0FE96E090E0320EA6EEF6A320E55
:101410001A25246FF250006EF29EAA6A24CCA9FF0E
:101420001BCCA8FFA69CA69EA6840F01550EA76EF6
:10143000AA0EA76EA682A6B2FED7A6940050F212FC
:1014400010D00BD00C01036A1A518B0FE96E090EF4
:101450000320EA6E1BCCEFFF0F010C011A2BB8D74B
:101460000F010C011D6B030E1C6F1F6B1E6B216B9C
:10147000206B04005D0E1C25246F000E1D21256FBE
:10148000F2CF26FCF29E25CCAAFF24CCA9FFA69C75
:10149000A69EA680A85026BFF28E236B226F2251F3
:1014A0000D0802E1235305E01F5303E11E511E08FE
:1014B00009E29A0E1E25E96E090E1F21EA6EEF6AF7
:1014C00013D008D09A0E1E25E96E090E1F21EA6E70
:1014D00022CCEFFF1DCC03F01C511C2BD8B41D2BCC
:1014E0001E2BD8B41F2BC5D71C2BD8B41D2B1F6B9C
:1014F0001E6B04005D0E1C25246F000E1D21256F40
:10150000F2CF26FCF29E25CCAAFF24CCA9FFA69CF4
:10151000A69EA680A85026BFF28E236B226F225172
:101520000D0802E1235305E01F5303E11E511E087D
:1015300009E2BA0E1E25E96E090E1F21EA6EEF6A56
:1015400013D008D0BA0E1E25E96E090E1F21EA6ECF
:1015500022CCEFFF1DCC03F01C511C2BD8B41D2B4B
:101560001E2BD8B41F2BC5D71C2BD8B41D2B1F6B1B
:101570001E6B04005D0E1C25246F000E1D21256FBF
:10158000F2CF26FCF29E25CCAAFF24CCA9FFA69C74
:10159000A69EA680A85026BFF28E236B226F2251F2
:1015A0000D0802E1235305E01F5303E11E511E08FD
:1015B00009E2DA0E1E25E96E090E1F21EA6EEF6AB6
:1015C00013D008D0DA0E1E25E96E090E1F21EA6E2F
:1015D00022CCEFFF1DCC03F01C511C2BD8B41D2BCB
:1015E0001E2BD8B41F2BC5D71C2BD8B41D2B1F6B9B
:1015F0001E6B04005D0E1C25246F000E1D21256F3F
:10160000F2CF26FCF29E25CCAAFF24CCA9FFA69CF3
:10161000A69EA680A85026BFF28E236B226F225171
:101620000D0802E1235305E01F5303E11E511E087C
:1016300009E2FA0E1E25E96E090E1F21EA6EEF6A15
:1016400013D008D0FA0E1E25E96E090E1F21EA6E8E
:1016500022CCEFFF1DCC03F01C511C2BD8B41D2B4A
:101660001E2BD8B41F2BC5D71C2BD8B41D2B1F6B1A
:101670001E6B04005D0E1C25246F000E1D21256FBE
:10168000F2CF26FCF29E25CCAAFF24CCA9FFA69C73
:10169000A69EA680A85026BFF28E236B226F2251F1
:1016A0000D0802E1235305E01F5303E11E511E08FC
:1016B00009E21A0E1E25E96E0A0E1F21EA6EEF6A74
:1016C00013D008D01A0E1E25E96E0A0E1F21EA6EED
:1016D00022CCEFFF1DCC03F01C511C2BD8B41D2BCA
:1016E0001E2BD8B41F2BC5D71C2BD8B41D2B1F6B9A
:1016F0001E6B04005D0E1C25246F000E1D21256F3E
:10170000F2CF26FCF29E25CCAAFF24CCA9FFA69CF2
:10171000A69EA680A85026BFF28E236B226F225170
:101720000D0802E1235305E01F5303E11E511E087B
:1017300009E23A0E1E25E96E0A0E1F21EA6EEF6AD3
:1017400013D008D03A0E1E25E96E0A0E1F21EA6E4C
:1017500022CCEFFF1DCC03F01C511C2BD8B41D2B49
:101760001E2BD8B41F2BC5D71C2BD8B41D2B1F6B19
:101770001E6B04005D0E1C25246F000E1D21256FBD
:10178000F2CF26FCF29E25CCAAFF24CCA9FFA69C72
:10179000A69EA680A85026BFF28E236B226F2251F0
:1017A0000D0802E1235305E01F5303E11E511E08FB
:1017B00009E25A0E1E25E96E0A0E1F21EA6EEF6A33
:1017C00013D008D05A0E1E25E96E0A0E1F21EA6EAC
:1017D00022CCEFFF1DCC03F01C511C2BD8B41D2BC9
:1017E0001E2BD8B41F2BC5D71C2BD8B41D2B1F6B99
:1017F0001E6B04005D0E1C25246F000E1D21256F3D
:10180000F2CF26FCF29E25CCAAFF24CCA9FFA69CF1
:10181000A69EA680A85026BFF28E236B226F22516F
:101820000D0802E1235305E01F5303E11E511E087A
:1018300009E27A0E1E25E96E0A0E1F21EA6EEF6A92
:1018400013D008D07A0E1E25E96E0A0E1F21EA6E0B
:1018500022CCEFFF1DCC03F01C511C2BD8B41D2B48
:101860001E2BD8B41F2BC5D71C2BD8B41D2B1F6B18
:101870001E6B04005D0E1C25246F000E1D21256FBC
:10188000F2CF26FCF29E25CCAAFF24CCA9FFA69C71
:10189000A69EA680A85026BFF28E236B226F2251EF
:1018A0000D0802E1235305E01F5303E11E511E08FA
:1018B00009E29A0E1E25E96E0A0E1F21EA6EEF6AF2
:1018C00013D008D09A0E1E25E96E0A0E1F21EA6E6B
:1018D00022CCEFFF1DCC03F01C511C2BD8B41D2BC8
:1018E0001E2BD8B41F2BC5D71C2BD8B41D2B1F6B98
:1018F0001E6B04005D0E1C25246F000E1D21256F3C
:10190000F2CF26FCF29E25CCAAFF24CCA9FFA69CF0
:10191000A69EA680A85026BFF28E236B226F22516E
:101920000D0802E1235305E01F5303E11E511E0879
:1019300009E2BA0E1E25E96E0A0E1F21EA6EEF6A51
:1019400013D008D0BA0E1E25E96E0A0E1F21EA6ECA
:1019500022CCEFFF1DCC03F01C511C2BD8B41D2B47
:101960001E2BD8B41F2BC5D71C2BD8B41D2B1F6B17
:101970001E6B04005D0E1C25246F000E1D21256FBB
:10198000F2CF26FCF29E25CCAAFF24CCA9FFA69C70
:10199000A69EA680A85026BFF28E236B226F2251EE
:1019A0000D0802E1235305E01F5303E11E511E08F9
:1019B00009E2DA0E1E25E96E0A0E1F21EA6EEF6AB1
:1019C00013D008D0DA0E1E25E96E0A0E1F21EA6E2A
:1019D00022CCEFFF1DCC03F01C511C2BD8B41D2BC7
:1019E0001E2BD8B41F2BC5D71C2BD8B41D2B1F6B97
:1019F0001E6B04005D0E1C25246F000E1D21256F3B
:101A0000F2CF26FCF29E25CCAAFF24CCA9FFA69CEF
:101A1000A69EA680A85026BFF28E236B226F22516D
:101A20000D0802E1235305E01F5303E11E511E0878
:101A300009E2FA0E1E25E96E0A0E1F21EA6EEF6A10
:101A400013D008D0FA0E1E25E96E0A0E1F21EA6E89
:101A500022CCEFFF1DCC03F01C511C2BD8B41D2B46
:101A60001E2BD8B41F2BC5D71C2BD8B41D2B1F6B16
:101A70001E6B04005D0E1C25246F000E1D21256FBA
:101A8000F2CF26FCF29E25CCAAFF24CCA9FFA69C6F
:101A9000A69EA680A85026BFF28E236B226F2251ED
:101AA0000D0802E1235305E01F5303E11E511E08F8
:101AB00009E21A0E1E25E96E0B0E1F21EA6EEF6A6F
:101AC00013D008D01A0E1E25E96E0B0E1F21EA6EE8
:101AD00022CCEFFF1DCC03F01C511C2BD8B41D2BC6
:101AE0001E2BD8B41F2BC5D71C2BD8B41D2B1F6B96
:101AF0001E6B04005D0E1C25246F000E1D21256F3A
:101B0000F2CF26FCF29E25CCAAFF24CCA9FFA69CEE
:101B1000A69EA680A85026BFF28E236B226F22516C
:101B20000D0802E1235305E01F5303E11E511E0877
:101B300009E23A0E1E25E96E0B0E1F21EA6EEF6ACE
:101B400013D008D03A0E1E25E96E0B0E1F21EA6E47
:101B500022CCEFFF1DCC03F01C511C2BD8B41D2B45
:101B60001E2BD8B41F2BC5D71C2BD8B41D2B1F6B15
:101B70001E6B04005D0E1C25246F000E1D21256FB9
:101B8000F2CF26FCF29E25CCAAFF24CCA9FFA69C6E
:101B9000A69EA680A85026BFF28E236B226F2251EC
:101BA0000D0802E1235305E01F5303E11E511E08F7
:101BB00009E25A0E1E25E96E0B0E1F21EA6EEF6A2E
:101BC00013D008D05A0E1E25E96E0B0E1F21EA6EA7
:101BD00022CCEFFF1DCC03F01C511C2BD8B41D2BC5
:101BE0001E2BD8B41F2BC5D71C2BD8B41D2B1F6B95
:101BF0001E6B04005D0E1C25246F000E1D21256F39
:101C0000F2CF26FCF29E25CCAAFF24CCA9FFA69CED
:101C1000A69EA680A85026BFF28E236B226F22516B
:101C20000D0802E1235305E01F5303E11E511E0876
:101C300009E27A0E1E25E96E0B0E1F21EA6EEF6A8D
:101C400013D008D07A0E1E25E96E0B0E1F21EA6E06
:101C500022CCEFFF1DCC03F01C511C2BD8B41D2B44
:101C60001E2BD8B41F2BC5D70001C1EF47F0929AA5
:101C7000899A0C012A5141092D6FC9502DCCC9FFF9
:101C8000C730FEE3C9502BCCC9FFC730FEE3C950B3
:101C9000C96AC730FEE3C9CF2CFC929A898A2CCC42
:101CA00001F00001120028CC2AFC090E0C012B6F58
:101CB0000001DDDF01C029FC0C0129CC01F000018D
:101CC000120028CC2AFC190E0C012B6F0001CFDF6B
:101CD00001C029FC0C0129CC01F0000112000C010B
:101CE0002B51070B006E2B31016E013201321F0E9A
:101CF000011601502C25E96E000E2D21EA6EEFCF62
:101D000001F0002A01D00132002EFDD7010E01168C
:101D1000000112000C012C512E03F3CF01F0F4CF7F
:101D200000F02F03F35000262D512E03F350002016
:101D3000026E000112000C012B51070B006E2B31BB
:101D4000016E013201321F0E011601502D25E96E80
:101D5000000E2E21EA6E016A012A002A01D0013606
:101D6000002EFDD72C5303E00150EF1203D0011ECB
:101D70000150EF16000112000C01286B010E286FB4
:101D800028BF03D02851100823E3036A2851006EAE
:101D9000E8BE0306296F03C02AFC036A2851006EBF
:101DA000E8BE03062B6F0B0E2D6FBB0E2C6F0001D0
:101DB00096DF29CC2BFC0C012C6B01B02C2B0B0ECD
:101DC0002E6FB80E2D6F0001B6DF0C01282BD8D76F
:101DD0000001AAEF12F0020E0C01286F000163DF70
:101DE00001C083F91AA803D00901831F0001D8900C
:101DF000090183310B01BB93E8B0BB830901833137
:101E0000006E00323F0E00160B01BB9500B0BB8583
:101E100009018331006E003200321F0E00160B01E3
:101E2000BB9700B0BB8709018339006E0F0E001607
:101E30000B01BB9900B0BB8909018339006E0032E8
:101E4000070E00160B01BB9B00B0BB8B0901833949
:101E5000006E00320032030E00160B01BB9D00B075
:101E6000BB8D006A090183BF00800B01BB9F00B0DE
:101E7000BB8F020E0C01286F000123DF01C083F924
:101E80001AA803D00901831F00010B01BC910901AD
:101E900083A103D00B01BC8109010C01286B000157
:101EA00002DF01C083F91AA803D00901831F0001D2
:101EB000D890090183310B01BC93E8B0BC830901C0
:101EC0008331006E00323F0E00160B01BC9500B04E
:101ED000BC8509018331006E003200321F0E0016EE
:101EE0000B01BC9700B0BC8709018339006E0F0E4F
:101EF00000160B01BC9900B0BC8909018339006E42
:101F00000032070E00160B01BC9B00B0BC8B090110
:101F10008339006E00320032030E00160B01BC9DA7
:101F200000B0BC8D006A090183BF00800B01BC9F1B
:101F300000B0BC8F0C01286B0001C3DE01C083F927
:101F40001AA803D00901831F00010B01BD910901EB
:101F500083A103D00B01BD810901010E0C01276F84
:101F600027511008D8A0F4D227CC2BFC0C0E2D6FD3
:101F7000120E2C6F0001B3DE0150010B0108D8A432
:101F80006BD127CC2BFC0B0E0C012D6FBB0E2C6FD5
:101F90000001A5DE0150010BD8A4AFD027CC2BFC4B
:101FA0000B0E0C012D6FB80E2C6F000198DE015046
:101FB000010BD8A494D0D8900C012735036ABE0F2A
:101FC000E96E0B0E0320EA6E010EEE2601E3EF2A06
:101FD000D8902735036ABE0FE96E0B0E0320EA6E18
:101FE000ECCF29FCED52EFCF28FCD8902735036ABF
:101FF000E80FE96E0B0E0320EA6EECCF2DFCED52DC
:10200000EFCF2CFC2F6B4B0E2E6F000183DE02C036
:102010002BFC01C02AFC0F0E0C010124016E000EE6
:102020000220036E0350295D58E303E10150285D4F
:1020300054E3D8902735036ABE0FE96E0B0E0320D8
:10204000EA6EEC6AED52EF6A010E275DF00F45E291
:10205000100F000193EF13F00B019A910C013DD08A
:102060000B019A930C0139D00B019A950C0135D0D4
:102070000B019A970C0131D00B019A990C012DD0CC
:102080000B019A9B0C0129D00B019A9D0C0125D0C4
:102090000B019A9F0C0121D00B019B910C011DD0CB
:1020A0000B019B930C0119D00B019B950C0115D0D2
:1020B0000B019B970C0111D00B019B990C010DD0CA
:1020C0000B019B9B0C0109D00B019B9D0C0105D0C2
:1020D0000B019B9F0C0101D00C010DD00001D89089
:1020E0000C012735036ABE0FE96E0B0E0320EA6E62
:1020F000EC6AED52EF6AAFD0000127CC2BFC0B0E3F
:102100000C012D6FB80E2C6F0001E9DD0150010BA1
:102110000108D8A494D0D8900C012735036ABE0FCB
:10212000E96E0B0E0320EA6E010EEE2601E3EF2AA4
:10213000D8902735036ABE0FE96E0B0E0320EA6EB6
:10214000ECCF29FCED52EFCF28FCD8902735036A5D
:10215000E80FE96E0B0E0320EA6EECCF2DFCED527A
:10216000EFCF2CFC2F6B4B0E2E6F0001D3DD02C086
:102170002BFC01C02AFC0F0E0C010124016E000E85
:102180000220036E0350295D58E303E10150285DEE
:1021900054E3D8902735036ABE0FE96E0B0E032077
:1021A000EA6EEC6AED52010EEF6E275DF00F45E22C
:1021B000100F0001B0EF13F00B019A810C013DD01C
:1021C0000B019A830C0139D00B019A850C0135D093
:1021D0000B019A870C0131D00B019A890C012DD08B
:1021E0000B019A8B0C0129D00B019A8D0C0125D083
:1021F0000B019A8F0C0121D00B019B810C011DD08A
:102200000B019B830C0119D00B019B850C0115D090
:102210000B019B870C0111D00B019B890C010DD088
:102220000B019B8B0C0109D00B019B8D0C0105D080
:102230000B019B8F0C0101D00C010DD00001D89037
:102240000C012735036ABE0FE96E0B0E0320EA6E00
:10225000EC6AED52EF6A78D127CC2BFC0C0E0C0106
:102260002D6F120E2C6F00013ADD0150010BD8A426
:102270006CD127CC2BFC0B0E0C012D6FBB0E2C6FE1
:1022800000012DDD0150010B0108D8A4B0D027CCEE
:102290002BFC0B0E0C012D6FB80E2C6F00011FDDF7
:1022A0000150010B0108D8A494D0D8900C01273517
:1022B000036ABE0FE96E0B0E0320EA6E010EEE26D6
:1022C00001E3EF2AD8902735036ABE0FE96E0B0EA3
:1022D0000320EA6EECCF29FCED52EFCF28FCD8901A
:1022E0002735036AE80FE96E0B0E0320EA6EECCF88
:1022F0002DFCED52EFCF2CFC2F6B4B0E2E6F0001FF
:1023000009DD02C02BFC01C02AFC0F0E0C010124C8
:10231000016E000E0220036E0350295D58E303E1B5
:102320000150285D54E3D8902735036ABE0FE96E4B
:102330000B0E0320EA6EEC6AED52EF6A010E275D88
:10234000F00F45E2100F0001CDEF13F00B019A8161
:102350000C013DD00B019A830C0139D00B019A85F9
:102360000C0135D00B019A870C0131D00B019A89F1
:102370000C012DD00B019A8B0C0129D00B019A8DE9
:102380000C0125D00B019A8F0C0121D00B019B81F0
:102390000C011DD00B019B830C0119D00B019B85F7
:1023A0000C0115D00B019B870C0111D00B019B89EF
:1023B0000C010DD00B019B8B0C0109D00B019B8DE7
:1023C0000C0105D00B019B8F0C0101D00C010DD02D
:1023D0000001D8900C012735036ABE0FE96E0B0E81
:1023E0000320EA6EEC6AED52EF6AAED0000127CC12
:1023F0002BFC0B0E0C012D6FB80E2C6F00016FDC47
:102400000150010BD8A494D0D8900C012735036A51
:10241000BE0FE96E0B0E0320EA6E010EEE2601E3FD
:10242000EF2AD8902735036ABE0FE96E0B0E032002
:10243000EA6EECCF29FCED52EFCF28FCD89027357F
:10244000036AE80FE96E0B0E0320EA6EECCF2DFC59
:10245000ED52EFCF2CFC2F6B4B0E2E6F00015ADC90
:1024600002C02BFC01C02AFC0F0E0C010124016EDE
:10247000000E0220036E0350295D58E303E1015072
:10248000285D54E3D8902735036ABE0FE96E0B0E22
:102490000320EA6EEC6AED52EF6A010E275DF00F41
:1024A00045E2100F0001EAEF13F00B019A910C01C5
:1024B0003DD00B019A930C0139D00B019A950C0178
:1024C00035D00B019A970C0131D00B019A990C0170
:1024D0002DD00B019A9B0C0129D00B019A9D0C0168
:1024E00025D00B019A9F0C0121D00B019B910C016F
:1024F0001DD00B019B930C0119D00B019B950C0176
:1025000015D00B019B970C0111D00B019B990C016D
:102510000DD00B019B9B0C0109D00B019B9D0C0165
:1025200005D00B019B9F0C0101D00C010DD00001C7
:10253000D8900C012735036ABE0FE96E0B0E0320FD
:10254000EA6EEC6AED52EF6A00010C01272B08D508
:10255000000112D44C6A000E0B019BAF010E4C120D
:10256000D8904C340C01286F000E0B019BAF010E6C
:102570000C0128114C6ED8904C34286F000E0B01C2
:102580009BAF010E0C0128114C6ED8904C34286F73
:10259000000E0B019BAD010E0C0128114C6ED89062
:1025A0004C34286F000E0B019BAB010E0C0128115F
:1025B0004C6ED8904C34286F000E0B019BA9010E75
:1025C0000C0128114C6ED8904C34286F000E0B0172
:1025D0009BA7010E0C0128114C6ED8904C34286F2B
:1025E000000E0B019BA5010E0C0128114C6E496ACF
:1025F000000E0B019AAF010E4912D89049340C011C
:10260000286F000E0B019AAD010E0C012811496EC6
:10261000D8904934286F000E0B019AAB010E0C01C3
:102620002811496ED8904934286F000E0B019AA9E1
:10263000010E0C012811496ED8904934286F000E04
:102640000B019AA7010E0C012811496ED89049344C
:10265000286F000E0B019AA5010E0C012811496E7E
:10266000D8904934286F000E0B019AA3010E0C017B
:102670002811496ED8904934286F000E0B019AA199
:10268000010E0C012811496E4A6A000E0B019BAF26
:10269000010E4A12D8904A340C01286F000E0B012B
:1026A0009BAD010E0C0128114A6ED8904A34286F58
:1026B000000E0B019BAB010E0C0128114A6ED89045
:1026C0004A34286F000E0B019BA9010E0C01281142
:1026D0004A6ED8904A34286F000E0B019BA7010E5A
:1026E0000C0128114A6ED8904A34286F000E0B0155
:1026F0009BA5010E0C0128114A6ED8904A34286F10
:10270000000E0B019BA3010E0C0128114A6ED890FC
:102710004A34286F000E0B019BA1010E0C012811F9
:102720004A6E00011200E824F76AF736410FF66E90
:10273000270EF7220A00F550FA6E0800F550F96EE0
:1027400058206020682070207820802088209020E9
:102750009820A020A820B020B820C020C820D020D9
:10276000E824F76AF7367B0FF66E270EF7220A0089
:10277000F550FA6E0800F550F96EB821C021C82155
:10278000D021D821E021E821F021F82100220822DF
:1027900010221822202228223022E824F76AF73655
:1027A000B50FF66E270EF7220A00F550FA6E0800F4
:1027B000F550F96E4C2354235C2364236C2374235B
:1027C0007C2384238C2394239C23A423AC23B42331
:1027D000BC23C423E824F76AF736EF0FF66E270E02
:1027E000F7220A00F550FA6E0800F550F96EAA2497
:1027F000B224BA24C224CA24D224DA24E224EA2449
:10280000F224FA2402250A2512251A25222522CC93
:1028100024FC0A0E0C01256F23CC26FC00016EEC73
:1028200003F0120022CC24FC1A0E0C01256F23CCDD
:1028300026FC00016EEC03F012004E6A4F6A506AEB
:10284000516A526A536A546A556A2F52D8A4C9D140
:102850000B019CA103D04E92529214D0B2A105D08C
:10286000B4B103D04E8252920DD0B2B105D0B4A112
:1028700003D04E92528206D0B2A104D0B4A102D0AD
:102880004E8252829CA303D04E94529414D0B2A391
:1028900005D0B4B303D04E8452940DD0B2B305D05A
:1028A000B4A303D04E94528406D0B2A304D0B4A3F0
:1028B00002D04E8452849CA503D04E96529614D0DA
:1028C000B2A505D0B4B503D04E8652960DD0B2B5A0
:1028D00005D0B4A503D04E96528606D0B2A504D03A
:1028E000B4A502D04E8652869CA703D04E9852982B
:1028F00014D0B2A705D0B4B703D04E8852980DD0EB
:10290000B2B705D0B4A703D04E98528806D0B2A76C
:1029100004D0B4A702D04E8852889CA903D04E9A06
:10292000529A14D0B2A905D0B4B903D04E8A529AA3
:102930000DD0B2B905D0B4A903D04E9A528A06D0B0
:10294000B2A904D0B4A902D04E8A528A9CAB03D05B
:102950004E9C529C14D0B2AB05D0B4BB03D04E8C6D
:10296000529C0DD0B2BB05D0B4AB03D04E9C528C60
:1029700006D0B2AB04D0B4AB02D04E8C528C9CAD1E
:1029800003D04E9E529E14D0B2AD05D0B4BD03D03C
:102990004E8E529E0DD0B2BD05D0B4AD03D04E9E2A
:1029A000528E06D0B2AD04D0B4AD02D04E8E528E4F
:1029B0009CAF03D04F90539014D0B2AF05D0B4BFAA
:1029C00003D04F8053900DD0B2BF05D0B4AF03D029
:1029D0004F90538006D0B2AF04D0B4AF02D04F8036
:1029E00053809DA103D05092549214D0B3A105D02E
:1029F000B5B103D0508254920DD0B3B105D0B5A17A
:102A000003D05092548206D0B3A104D0B5A102D015
:102A1000508254829DA303D05094549414D0B3A3F5
:102A200005D0B5B303D0508454940DD0B3B305D0C2
:102A3000B5A303D05094548406D0B3A304D0B5A357
:102A400002D0508454849DA503D05096549614D03F
:102A5000B3A505D0B5B503D0508654960DD0B3B507
:102A600005D0B5A503D05096548606D0B3A504D0A2
:102A7000B5A502D0508654869DA703D0509854988F
:102A800014D0B3A705D0B5B703D0508854980DD053
:102A9000B3B705D0B5A703D05098548806D0B3A7D4
:102AA00004D0B5A702D0508854889DA903D0509A6D
:102AB000549A14D0B3A905D0B5B903D0508A549A0A
:102AC0000DD0B3B905D0B5A903D0509A548A06D019
:102AD000B3A904D0B5A902D0508A548A9DAB03D0C3
:102AE000509C549C14D0B3AB05D0B5BB03D0508CD4
:102AF000549C0DD0B3BB05D0B5AB03D0509C548CC7
:102B000006D0B3AB04D0B5AB02D0508C548C9DAD85
:102B100003D0509E549E14D0B3AD05D0B5BD03D0A4
:102B2000508E549E0DD0B3BD05D0B5AD03D0509E90
:102B3000548E06D0B3AD04D0B5AD02D0508E548EB5
:102B40009DAF03D05190559014D0B3AF05D0B5BF11
:102B500003D0518055900DD0B3BF05D0B5AF03D091
:102B60005190558006D0B3AF04D0B5AF02D051809C
:102B70005580040E0C01226F4EC023FC000147DE7D
:102B8000040E0C01226F4FC023FC00014BDE060E29
:102B90000C01226F52C023FC000139DE060E0C012D
:102BA000226F53C023FC00013DDE0A0E0C01226F90
:102BB00050C023FC00012BDE0A0E0C01226F51C015
:102BC00023FC00012FDE080E0C01226F54C023FCF1
:102BD00000011DDE080E0C01226F55C023FC000110
:102BE00021DE120005017B697A690C01286B2651F0
:102BF000285D21E2040028512425E96E000E2521DC
:102C0000EA6EEF5005017B190C01276F036A27510B
:102C100000015DEC00F0016E05017A5101187B6F37
:102C2000036A0C0127510001E5EC00F0E8CF7AF5CA
:102C30000C01282BDCD7000112009EA8FED7AD6E38
:102C400012001E6A1F6A266A276A0B01AAB104D005
:102C50009CB102D0B08101D0B091AAB304D09CB392
:102C600002D0B08301D0B093AAB504D09CB502D0F5
:102C7000B08501D0B095AAB704D09CB702D0B08778
:102C800001D0B097AAB904D09CB902D0B08901D0C4
:102C9000B099AABB04D09CBB02D0B08B01D0B09B32
:102CA000AABD04D09CBD02D0B08D01D0B09DAABFFA
:102CB00004D09CBF02D0B08F01D0B09FABB104D084
:102CC0009DB102D0B18101D0B191ABB304D09DB31D
:102CD00002D0B18301D0B193ABB504D09DB502D081
:102CE000B18501D0B195ABB704D09DB702D0B18703
:102CF00001D0B197ABB904D09DB902D0B18901D050
:102D0000B199ABBB04D09DBB02D0B18B01D0B19BBC
:102D1000ABBD04D09DBD02D0B18D01D0B19DABBF84
:102D200004D09DBF02D0B18F01D0B19F000EB0BFC3
:102D3000010E2612D89026340C01246F000E0B01D0
:102D4000B0BD010E0C012411266ED8902634246FDC
:102D5000000E0B01B0BB010E0C012411266ED890A1
:102D60002634246F000E0B01B0B9010E0C012411A2
:102D7000266ED8902634246F000E0B01B0B7010EDA
:102D80000C012411266ED8902634246F000E0B01FE
:102D9000B0B5010E0C012411266ED8902634246F94
:102DA000000E0B01B0B3010E0C012411266ED89059
:102DB0002634246F000E0B01B0B1010E0C0124115A
:102DC000266E000E0B01B1BF010E2712D8902734DA
:102DD0000C01246F000E0B01B1BD010E0C0124117A
:102DE000276ED8902734246F000E0B01B1BB010E63
:102DF0000C012411276ED8902734246F000E0B018C
:102E0000B1B9010E0C012411276ED8902734246F1C
:102E1000000E0B01B1B7010E0C012411276ED890E2
:102E20002734246F000E0B01B1B5010E0C012411E3
:102E3000276ED8902734246F000E0B01B1B3010E1A
:102E40000C012411276ED8902734246F000E0B013B
:102E5000B1B1010E0C012411276E000E0B01AABFA7
:102E6000010E1E12D8901E340C01246F000E0B01AF
:102E7000AABD010E0C0124111E6ED8901E34246FC1
:102E8000000E0B01AABB010E0C0124111E6ED8907E
:102E90001E34246F000E0B01AAB9010E0C0124117F
:102EA0001E6ED8901E34246F000E0B01AAB7010EBF
:102EB0000C0124111E6ED8901E34246F000E0B01DD
:102EC000AAB5010E0C0124111E6ED8901E34246F79
:102ED000000E0B01AAB3010E0C0124111E6ED89036
:102EE0001E34246F000E0B01AAB1010E0C01241137
:102EF0001E6E000E0B01ABBF010E1F12D8901F34C7
:102F00000C01246F000E0B01ABBD010E0C0124114E
:102F10001F6ED8901F34246F000E0B01ABBB010E47
:102F20000C0124111F6ED8901F34246F000E0B016A
:102F3000ABB9010E0C0124111F6ED8901F34246F01
:102F4000000E0B01ABB7010E0C0124111F6ED890BF
:102F50001F34246F000E0B01ABB5010E0C012411C0
:102F60001F6ED8901F34246F000E0B01ABB3010EFF
:102F70000C0124111F6ED8901F34246F000E0B011A
:102F8000ABB1010E0C0124111F6E00016CEF1EF09D
:102F9000948082B002D01AAE02D01AA406D0320EAB
:102FA0000C01236F000156EC03F0948082B002D034
:102FB0001AAE02D01AA48AD01A941D6A0B01AAB1C3
:102FC00002D0ACA104D0A881AA91AC919C91AAB3E3
:102FD00002D0ACA304D0A883AA93AC939C93AAB5C7
:102FE00002D0ACA504D0A885AA95AC959C95AAB7AB
:102FF00002D0ACA704D0A887AA97AC979C97AAB98F
:1030000002D0ACA904D0A889AA99AC999C99AABB72
:1030100002D0ACAB04D0A88BAA9BAC9B9C9BAABD56
:1030200002D0ACAD04D0A88DAA9DAC9D9C9DAABF3A
:1030300002D0ACAF04D0A88FAA9FAC9F9C9FABB12D
:1030400002D0ADA104D0A981AB91AD919D91ABB35C
:1030500002D0ADA304D0A983AB93AD939D93ABB540
:1030600002D0ADA504D0A985AB95AD959D95ABB724
:1030700002D0ADA704D0A987AB97AD979D97ABB908
:1030800002D0ADA904D0A989AB99AD999D99ABBBEC
:1030900002D0ADAB04D0A98BAB9BAD9B9D9BABBDD0
:1030A00002D0ADAD04D0A98DAB9DAD9D9D9DABBFB4
:1030B00002D0ADAF04D0A98FAB9FAD9F9D9F1A8E5C
:1030C000899892988996929608D00001948082A05F
:1030D00003D01AAE01D01A9E0B0100011200948297
:1030E00082B202D030A002D01AA606D0320E0C0155
:1030F000236F000156EC03F0948282B202D030A01C
:1031000002D01AA644D11A96000E0B019AB1010EF4
:103110000C01246F000E0B019EB1010E0C0124194D
:1031200007E10B01AAA102D00C0102D09C810C0185
:10313000000E0B019AB3010E0C01246F000E0B015F
:103140009EB3010E0C01241907E10B01AAA302D0C2
:103150000C0102D09C830C01000E0B019AB5010EEC
:103160000C01246F000E0B019EB5010E0C012419F9
:1031700007E10B01AAA502D00C0102D09C850C012D
:10318000000E0B019AB7010E0C01246F000E0B010B
:103190009EB7010E0C01241907E10B01AAA702D06A
:1031A0000C0102D09C870C01000E0B019AB9010E94
:1031B0000C01246F000E0B019EB9010E0C012419A5
:1031C00007E10B01AAA902D00C0102D09C890C01D5
:1031D000000E0B019ABB010E0C01246F000E0B01B7
:1031E0009EBB010E0C01241907E10B01AAAB02D012
:1031F0000C0102D09C8B0C01000E0B019ABD010E3C
:103200000C01246F000E0B019EBD010E0C01241950
:1032100007E10B01AAAD02D00C0102D09C8D0C017C
:10322000000E0B019ABF010E0C01246F000E0B0162
:103230009EBF010E0C01241907E10B01AAAF02D0B9
:103240000C0102D09C8F0C01000E0B019BB1010EF2
:103250000C01246F000E0B019FB1010E0C0124190B
:1032600007E10B01ABA102D00C0102D09D810C0142
:10327000000E0B019BB3010E0C01246F000E0B011D
:103280009FB3010E0C01241907E10B01ABA302D07F
:103290000C0102D09D830C01000E0B019BB5010EA9
:1032A0000C01246F000E0B019FB5010E0C012419B7
:1032B00007E10B01ABA502D00C0102D09D850C01EA
:1032C000000E0B019BB7010E0C01246F000E0B01C9
:1032D0009FB7010E0C01241907E10B01ABA702D027
:1032E0000C0102D09D870C01000E0B019BB9010E51
:1032F0000C01246F000E0B019FB9010E0C01241963
:1033000007E10B01ABA902D00C0102D09D890C0191
:10331000000E0B019BBB010E0C01246F000E0B0174
:103320009FBB010E0C01241907E10B01ABAB02D0CE
:103330000C0102D09D8B0C01000E0B019BBD010EF8
:103340000C01246F000E0B019FBD010E0C0124190E
:1033500007E10B01ABAD02D00C0102D09D8D0C0139
:10336000000E0B019BBF010E0C01246F000E0B0120
:103370009FBF010E0C01241907E10B01ABAF02D076
:103380000C0102D09D8F0C01308008D00001948286
:1033900082A203D030A001D030900C0100011200B5
:1033A0000400010E7A5D0C01236F010E256F7A0E69
:1033B000246F23CC26FC000115DC010E7A5D7A0F08
:1033C000E96E010EEA6ED8B0EA2AEF5005017B5D86
:1033D000D8A423EF2FF07A0E00017A25E96E010EB2
:1033E000EA6ED8B0EA2AEF5005017A5DD8A423EF3F
:1033F0002FF001017A51AA08D8A44CD27B512008A1
:10340000D8A448D279C07BF0200E00017C6F1C0E3E
:103410007D6F3A6A000E0C0113B1010E3A12D8907A
:103420003A34246F000E12BF010E24113A6ED89068
:103430003A34246F000E12BD010E24113A6ED8905A
:103440003A34246F000E12BB010E24113A6ED8904C
:103450003A34246F000E12B9010E24113A6ED8903E
:103460003A34246F000E12B7010E24113A6ED89030
:103470003A34246F000E12B5010E24113A6ED89022
:103480003A34246F000E12B3010E24113A6E3B6AD7
:10349000000E14B1010E3B12D8903B34246F000E85
:1034A00013BF010E24113B6ED8903B34246F000EE5
:1034B00013BD010E24113B6ED8903B34246F000ED7
:1034C00013BB010E24113B6ED8903B34246F000EC9
:1034D00013B9010E24113B6ED8903B34246F000EBB
:1034E00013B7010E24113B6ED8903B34246F000EAD
:1034F00013B5010E24113B6ED8903B34246F000E9F
:1035000013B3010E24113B6E3F6A000E15B1010E7C
:103510003F12D8903F34246F000E14BF010E2411C7
:103520003F6ED8903F34246F000E14BD010E24115D
:103530003F6ED8903F34246F000E14BB010E24114F
:103540003F6ED8903F34246F000E14B9010E241141
:103550003F6ED8903F34246F000E14B7010E241133
:103560003F6ED8903F34246F000E14B5010E241125
:103570003F6ED8903F34246F000E14B3010E241117
:103580003F6E3AC07EF03BC07FF03CC080F03DC053
:1035900081F03EC082F03FC083F040C084F041C063
:1035A00085F042C086F043C087F044C088F045C033
:1035B00089F046C08AF047C08BF048C08CF0F2CF4B
:1035C00023FCF29EAA6A100EA96EA69CA69EA68057
:1035D000A85023BFF28E00018D6FF2CF23FCF29E24
:1035E000AA6A110EA96EA69CA69EA680A8500C01E0
:1035F00023BFF28E00018E6FF2CF23FCF29EAA6AE7
:10360000120EA96EA69CA69EA680A8500C0123BFF0
:10361000F28E00018F6FF2CF23FCF29EAA6A130E86
:10362000A96EA69CA69EA680A8500C0123BFF28E70
:103630000001906FF2CF23FCF29EAA6A140EA96ECD
:10364000A69CA69EA680A8500C0123BFF28E000166
:10365000916FF2CF23FCF29EAA6A150EA96EA69C6A
:10366000A69EA680A8500C0123BFF28E0001926F87
:10367000F2CF23FCF29EAA6A160EA96EA69CA69E05
:10368000A680A8500C0123BFF28E0001936FF2CFE9
:1036900023FCF29EAA6A170EA96EA69CA69EA6807F
:1036A000A8500C0123BFF28E0001946F6AC095F000
:1036B0006BC096F06CC097F06DC098F0E80E996FF3
:1036C00079C09AF0EACB9BF0ECCB9CF0EECB9DF06E
:1036D000F0CB9EF0F2CB9FF0F4CBA0F0F6CBA1F0B4
:1036E000F8CBA2F0FACBA3F0FCCBA4F0FECBA5F074
:1036F00000CCA6F002CCA7F004CCA8F006CCA9F030
:1037000008CCAAF00ACCABF00CCCACF00ECCADF0EF
:1037100010CCAEF00C01256B7B0E246F340E266F9F
:103720000001F2EC15F07BC5AFF07AC5B0F08A86E7
:1037300093960A0E0C01236F000156EC03F07B51A7
:103740001DEC16F07C511DEC16F07D511DEC16F0B1
:103750007E511DEC16F07F511DEC16F080511DECD2
:1037600016F081511DEC16F082511DEC16F08351BC
:103770001DEC16F084511DEC16F085511DEC16F071
:1037800086511DEC16F087511DEC16F088511DEC8A
:1037900016F089511DEC16F08A511DEC16F08B5174
:1037A0001DEC16F08C511DEC16F08D511DEC16F031
:1037B0008E511DEC16F08F511DEC16F090511DEC42
:1037C00016F091511DEC16F092511DEC16F093512C
:1037D0001DEC16F094511DEC16F095511DEC16F0F1
:1037E00096511DEC16F097511DEC16F098511DECFA
:1037F00016F099511DEC16F09A511DEC16F09B51E4
:103800001DEC16F09C511DEC16F09D511DEC16F0B0
:103810009E511DEC16F09F511DEC16F0A0511DECB1
:1038200016F0A1511DEC16F0A2511DEC16F0A3519B
:103830001DEC16F0A4511DEC16F0A5511DEC16F070
:10384000A6511DEC16F0A7511DEC16F0A8511DEC69
:1038500016F0A9511DEC16F0AA511DEC16F0AB5153
:103860001DEC16F0AC511DEC16F0AD511DEC16F030
:10387000AE511DEC16F0AF511DEC16F0B0511DEC21
:1038800016F0030E0C01236F000156EC03F08A962C
:10389000939601010001795101017A5DD8A41EEFD0
:1038A0002FF07B2D12D205017F6B7CC17EF57EC58A
:1038B0007FF50C01236B235101017D1105017E6F02
:1038C0000501816B7EC180F580C581F50C01236BFC
:1038D000235101017F110501806F05017F53D8A499
:1038E000BBD17E510F08D8A0B7D180517E250C01E5
:1038F000236F050181517F210C01246F2453D8B41B
:1039000002D00501A9D123511008D8B002D0050179
:10391000A3D10501815306E18051080803E3010E9C
:10392000826F12D0815306E18051100803E3020E2A
:10393000826F0AD0815306E18051180803E3030E19
:10394000826F02D0010E826F822DA2D07F530DE1D3
:103950007E5108080AE349C083F57E51016E04E0F8
:10396000D8908333012EFCD71AD07F5303E17E51C8
:10397000080815E27F5313E17E510F0810E3080E8B
:103980007E5D006E000E7F59036E00C001F04AC0DC
:1039900083F5015204E0D8908333012EFCD7805187
:1039A000080803E1815301E135D08051070804E1A3
:1039B000815302E1839F2ED08051060805E1815397
:1039C00003E13F0E831726D08051050805E181539E
:1039D00003E11F0E83171ED08051040805E18153B7
:1039E00003E10F0E831716D08051030805E18153C0
:1039F00003E1070E83170ED08051020805E18153C1
:103A000003E1030E831706D0802D04D0815302E119
:103A1000010E831779C07BF0010E00017C6F82C517
:103A20007DF083C57EF00C01256B7B0E246F040EA8
:103A3000266F0001F2EC15F07BC57FF07AC580F0AF
:103A40008A8693960400040E0C01236F000156EC45
:103A500003F004007B511DEC16F07C511DEC16F0B8
:103A60007D511DEC16F07E511DEC16F07F511DECC2
:103A700016F080511DEC16F00400030E0C01236FAC
:103A8000000156EC03F004008A969396E3D00501FA
:103A900082510208D8A4DFD049C083F57E51016E5F
:103AA00004E0D8908333012EFCD74AC084F5070E7A
:103AB000805D0C01236F000E050181590C01246FFC
:103AC0002351080803E1245301E183D0070E0501C7
:103AD000805D0C01236F000E050181590C01246FDC
:103AE0002351070805E1245303E10501849F70D0A9
:103AF000070E0501805D0C01236F000E0501815941
:103B00000C01246F2351060806E1245304E13F0E03
:103B1000050184175DD0070E0501805D0C01236F40
:103B2000000E050181590C01246F2351050806E19F
:103B3000245304E11F0E050184174AD0070E050126
:103B4000805D0C01236F000E050181590C01246F6B
:103B50002351040806E1245304E10F0E05018417E4
:103B600037D0070E0501805D0C01236F000E0501A3
:103B700081590C01246F2351030806E1245304E109
:103B8000070E0501841724D0070E0501805D0C0186
:103B9000236F000E050181590C01246F2351020887
:103BA00006E1245304E1030E0501841711D0070E2A
:103BB0000501805D0C01236F000E050181590C0188
:103BC000246F232D06D0245304E1010E0501841730
:103BD0000C0179C07BF0010E00017C6F82C57DF085
:103BE00083C57EF084C57FF00C01256B7B0E246FAE
:103BF000050E266F0001F2EC15F07BC580F07AC54A
:103C000081F08A8693960400040E0C01236F000154
:103C100056EC03F004007B511DEC16F07C511DECBA
:103C200016F07D511DEC16F07E511DEC16F07F5103
:103C30001DEC16F080511DEC16F081511DEC16F0B4
:103C40000400030E0C01236F000156EC03F0040086
:103C50008A969396050138D079C07BF0810E0001D9
:103C60007C6F020E7D6F0C01256B7B0E246F030EA3
:103C7000266F0001F2EC15F07BC57EF07AC57FF06F
:103C80008A8693960400040E0C01236F000156EC03
:103C900003F004007B511DEC16F07C511DEC16F076
:103CA0007D511DEC16F07E511DEC16F07F511DEC80
:103CB00016F00400030E0C01236F000156EC03F014
:103CC00004008A969396050101017B510708D8A448
:103CD000B1D0000121EF16F09D921EC083F51FC0E8
:103CE00084F520C085F521C086F522C087F523C064
:103CF00088F524C089F525C08AF526C08BF527C034
:103D00008CF528C08DF529C08EF52AC08FF52BC003
:103D100090F52CC091F52DC092F579C07BF0070E7F
:103D20007C6F100E0501826F82C57DF083C57EF029
:103D300084C57FF085C580F086C581F087C582F097
:103D400088C583F089C584F08AC585F08BC586F067
:103D50008CC587F08DC588F08EC589F08FC58AF037
:103D600090C58BF091C58CF092C58DF00C01256B40
:103D70007B0E246F130E266F0001F2EC15F07BC54D
:103D80008EF07AC58FF08A8693960400040E0C019B
:103D9000236F000156EC03F004007B511DEC16F07C
:103DA0007C511DEC16F07D511DEC16F07E511DEC82
:103DB00016F07F511DEC16F080511DEC16F081516C
:103DC0001DEC16F082511DEC16F083511DEC16F01F
:103DD00084511DEC16F085511DEC16F086511DEC3A
:103DE00016F087511DEC16F088511DEC16F0895124
:103DF0001DEC16F08A511DEC16F08B511DEC16F0DF
:103E00008C511DEC16F08D511DEC16F08E511DECF1
:103E100016F08F511DEC16F00400030E0C01236FF9
:103E2000000156EC03F004008A9693969D82D3EF2E
:103E30002EF001017B510508D8A476D205017F6BD5
:103E40007CC17EF57EC57FF50C01236B23510101FA
:103E50007D1105017E6F0501816B7EC180F580C5F6
:103E600081F50C01236B235101017F110501806F46
:103E700005017E534FE17F534DE180534AE1813D7F
:103E800048D01A8479C07BF0050E00017C6F7CC19C
:103E90007DF07DC17EF07EC17FF07FC180F00C019E
:103EA000256B7B0E246F060E266F0001F2EC15F0D9
:103EB0007BC581F07AC582F08A8693960400040E51
:103EC0000C01236F000156EC03F004007B511DEC44
:103ED00016F07C511DEC16F07D511DEC16F07E5154
:103EE0001DEC16F07F511DEC16F080511DEC16F004
:103EF00081511DEC16F082511DEC16F00400030EEA
:103F00000C01236F000156EC03F004008A9693968F
:103F1000050107D27E2D4FD07F534DE180534AE1FA
:103F2000813D48D01A8679C07BF0050E00017C6F78
:103F30007CC17DF07DC17EF07EC17FF07FC180F0CD
:103F40000C01256B7B0E246F060E266F0001F2EC30
:103F500015F07BC581F07AC582F08A8693960400BD
:103F6000040E0C01236F000156EC03F004007B519A
:103F70001DEC16F07C511DEC16F07D511DEC16F079
:103F80007E511DEC16F07F511DEC16F080511DEC9A
:103F900016F081511DEC16F082511DEC16F0040054
:103FA000030E0C01236F000156EC03F004008A9607
:103FB00093960501B6D17E510208D8A4A5D07F53AF
:103FC000D8A4A2D080534BE1813D49D01A8879C052
:103FD0007BF0050E00017C6F7CC17DF07DC17EF021
:103FE0007EC17FF07FC180F00C01256B7B0E246FBA
:103FF000060E266F0001F2EC15F07BC581F07AC544
:1040000082F08A8693960400040E0C01236F00014F
:1040100056EC03F004007B511DEC16F07C511DECB6
:1040200016F07D511DEC16F07E511DEC16F07F51FF
:104030001DEC16F080511DEC16F081511DEC16F0B0
:1040400082511DEC16F00400030E0C01236F0001D9
:1040500056EC03F004008A96939654D005018053E1
:1040600052E1815350E11A980001EBEC0EF01A84F2
:10407000C8EC17F01A866FEC18F079C07BF0050ECB
:104080007C6F7CC17DF07DC17EF07EC17FF07FC101
:1040900080F00C01256B7B0E246F060E266F00014D
:1040A000F2EC15F07BC581F07AC582F08A86939692
:1040B0000400040E0C01236F000156EC03F0040011
:1040C0007B511DEC16F07C511DEC16F07D511DEC62
:1040D00016F07E511DEC16F07F511DEC16F080514C
:1040E0001DEC16F081511DEC16F082511DEC16F0FE
:1040F0000400030E0C01236F000156EC03F00400D2
:104100008A96939605010DD17E510308D8A4A5D0B7
:104110007F53D8A4A2D080534BE1813D49D01A8A65
:1041200079C07BF0050E00017C6F7CC17DF07DC104
:104130007EF07EC17FF07FC180F00C01256B7B0E8D
:10414000246F060E266F0001F2EC15F07BC581F09E
:104150007AC582F08A8693960400040E0C01236FC0
:10416000000156EC03F004007B511DEC16F07C516D
:104170001DEC16F07D511DEC16F07E511DEC16F075
:104180007F511DEC16F080511DEC16F081511DEC95
:1041900016F082511DEC16F004000A0E0C01236F7C
:1041A000000156EC03F004008A96939654D0050162
:1041B000805352E1815350E11A9A0001EBEC0EF06A
:1041C0001A84C8EC17F01A866FEC18F079C07BF0EF
:1041D000050E7C6F7CC17DF07DC17EF07EC17FF0DD
:1041E0007FC180F00C01256B7B0E246F060E266FBD
:1041F0000001F2EC15F07BC581F07AC582F08A8669
:1042000093960400040E0C01236F000156EC03F09A
:1042100004007B511DEC16F07C511DEC16F07D5115
:104220001DEC16F07E511DEC16F07F511DEC16F0C2
:1042300080511DEC16F081511DEC16F082511DECE1
:1042400016F00400030E0C01236F000156EC03F07E
:1042500004008A969396050164D07E51640861E15A
:104260007F535FE180C579F0F250006EF29EAA6A3A
:104270001D0EA96E79C0A8FFA69CA69EA6840F015C
:10428000550EA76EAA0EA76EA682A6B2FED7A6945A
:104290000050F21279C07BF0050E00017C6F7CC1EA
:1042A0007DF07DC17EF07EC17FF07FC180F00C018A
:1042B000256B7B0E246F060E266F0001F2EC15F0C5
:1042C0007BC581F07AC582F08A8693960400040E3D
:1042D0000C01236F000156EC03F004007B511DEC30
:1042E00016F07C511DEC16F07D511DEC16F07E5140
:1042F0001DEC16F07F511DEC16F080511DEC16F0F0
:1043000081511DEC16F082511DEC16F00400030ED5
:104310000C01236F000156EC03F004008A9693967B
:104320000501D4EF2EF001017B512108D8A44BEFF9
:1043300026F0F250006EF29EAA6AA96A0F0EA86ECD
:10434000A69CA69EA6840F01550EA76EAA0EA76E68
:10435000A682A6B2FED7A6940050F212F2CF00F0C9
:10436000F29EAA6A010EA96E7DC1A8FFA69CA69E18
:10437000A684550EA76EAA0EA76EA682A6B2FED779
:10438000A6940050F212F2CF00F0F29EAA6A020E3A
:10439000A96E7EC1A8FFA69CA69EA684550EA76EF8
:1043A000AA0EA76EA682A6B2FED7A6940050F2125D
:1043B000F2CF00F0F29EAA6A030EA96E7FC1A8FF99
:1043C000A69CA69EA684550EA76EAA0EA76EA682D0
:1043D000A6B2FED7A6940050F212F2CF00F0F29EE1
:1043E000AA6A040EA96E80C1A8FFA69CA69EA684F8
:1043F000550EA76EAA0EA76EA682A6B2FED7A694E9
:104400000050F212F2CF00F0F29EAA6A050EA96ED9
:1044100081C1A8FFA69CA69EA684550EA76EAA0ED3
:10442000A76EA682A6B2FED7A6940050F212F2CFD3
:1044300000F0F29EAA6A060EA96E82C1A8FFA69C91
:10444000A69EA684550EA76EAA0EA76EA682A6B239
:10445000FED7A6940050F212F2CF00F0F29EAA6AA4
:10446000070EA96E83C1A8FFA69CA69EA684550E22
:10447000A76EAA0EA76EA682A6B2FED7A69400507B
:10448000F212F2CF00F0F29EAA6A080EA96E84C161
:10449000A8FFA69CA69EA684550EA76EAA0EA76E80
:1044A000A682A6B2FED7A6940050F212F2CF00F078
:1044B000F29EAA6A090EA96E85C1A8FFA69CA69EB7
:1044C000A684550EA76EAA0EA76EA682A6B2FED728
:1044D000A6940050F212F2CF00F0F29EAA6A0A0EE1
:1044E000A96E86C1A8FFA69CA69EA684550EA76E9F
:1044F000AA0EA76EA682A6B2FED7A6940050F2120C
:10450000F2CF00F0F29EAA6A0B0EA96E87C1A8FF37
:10451000A69CA69EA684550EA76EAA0EA76EA6827E
:10452000A6B2FED7A6940050F212F2CF00F0F29E8F
:10453000AA6A0C0EA96E88C1A8FFA69CA69EA68496
:10454000550EA76EAA0EA76EA682A6B2FED7A69497
:104550000050F212F2CF00F0F29EAA6A0D0EA96E80
:1045600089C1A8FFA69CA69EA684550EA76EAA0E7A
:10457000A76EA682A6B2FED7A6940050F212F2CF82
:1045800000F0F29EAA6A0E0EA96E8AC1A8FFA69C30
:10459000A69EA684550EA76EAA0EA76EA682A6B2E8
:1045A000FED7A6940050F212F2CF00F0F29EAA6A53
:1045B0000F0EA96E8BC1A8FFA69CA69EA684550EC1
:1045C000A76EAA0EA76EA682A6B2FED7A69400502A
:1045D000F212F2CF00F0F29EAA6A100EA96E8CC100
:1045E000A8FFA69CA69EA684550EA76EAA0EA76E2F
:1045F000A682A6B2FED7A6940050F212F2CF00F027
:10460000F29EAA6A110EA96E8DC1A8FFA69CA69E55
:10461000A684550EA76EAA0EA76EA682A6B2FED7D6
:10462000A6940050F212F2CF00F0F29EAA6A120E87
:10463000A96E8EC1A8FFA69CA69EA684550EA76E45
:10464000AA0EA76EA682A6B2FED7A6940050F212BA
:10465000F2CF00F0F29EAA6A130EA96E8FC1A8FFD6
:10466000A69CA69EA684550EA76EAA0EA76EA6822D
:10467000A6B2FED7A6940050F212F2CF00F0F29E3E
:10468000AA6A140EA96E90C1A8FFA69CA69EA68435
:10469000550EA76EAA0EA76EA682A6B2FED7A69446
:1046A0000050F212F2CF00F0F29EAA6A150EA96E27
:1046B00091C1A8FFA69CA69EA684550EA76EAA0E21
:1046C000A76EA682A6B2FED7A6940050F212F2CF31
:1046D00000F0F29EAA6A160EA96E92C1A8FFA69CCF
:1046E000A69EA684550EA76EAA0EA76EA682A6B297
:1046F000FED7A6940050F212F2CF00F0F29EAA6A02
:10470000170EA96E93C1A8FFA69CA69EA684550E5F
:10471000A76EAA0EA76EA682A6B2FED7A6940050D8
:10472000F212F2CF00F0F29EAA6A180EA96E94C19E
:10473000A8FFA69CA69EA684550EA76EAA0EA76EDD
:10474000A682A6B2FED7A6940050F212F2CF00F0D5
:10475000F29EAA6A190EA96E95C1A8FFA69CA69EF4
:10476000A684550EA76EAA0EA76EA682A6B2FED785
:10477000A6940050F212F2CF00F0F29EAA6A1A0E2E
:10478000A96E96C1A8FFA69CA69EA684550EA76EEC
:10479000AA0EA76EA682A6B2FED7A6940050F21269
:1047A000F2CF00F0F29EAA6A1B0EA96E97C1A8FF75
:1047B000A69CA69EA684550EA76EAA0EA76EA682DC
:1047C000A6B2FED7A6940050F212F2CF00F0F29EED
:1047D000AA6A1C0EA96E98C1A8FFA69CA69EA684D4
:1047E000550EA76EAA0EA76EA682A6B2FED7A694F5
:1047F0000050F212F2CF00F0F29EAA6A1D0EA96ECE
:1048000099C1A8FFA69CA69EA684550EA76EAA0EC7
:10481000A76EA682A6B2FED7A6940050F212F2CFDF
:1048200000F0F29EAA6A1E0EA96E9AC1A8FFA69C6D
:10483000A69EA684550EA76EAA0EA76EA682A6B245
:10484000FED7A6940050F212F2CF00F0F29EAA6AB0
:104850001F0EA96E9BC1A8FFA69CA69EA684550EFE
:10486000A76EAA0EA76EA682A6B2FED7A694005087
:10487000F212F2CF00F0F29EAA6A200EA96E9CC13D
:10488000A8FFA69CA69EA684550EA76EAA0EA76E8C
:10489000A682A6B2FED7A6940050F212F2CF00F084
:1048A000F29EAA6A210EA96E9DC1A8FFA69CA69E93
:1048B000A684550EA76EAA0EA76EA682A6B2FED734
:1048C000A6940050F212F2CF00F0F29EAA6A220ED5
:1048D000A96E9EC1A8FFA69CA69EA684550EA76E93
:1048E000AA0EA76EA682A6B2FED7A6940050F21218
:1048F000F2CF00F0F29EAA6A230EA96E9FC1A8FF14
:10490000A69CA69EA684550EA76EAA0EA76EA6828A
:10491000A6B2FED7A6940050F212F2CF00F0F29E9B
:10492000AA6A240EA96EA0C1A8FFA69CA69EA68472
:10493000550EA76EAA0EA76EA682A6B2FED7A694A3
:104940000050F212F2CF00F0F29EAA6A250EA96E74
:10495000A1C1A8FFA69CA69EA684550EA76EAA0E6E
:10496000A76EA682A6B2FED7A6940050F212F2CF8E
:1049700000F0F29EAA6A260EA96EA2C1A8FFA69C0C
:10498000A69EA684550EA76EAA0EA76EA682A6B2F4
:10499000FED7A6940050F212F2CF00F0F29EAA6A5F
:1049A000270EA96EA3C1A8FFA69CA69EA684550E9D
:1049B000A76EAA0EA76EA682A6B2FED7A694005036
:1049C000F212F2CF00F0F29EAA6A280EA96EA4C1DC
:1049D000A8FFA69CA69EA684550EA76EAA0EA76E3B
:1049E000A682A6B2FED7A6940050F212F2CF00F033
:1049F000F29EAA6A290EA96EA5C1A8FFA69CA69E32
:104A0000A684550EA76EAA0EA76EA682A6B2FED7E2
:104A1000A6940050F212F2CF00F0F29EAA6A2A0E7B
:104A2000A96EA6C1A8FFA69CA69EA684550EA76E39
:104A3000AA0EA76EA682A6B2FED7A6940050F212C6
:104A4000F2CF00F0F29EAA6A2B0EA96EA7C1A8FFB2
:104A5000A69CA69EA684550EA76EAA0EA76EA68239
:104A6000A6B2FED7A6940050F212F2CF00F0F29E4A
:104A7000AA6A2C0EA96EA8C1A8FFA69CA69EA68411
:104A8000550EA76EAA0EA76EA682A6B2FED7A69452
:104A90000050F212F2CF00F0F29EAA6A2D0EA96E1B
:104AA000A9C1A8FFA69CA69EA684550EA76EAA0E15
:104AB000A76EA682A6B2FED7A6940050F212F2CF3D
:104AC00000F0F29EAA6A2E0EA96EAAC1A8FFA69CAB
:104AD000A69EA684550EA76EAA0EA76EA682A6B2A3
:104AE000FED7A6940050F212F2CF00F0F29EAA6A0E
:104AF0002F0EA96EABC1A8FFA69CA69EA684550E3C
:104B0000A76EAA0EA76EA682A6B2FED7A6940050E4
:104B1000F212F2CF00F0F29EAA6A300EA96EACC17A
:104B2000A8FFA69CA69EA684550EA76EAA0EA76EE9
:104B3000A682A6B2FED7A6940050F212F2CF00F0E1
:104B4000F29EAA6A310EA96EADC1A8FFA69CA69ED0
:104B5000A684550EA76EAA0EA76EA682A6B2FED791
:104B6000A6940050F2120C011B6B1A6B0400AE0EDF
:104B70001A25E96E010E1B21EA6EEFCF1CFC1C51B9
:104B80000D0805E01B5303E11A510F0827E28B0EB5
:104B90001A25E96E090E1B21EA6EEF6A320E1A25FC
:104BA000236F000E1B21246FF250006EF29E24CC66
:104BB000AAFF23CCA9FF1CCCA8FFA69CA69EA68476
:104BC0000F01550EA76EAA0EA76EA682A6B2FED73B
:104BD000A6940050F2122DD026D00C018B0E1A256F
:104BE000E96E090E1B21EA6E1CCCEFFF320E1A256E
:104BF000236F000E1B21246FF250006EF29E24CC16
:104C0000AAFF23CCA9FF1CCCA8FFA69CA69EA68425
:104C10000F01550EA76EAA0EA76EA682A6B2FED7EA
:104C2000A6940050F2120C011A2BD8B41B2B9ED75D
:104C30000F0179C07BF0210E00017C6F0C01256B08
:104C40007B0E246F020E266F0001F2EC15F07BC57F
:104C50007DF07AC57EF08A8693960A0E0C01236F4A
:104C6000000156EC03F07B511DEC16F07C511DEC5D
:104C700016F07D511DEC16F07E511DEC16F0030E62
:104C80000C01236F000156EC03F08A969396FF0007
:104C9000D3EF2EF001017B512208D8A4D3EF2EF0E0
:104CA0000C011E6B040E1D6F206B1F6B226B216BA2
:104CB00004007A0E1D25E96E010E1E21EA6EEF50EA
:104CC0000D0805E0205303E11F511E0820E25D0E90
:104CD0001D25236F000E1E21246FF250006EF29EE0
:104CE00024CCAAFF23CCA9FF0D0EA86EA69CA69EDD
:104CF000A6840F01550EA76EAA0EA76EA682A6B2B5
:104D0000FED7A6940050F21247D03AD00C019A0E6A
:104D10001F25016E090E2021036E7A0E1D25E96EF6
:104D2000010E1E21EA6EEFCF25FC03C0EAFF01C091
:104D3000E9FF25CCEFFF5D0E1D25236F000E1E2120
:104D4000246F7A0E1D25E96E010E1E21EA6EEFCF4B
:104D500025FCF250006EF29E24CCAAFF23CCA9FFC2
:104D600025CCA8FFA69CA69EA6840F01550EA76E73
:104D7000AA0EA76EA682A6B2FED7A6940050F21283
:104D80000C011ECC03F01D511D2BD8B41E2B1F2B64
:104D9000D8B4202B8DD70F019A0E0C011F25E96E78
:104DA000090E2021EA6EEF6A206B1F6B1D2BD8B411
:104DB0001E2B04007A0E1D25E96E010E1E21EA6EDF
:104DC000EF500D0805E0205303E11F511E0820E2BB
:104DD0005D0E1D25236F000E1E21246FF250006E04
:104DE000F29E24CCAAFF23CCA9FF0D0EA86EA69C90
:104DF000A69EA6840F01550EA76EAA0EA76EA682C8
:104E0000A6B2FED7A6940050F21247D03AD00C01B9
:104E1000BA0E1F25016E090E2021036E7A0E1D2584
:104E2000E96E010E1E21EA6EEFCF25FC03C0EAFFFA
:104E300001C0E9FF25CCEFFF5D0E1D25236F000E9D
:104E40001E21246F7A0E1D25E96E010E1E21EA6EC9
:104E5000EFCF25FCF250006EF29E24CCAAFF23CCAB
:104E6000A9FF25CCA8FFA69CA69EA6840F01550EDF
:104E7000A76EAA0EA76EA682A6B2FED7A694005071
:104E8000F2120C011ECC03F01D511D2BD8B41E2BA9
:104E90001F2BD8B4202B8DD70F01BA0E0C011F2564
:104EA000E96E090E2021EA6EEF6A206B1F6B1D2B45
:104EB000D8B41E2B04007A0E1D25E96E010E1E21AA
:104EC000EA6EEF500D0805E0205303E11F511E0864
:104ED00020E25D0E1D25236F000E1E21246FF2506F
:104EE000006EF29E24CCAAFF23CCA9FF0D0EA86E63
:104EF000A69CA69EA6840F01550EA76EAA0EA76EAD
:104F0000A682A6B2FED7A6940050F21247D03AD09D
:104F10000C01DA0E1F25016E090E2021036E7A0E98
:104F20001D25E96E010E1E21EA6EEFCF25FC03C0A0
:104F3000EAFF01C0E9FF25CCEFFF5D0E1D25236FC1
:104F4000000E1E21246F7A0E1D25E96E010E1E2112
:104F5000EA6EEFCF25FCF250006EF29E24CCAAFF41
:104F600023CCA9FF25CCA8FFA69CA69EA6840F0152
:104F7000550EA76EAA0EA76EA682A6B2FED7A6945D
:104F80000050F2120C011ECC03F01D511D2BD8B4A1
:104F90001E2B1F2BD8B4202B8DD70F01DA0E0C013E
:104FA0001F25E96E090E2021EA6EEF6A206B1F6B48
:104FB0001D2BD8B41E2B04007A0E1D25E96E010EA0
:104FC0001E21EA6EEF500D0805E0205303E11F514A
:104FD0001E0820E25D0E1D25236F000E1E21246F8A
:104FE000F250006EF29E24CCAAFF23CCA9FF0D0E36
:104FF000A86EA69CA69EA6840F01550EA76EAA0EAB
:10500000A76EA682A6B2FED7A6940050F21247D091
:105010003AD00C01FA0E1F25016E090E2021036EF5
:105020007A0E1D25E96E010E1E21EA6EEFCF25FCDA
:1050300003C0EAFF01C0E9FF25CCEFFF5D0E1D258F
:10504000236F000E1E21246F7A0E1D25E96E010EBE
:105050001E21EA6EEFCF25FCF250006EF29E24CCAA
:10506000AAFF23CCA9FF25CCA8FFA69CA69EA684B8
:105070000F01550EA76EAA0EA76EA682A6B2FED786
:10508000A6940050F2120C011ECC03F01D511D2BF2
:10509000D8B41E2B1F2BD8B4202B8DD70F01FA0E9E
:1050A0000C011F25E96E090E2021EA6EEF6A206BC4
:1050B0001F6B1D2BD8B41E2B04007A0E1D25E96E24
:1050C000010E1E21EA6EEF500D0805E0205303E1AA
:1050D0001F511E0820E25D0E1D25236F000E1E21AC
:1050E000246FF250006EF29E24CCAAFF23CCA9FFBD
:1050F0000D0EA86EA69CA69EA6840F01550EA76E47
:10510000AA0EA76EA682A6B2FED7A6940050F212EF
:1051100047D03AD00C011A0E1F25016E0A0E20212D
:10512000036E7A0E1D25E96E010E1E21EA6EEFCF89
:1051300025FC03C0EAFF01C0E9FF25CCEFFF5D0EAF
:105140001D25236F000E1E21246F7A0E1D25E96E8A
:10515000010E1E21EA6EEFCF25FCF250006EF29E8A
:1051600024CCAAFF23CCA9FF25CCA8FFA69CA69EF1
:10517000A6840F01550EA76EAA0EA76EA682A6B230
:10518000FED7A6940050F2120C011ECC03F01D5164
:105190001D2BD8B41E2B1F2BD8B4202B8DD70F015D
:1051A0001A0E0C011F25E96E0A0E2021EA6EEF6A25
:1051B000206B1F6B1D2BD8B41E2B04007A0E1D25EF
:1051C000E96E010E1E21EA6EEF500D0805E0205336
:1051D00003E11F511E0820E25D0E1D25236F000E06
:1051E0001E21246FF250006EF29E24CCAAFF23CC25
:1051F000A9FF0D0EA86EA69CA69EA6840F01550EB3
:10520000A76EAA0EA76EA682A6B2FED7A6940050DD
:10521000F21249D03CD00C015D0E1D25236F000E0B
:105220001E21246F7A0E1D25E96E010E1E21EA6EE5
:10523000EFCF25FCF250006EF29E24CCAAFF23CCC7
:10524000A9FF25CCA8FFA69CA69EA6840F01550EFB
:10525000A76EAA0EA76EA682A6B2FED7A69400508D
:10526000F2123A0E0C011F25016E0A0E2021036E68
:105270007A0E1D25E96E010E1E21EA6EEFCF25FC88
:1052800003C0EAFF01C0E9FF25CCEFFF0F010C01CD
:105290001ECC03F01D511D2BD8B41E2B1F2BD8B4D0
:1052A000202B8BD70F013A0E0C011F25E96E0A0E39
:1052B0002021EA6EEF6A206B1F6B1D2BD8B41E2BCA
:1052C00004007A0E1D25E96E010E1E21EA6EEF50D4
:1052D0000D0805E0205303E11F511E0820E25D0E7A
:1052E0001D25236F000E1E21246FF250006EF29ECA
:1052F00024CCAAFF23CCA9FF0D0EA86EA69CA69EC7
:10530000A6840F01550EA76EAA0EA76EA682A6B29E
:10531000FED7A6940050F21247D03AD00C015A0E94
:105320001F25016E0A0E2021036E7A0E1D25E96EDF
:10533000010E1E21EA6EEFCF25FC03C0EAFF01C07B
:10534000E9FF25CCEFFF5D0E1D25236F000E1E210A
:10535000246F7A0E1D25E96E010E1E21EA6EEFCF35
:1053600025FCF250006EF29E24CCAAFF23CCA9FFAC
:1053700025CCA8FFA69CA69EA6840F01550EA76E5D
:10538000AA0EA76EA682A6B2FED7A6940050F2126D
:105390000C011ECC03F01D511D2BD8B41E2B1F2B4E
:1053A000D8B4202B8DD70F015A0E0C011F25E96EA2
:1053B0000A0E2021EA6EEF6A206B1F6B1D2BD8B4FA
:1053C0001E2B04007A0E1D25E96E010E1E21EA6EC9
:1053D000EF500D0805E0205303E11F511E0820E2A5
:1053E0005D0E1D25236F000E1E21246FF250006EEE
:1053F000F29E24CCAAFF23CCA9FF0D0EA86EA69C7A
:10540000A69EA6840F01550EA76EAA0EA76EA682B1
:10541000A6B2FED7A6940050F21247D03AD00C01A3
:105420007A0E1F25016E0A0E2021036E7A0E1D25AD
:10543000E96E010E1E21EA6EEFCF25FC03C0EAFFE4
:1054400001C0E9FF25CCEFFF5D0E1D25236F000E87
:105450001E21246F7A0E1D25E96E010E1E21EA6EB3
:10546000EFCF25FCF250006EF29E24CCAAFF23CC95
:10547000A9FF25CCA8FFA69CA69EA6840F01550EC9
:10548000A76EAA0EA76EA682A6B2FED7A69400505B
:10549000F2120C011ECC03F01D511D2BD8B41E2B93
:1054A0001F2BD8B4202B8DD70F017A0E0C011F258E
:1054B000E96E0A0E2021EA6EEF6A206B1F6B1D2B2E
:1054C000D8B41E2B04007A0E1D25E96E010E1E2194
:1054D000EA6EEF500D0805E0205303E11F511E084E
:1054E00028E25D0E1D25236F000E1E21246F7A0E0B
:1054F0001D25E96E010E1E21EA6EEFCF25FCF2504C
:10550000006EF29E24CCAAFF23CCA9FF25CCA8FFD5
:10551000A69CA69EA6840F01550EA76EAA0EA76E86
:10552000A682A6B2FED7A6940050F21247D03AD077
:105530000C019A0E1F25016E0A0E2021036E7A0EB1
:105540001D25E96E010E1E21EA6EEFCF25FC03C07A
:10555000EAFF01C0E9FF25CCEFFF5D0E1D25236F9B
:10556000000E1E21246F7A0E1D25E96E010E1E21EC
:10557000EA6EEFCF25FCF250006EF29E24CCAAFF1B
:1055800023CCA9FF25CCA8FFA69CA69EA6840F012C
:10559000550EA76EAA0EA76EA682A6B2FED7A69437
:1055A0000050F2120C011ECC03F01D511D2BD8B47B
:1055B0001E2B1F2BD8B4202B85D70F019A0E0C0160
:1055C0001F25E96E0A0E2021EA6EEF6A206B1F6B21
:1055D0001D2BD8B41E2B04007A0E1D25E96E010E7A
:1055E0001E21EA6EEF500D0805E0205303E11F5124
:1055F0001E0828E25D0E1D25236F000E1E21246F5C
:105600007A0E1D25E96E010E1E21EA6EEFCF25FCF4
:10561000F250006EF29E24CCAAFF23CCA9FF25CC29
:10562000A8FFA69CA69EA6840F01550EA76EAA0EE3
:10563000A76EA682A6B2FED7A6940050F21247D05B
:105640003AD00C01BA0E1F25016E0A0E2021036EFE
:105650007A0E1D25E96E010E1E21EA6EEFCF25FCA4
:1056600003C0EAFF01C0E9FF25CCEFFF5D0E1D2559
:10567000236F000E1E21246F7A0E1D25E96E010E88
:105680001E21EA6EEFCF25FCF250006EF29E24CC74
:10569000AAFF23CCA9FF25CCA8FFA69CA69EA68482
:1056A0000F01550EA76EAA0EA76EA682A6B2FED750
:1056B000A6940050F2120C011ECC03F01D511D2BBC
:1056C000D8B41E2B1F2BD8B4202B85D70F01BA0EB0
:1056D0000C011F25E96E0A0E2021EA6EEF6A206B8D
:1056E0001F6B1D2BD8B41E2B04007A0E1D25E96EEE
:1056F000010E1E21EA6EEF500D0805E0205303E174
:105700001F511E0828E25D0E1D25236F000E1E216D
:10571000246F7A0E1D25E96E010E1E21EA6EEFCF71
:1057200025FCF250006EF29E24CCAAFF23CCA9FFE8
:1057300025CCA8FFA69CA69EA6840F01550EA76E99
:10574000AA0EA76EA682A6B2FED7A6940050F212A9
:1057500047D03AD00C01DA0E1F25016E0A0E202127
:10576000036E7A0E1D25E96E010E1E21EA6EEFCF43
:1057700025FC03C0EAFF01C0E9FF25CCEFFF5D0E69
:105780001D25236F000E1E21246F7A0E1D25E96E44
:10579000010E1E21EA6EEFCF25FCF250006EF29E44
:1057A00024CCAAFF23CCA9FF25CCA8FFA69CA69EAB
:1057B000A6840F01550EA76EAA0EA76EA682A6B2EA
:1057C000FED7A6940050F2120C011ECC03F01D511E
:1057D0001D2BD8B41E2B1F2BD8B4202B85D70F011F
:1057E000DA0E0C011F25E96E0A0E2021EA6EEF6A1F
:1057F000206B1F6B1D2BD8B41E2B04007A0E1D25A9
:10580000E96E010E1E21EA6EEF500D0805E02053EF
:1058100003E11F511E0828E25D0E1D25236F000EB7
:105820001E21246F7A0E1D25E96E010E1E21EA6EDF
:10583000EFCF25FCF250006EF29E24CCAAFF23CCC1
:10584000A9FF25CCA8FFA69CA69EA6840F01550EF5
:10585000A76EAA0EA76EA682A6B2FED7A694005087
:10586000F21247D03AD00C01FA0E1F25016E0A0E33
:105870002021036E7A0E1D25E96E010E1E21EA6EAF
:10588000EFCF25FC03C0EAFF01C0E9FF25CCEFFF05
:105890005D0E1D25236F000E1E21246F7A0E1D251F
:1058A000E96E010E1E21EA6EEFCF25FCF250006E6C
:1058B000F29E24CCAAFF23CCA9FF25CCA8FFA69C4E
:1058C000A69EA6840F01550EA76EAA0EA76EA682ED
:1058D000A6B2FED7A6940050F2120C011ECC03F023
:1058E0001D511D2BD8B41E2B1F2BD8B4202B85D7B0
:1058F0000F01FA0E0C011F25E96E0A0E2021EA6E37
:10590000EF6A206B1F6B1D2BD8B41E2B04007A0E80
:105910001D25E96E010E1E21EA6EEF500D0805E00F
:10592000205303E11F511E0828E25D0E1D25236F41
:10593000000E1E21246F7A0E1D25E96E010E1E2118
:10594000EA6EEFCF25FCF250006EF29E24CCAAFF47
:1059500023CCA9FF25CCA8FFA69CA69EA6840F0158
:10596000550EA76EAA0EA76EA682A6B2FED7A69463
:105970000050F21247D03AD00C011A0E1F25016ECA
:105980000B0E2021036E7A0E1D25E96E010E1E21DD
:10599000EA6EEFCF25FC03C0EAFF01C0E9FF25CC8A
:1059A000EFFF5D0E1D25236F000E1E21246F7A0E62
:1059B0001D25E96E010E1E21EA6EEFCF25FCF25087
:1059C000006EF29E24CCAAFF23CCA9FF25CCA8FF11
:1059D000A69CA69EA6840F01550EA76EAA0EA76EC2
:1059E000A682A6B2FED7A6940050F2120C011ECCDD
:1059F00003F01D511D2BD8B41E2B1F2BD8B4202B08
:105A000085D70F011A0E0C011F25E96E0B0E202100
:105A1000EA6EEF6A206B1F6B1D2BD8B41E2B04009F
:105A20007A0E1D25E96E010E1E21EA6EEF500D085B
:105A300005E0205303E11F511E0828E25D0E1D25DD
:105A4000236F000E1E21246F7A0E1D25E96E010EB4
:105A50001E21EA6EEFCF25FCF250006EF29E24CCA0
:105A6000AAFF23CCA9FF25CCA8FFA69CA69EA684AE
:105A70000F01550EA76EAA0EA76EA682A6B2FED77C
:105A8000A6940050F21247D03AD00C013A0E1F25CE
:105A9000016E0B0E2021036E7A0E1D25E96E010E9C
:105AA0001E21EA6EEFCF25FC03C0EAFF01C0E9FF2B
:105AB00025CCEFFF5D0E1D25236F000E1E21246FE8
:105AC0007A0E1D25E96E010E1E21EA6EEFCF25FC30
:105AD000F250006EF29E24CCAAFF23CCA9FF25CC65
